:100000000C9450060C9497240C9470240C94E725BF
:100010000C9478060C94F1250C94DD250C9478064C
:100020000C9478060C9478060C9478060C94780658
:100030000C9478060C9478060C9478060C94780648
:100040000C9426240C9478060C9478060C9478066C
:100050000C9478060C9478060C9478060C94780628
:100060000C94BE240C947806036EDB363D9A999965
:10007000993DABAAAA2A3E000000803F072C7AA532
:10008000BA6CC590DA3B9365FC8BBC53F810FD3C11
:100090005692834DBD879D3AB63DCBC9BF5BBE73BB
:1000A000DA0FC93F05A84CCDB2D44EB93836A902F3
:1000B0000C50B9918688083CA6AAAA2ABE00000066
:1000C000803F0664EC1B3C04BC163E3BE5B93CC9D2
:1000D0003C37C29E5A3D660498083EEA69AAAA3E89
:1000E000000000803F0050494341504F54004453AA
:1000F0003138423230004341544E49500041544D52
:10010000454741333238004E4F4E4500335D486F0E
:1001100075727300322E355D486F75727300325DF3
:10012000486F75727300312E355D486F75727300BC
:10013000315D486F75720035305D4D696E00343049
:100140005D4D696E0033305D4D696E0032355D4D39
:10015000696E0032305D4D696E0031355D4D696EFE
:100160000031305D4D696E00395D4D696E00385D5E
:100170004D696E00375D4D696E00365D4D696E00EC
:10018000355D4D696E00345D4D696E00335D4D69BE
:100190006E00325D4D696E00315D4D696E004455F3
:1001A000534B2B3132305D4D696E004455534B2B10
:1001B00036305D4D696E004455534B2B33305D4DE9
:1001C000696E004455534B2D33305D4D696E0044CC
:1001D00055534B2D36305D4D696E004455534B2DB4
:1001E0003132305D4D696E004455534B00444157E8
:1001F0004E2B3132305D4D696E004441574E2B36E7
:10020000305D4D696E004441574E2B33305D4D6972
:100210006E004441574E2D33305D4D696E004441B0
:10022000574E2D36305D4D696E004441574E2D318D
:1002300032305D4D696E004441574E004D414E5580
:10024000414C004F4646002223002227003B270056
:100250005F27006027005341004652005448005772
:1002600044005455004D4F00535500444543004E43
:100270004F56004F43540053455000415547004AE4
:10028000554C004A554E004D415900415052004DC9
:10029000415200464542004A414E00AED580A83F3B
:1002A000D300408D142002A1C8DA12817FD9F1DB7E
:1002B00040A4A6AF434C4B45522D5700434C4B45F1
:1002C000522D530048554D3D2620262520544D5093
:1002D0003D26265E005643433D26204241543D269E
:1002E0005E004455524154494F4E3D265E004C41FC
:1002F000535420414C323D3230262D262D265E00AF
:100300004455524154494F4E3D265E004C41535492
:1003100020414C313D3230262D262D265E00575788
:10032000572E50494341504F542E434F4D5E00537A
:10033000554E46592D3332382056322E315E007CD0
:10034000262620263A265E002026265E007B2626CC
:1003500020263A265E005B5B5B54454D504552417A
:10036000545552455E004475722E3D265E005B5723
:1003700041544552494E475B5B5D4E4F575E0053BB
:10038000454E534F523D20265E000701FD00F6000A
:10039000EE00E600434C4F434B2043414C49425250
:1003A00041542E3D2026265E004845415457415673
:1003B000452041444A5553543D2026265E00534B68
:1003C0004950204943453D2026262C5E00534B4989
:1003D00050204943453D204F46465E00534B49500F
:1003E000204943453D2026267E5E00534B49502040
:1003F0004943453D205E0054454D5045522E205501
:100400004E49543D20265E0020205B5B5B4F5054DC
:10041000494F4E535E00534B495020444159533D80
:10042000204155544F5E00534B495020444159538D
:100430003D204F46465E00534B495020444159539E
:100440003D20265E00534B495020444159533D20E6
:100450005E00534B49502048554D49444954593D3D
:10046000204F46465E00534B49502048554D494465
:100470004954593D2026255E00534B49502048558C
:100480004D49444954593D205E00534541534F4E18
:100490002041444A5553543D204F46465E00534543
:1004A00041534F4E2041444A5553543D202B26255D
:1004B0005E00534541534F4E2041444A5553543DED
:1004C000205E004455524154494F4E3D20265E0067
:1004D000980192018C01860180017A0174016E01FC
:1004E000680161015A0153014C0145013E01370188
:1004F000300126011E0114010C0154494D453D20D7
:10050000263A265E004D4F44453D20265E002020C1
:100510005B5B5B414C41524D2D265E0043023C0229
:10052000E801DB01CF01C301B701AB019E0143022A
:100530003C0237022A021E0212020602FA01ED01F3
:100540004C4F4E4749545544453D2026265E004CAD
:100550004F4E4749545544453D205E004C41544957
:10056000545544453D2026265E004C41544954557F
:1005700044453D205E004441594C4947485420536E
:100580004156494E473D20265E0054494D455A4F3D
:100590004E453D20262626265E0054494D455A4F9D
:1005A0004E453D205E005B5B5B47454F4C4F4341F2
:1005B00054494F4E5E00263A263A265E0000000F50
:1005C0001B2F0C00000000000000000000000000D5
:1005D000000000000000000000000000000000001B
:1005E000000000000000000000000000000000000B
:1005F00000000000000000000000000000000000FB
:1006000000C0E0F0F8787878F8F0E0C0000000FE74
:10061000FFFFFF0100000001FFFFFFFE00001FFFC2
:10062000FFFFE0808080E0FFFFFF1F00000000016F
:100630000307070707070301000000000080C0E070
:10064000F0F8F8F8F80000000000000F07030100C0
:10065000FFFFFFFF0000000000000080808080FF9F
:10066000FFFFFF8080808000000007070707070763
:10067000070707070707000080E0F0F0F8787878B0
:10068000F8F0F0E080000003030303000080C0F0F6
:10069000FFFF7F0F000000E0F0FCFEFF8F878381EB
:1006A000808080000007070707070707070707077D
:1006B0000707000000C0F0F0F8787878F8F0F0E074
:1006C0008000000303030300F0F0F0F8FFFF9F0732
:1006D000000018F8F8F8E0808080E1FFFFFF7F005D
:1006E00000000003030707070707030301000000DA
:1006F000000000000000C0E0F8F8F8F8000000007A
:1007000080E0F8FC3F0F03FFFFFFFF0000003F3FCA
:100710003F3F3C3C3C3CFFFFFFFF3C3C00000000F7
:1007200000000000000707070700000000C0F8F8FD
:10073000F878787878787878000000E0FFFF7F3FDD
:10074000383C3C7CF8F8F0C0000030F8F8F8E08065
:100750008080E0FFFFFF1F00000000010307070784
:1007600007070301000000000080E0F0F0787878CF
:10077000F8F8F0E0800000FEFFFFFFF1787878F8ED
:10078000F1F1E18100001FFFFFFFC0808080C0FF0A
:10079000FFFF7F00000000010307070707070303AF
:1007A000010000007878787878787878F8F8F8F8A8
:1007B00078000000000000C0F0FCFF3F0F030000C5
:1007C00000000000E0FEFFFF1F010000000000002D
:1007D00000000007070707000000000000000000FD
:1007E000C0E0F0F0F8787878F8F0F0E0C0000007AA
:1007F0009FDFFFF8F0F0F0F8FFFF9F0700007EFF9B
:10080000FFFFC1808080C1FFFFFF7E000000010369
:1008100003070707070703030100000080E0F0F06B
:10082000F8787878F8F0E0C00000003FFFFFFFE0C4
:10083000C0C0C0E0FFFFFFFE000070F0F1F1C38315
:100840008383F1FFFF7F0F00000001030707070705
:10085000070303010000000000000000008080800A
:1008600000000000000000000000060F1F1F1F0F07
:10087000060000000000000000C0E0F0F0F0E0C062
:10088000000000000000000000010303030100005D
:1008900000000026205D2626205D26255E005B5B8D
:1008A0005B265D5D265D5D265D5D265E005B5B5BB8
:1008B0005B5B262026202620265E00530250024D38
:1008C000024A0247026802650262025F025C025944
:1008D000025602970293028F028B02870283027FE5
:1008E000027B02770273026F026B02202620202611
:1008F000255E00262026255E00265E00265E00007E
:100900000005072060000000000000004F00007E8E
:10091000425A5A5A5A42663C3C242A7F2A122313CE
:1009200008646236495522504242663C3C001C2213
:1009300041000041221C0014083E081408083E082B
:100940000802057E1404080808080800606000001A
:1009500020100804023E5149453E00427F400042BB
:10096000615149462141454B311814127F102745EA
:100970004545393C4A494930017109050336494921
:100980004936064949291E00002400007E425A5A71
:1009900042081422410000141414000041221408DB
:1009A0000201510906304979413E7E1111117E7FC5
:1009B000494949363E414141227F4141221C7F49FC
:1009C0004949417F090909013E4149497A7F08089F
:1009D000087F00417F41002040413F017F081422F1
:1009E000417F404040407F020C027F7F0408107F1F
:1009F0003E4141413E7F090909063E4151215E7F4A
:100A000009192946464949493101017F01013F4001
:100A100040403F1F2040201F3F4030403F631408AC
:100A2000146307087008076151494543007F41413D
:100A30000002040810200041417F0004020102046A
:100A40007E425A42427E4242424220545454787F6F
:100A5000504848303844440000384444487F3854B3
:100A6000545418087E0901020C5252523E7F080469
:100A7000047800447D40002040443D007F1028441D
:100A80000000417F4000780C180C787C0804047842
:100A900038444444387C14141408081414187C7C1A
:100AA000080404084854545420043F4440203C4067
:100AB00040207C1C2040201C3C4030403C442810FE
:100AC00028440C5050503C4464544C440C067F065F
:100AD0000C18307F30181C22272E1C02053A444483
:100AE0000000000000005EBCE2613FDD83C29C7E2E
:100AF00020A3FD1F41009D23BE46DB65F88C11AF8E
:100B000032CA57E97400030C0F30333C3FC0C3CCEA
:100B1000CFF0F3FCFF00000000250028002B0000B0
:100B200000000800020100000304070000000000AC
:100B300000000000000000240027002A00434C4B66
:100B400045522D4F00534E53204F4B00534E5320D0
:100B500045525200534E53204F4B00534E532045A5
:100B6000525200534E53204F4B00434C4B204F4B9F
:100B700000434C4B20455252004D454D204F4B00F9
:100B800000347DC20003010103F0000707000514D3
:100B9000010104130002140101005C4A0268030011
:100BA0000107140101FA0000140101000000005CBB
:100BB000030052657374617274005265736574004A
:100BC0004254313D59204254333D4E0052657365C5
:100BD000743F004D454D2045525200424F4F540046
:100BE0009B0219804000202D4700534B4950204163
:100BF0004C41524D00534B4950444159262F265EDB
:100C000000534B49502048554D494400534B4950DF
:100C1000204943450054696D652053637265656ED4
:100C20000066726F6D207468650077617465726923
:100C30006E67005475726E204F46460063616C69A2
:100C4000622B310063616C69622D3100434C4B456E
:100C5000522D5200434C4B45522D5200434C4B45B4
:100C6000522D5700434C4B45522D570000000000B9
:100C700023002600290004040404040404040202DE
:100C8000020202020303030303030102040810200B
:100C900040800102040810200102040810200226EE
:100CA00011241FBECFEFD8E0DEBFCDBF23E0A0EF01
:100CB000B1E001C01D92AB3CB207E1F711E0A0E04A
:100CC000B1E0EEE3F9E702C005900D92A03FB10755
:100CD000D9F716E0C0E5D6E004C02197FE010E94D6
:100CE000923CCF34D107C9F70E9459260C949D3C01
:100CF0000C9400009091AC03E091AD03F091AE0331
:100D0000292F209580FF14C0F8948281822382834A
:100D10008181892B8183A3E2B0E01197F1F7828171
:100D2000982B928378948FE590E00197F1F70895DE
:100D3000F8948281822382838181892B8183A7E831
:100D4000B0E01197F1F78281982B928378948FE02D
:100D500090E0EBCF0F931F93CF93DF93082FC8E062
:100D6000D0E011E081E0902F912309F480E00E940F
:100D70007A06110F2197B1F7F894E091AD03F09145
:100D8000AE0391818091AC03809598239183E0918B
:100D9000AD03F091AE039281892382837894DF9131
:100DA000CF911F910F9108958091AC03E091AD0315
:100DB000F091AE03F8949181982B91832281382F82
:100DC000309523232283A7E0B0E01197F1F79181BA
:100DD00093239183A3E2B0E01197F1F79081789487
:100DE000E7E5F0E03197F1F7982381E009F480E03E
:100DF000089580914C0120E4829FC00111248260FB
:100E000080937C0080917A00806480937A00809146
:100E10007A0086FDFCCF809178009091790008954A
:100E20009093C6038093C503FC0124913196E4910D
:100E3000F22F319719F41092C303089581E0809343
:100E4000C30308958091AC03E091AD03F091AE032C
:100E5000F8949181282F20959223918378943DE7EF
:100E600043E050E0315029F1DA011197F1F7908118
:100E70009823C1F3F8949281922392839181982BC5
:100E800091837894ABE7B7E01197F1F7F8949181EB
:100E900092239183A3ECB0E01197F1F7908198230E
:100EA00081E009F080E07894E3EBF1E03197F1F72D
:100EB000089580E0089591E09093680380938A03F9
:100EC0001092690310928B0308959091080380910A
:100ED00007032FEF3FEF981748F4E92FF0E0E951AF
:100EE000FD4F208130E09F5F90930803C901089572
:100EF00090910803809107032FEF3FEF981748F474
:100F0000E92FF0E0E951FD4F208130E09F5F9093A1
:100F10000803C90108958091070390910803891B74
:100F2000990B08958091E5028F5F8093E502089503
:100F300008950895AF92BF92CF92DF92EF92FF9201
:100F40000F931F93CF93DF936C017B018B01040FF1
:100F5000151FEB015E01AE18BF08C017D10759F08D
:100F60006991D601ED91FC910190F081E02DC601CF
:100F70000995892B79F7C501DF91CF911F910F91C9
:100F8000FF90EF90DF90CF90BF90AF9008958330A7
:100F900081F028F4813099F08230A9F008958730EB
:100FA000A9F08830C9F08430B1F4809180008F7D41
:100FB00003C0809180008F7780938000089584B56E
:100FC0008F7784BD089584B58F7DFBCF8091B0006D
:100FD0008F778093B00008958091B0008F7DF9CF16
:100FE000CF93DF93282F30E0F901E15EF44F849135
:100FF000F901E657F34FD491F901EA58F34FC49140
:10100000CC23A1F081110E94C707EC2FF0E0EE0F76
:10101000FF1FE459F34FA591B491EC91ED2381E0CA
:1010200090E009F480E0DF91CF91089580E090E0B6
:10103000FACF1F93CF93DF93282F30E0F901E15EC1
:10104000F44F8491F901E657F34FD491F901EA582E
:10105000F34FC491CC23A9F0162F81110E94C7072A
:10106000EC2FF0E0EE0FFF1FEB5EF44FA591B49173
:101070008FB7F894EC91111108C0D095DE23DC9362
:101080008FBFDF91CF911F910895DE2BF8CFCF93C3
:10109000DF9390E0FC01E657F34F24918A58934F79
:1010A000FC0184918823C9F090E0880F991FFC010E
:1010B000ED5CF44FA591B491FC01EB5EF44FC5914A
:1010C000D49161110DC09FB7F8948C912095822323
:1010D0008C938881282328839FBFDF91CF91089527
:1010E000623051F49FB7F8943C91822F809583230E
:1010F0008C93E8812E2BEFCF8FB7F894EC912E2BA9
:101100002C938FBFEACF3FB7F8948091450290911E
:101110004602A0914702B091480226B5A89B05C09F
:101120002F3F19F00196A11DB11D3FBFBA2FA92F66
:10113000982F8827BC01CD01620F711D811D911D63
:1011400042E0660F771F881F991F4A95D1F70895CF
:101150008F929F92AF92BF92CF92DF92EF92FF92C7
:101160006B017C010E9483084B015C01C114D10416
:10117000E104F104B9F00E948308681979098A0929
:101180009B09683E73408105910580F321E0C21AF6
:10119000D108E108F10888EE880E83E0981EA11CB2
:1011A000B11CE4CFFF90EF90DF90CF90BF90AF9055
:1011B0009F908F9008952FB7F8946091410270919D
:1011C000420280914302909144022FBF08950895F6
:1011D000CF93DF93EC018A85882329F081508A8799
:1011E000DF91CF9108959C818E819817C8F7E8818F
:1011F000F9810084F185E02D42E0CE0109958C81D2
:101200008F5F8C83EDCFDC0180E0615090F09D9189
:101210009827E92FEF70F0E0EB51F54F2491E92F7B
:10122000E295EF70F0E0EB50F54FE491822F8E27BE
:10123000ECCF089520911D02260F3327331F213252
:101240003105ECF420916203FC0190E080E0243051
:1012500069F082E00895A0911D022191AC014350F4
:101260005E4FA40FB52FB11D2C930196861798F3EE
:1012700080911D02680F60931D0280E0089581E057
:1012800008951092620381E08093610310923C0301
:1012900061E082E10E94190861E083E10E9419087F
:1012A000E9EBF0E080818E7F808380818D7F808379
:1012B00088E48093B80085E48093BC000895CF93C0
:1012C000DF9391E09093FC018823B9F0C091B800BE
:1012D000D091BA008091BC008A7B8093BC0060E012
:1012E00082E10E94190860E083E10E9419080E94CF
:1012F0004109D093BA00C093B800DF91CF9108950F
:10130000CF92DF92EF92FF920F931F93CF93DF93D1
:10131000D0918B0381E0D13208F09CC0C0918A0348
:101320000E9483086B017C018091620381116CC073
:1013300082E08093620381E0809361038FEF80936A
:10134000600310925F03D0935E03AAE6B3E0EEE37E
:10135000F3E080E0D8138DC010923D0380913D03EF
:10136000CC0FC82BC0933D0380913C03813009F022
:1013700084C010923C030E9483086B017C01809121
:101380003D038093BB008091640390916503A0911D
:101390006603B0916703892B8A2B8B2BA1F00E94E7
:1013A00083080091640310916503209166033091D6
:1013B00067036C197D098E099F090617170728070F
:1013C000390708F442C08091BC0083FDD8CF85EC7A
:1013D0008093BC000E9483086B017C0180916203B2
:1013E000823009F44CC0809160038F3F09F469C0DA
:1013F00080916003803209F466C08091600380337D
:1014000009F463C084E026C0809164039091650371
:10141000A0916603B0916703892B8A2B8B2B09F46B
:1014200083CF0E948308009164031091650320918B
:101430006603309167036C197D098E099F090617B1
:1014400017072807390708F06FCF809163030E94C0
:101450005F0985E01092690310928B031092680374
:10146000DF91CF911F910F91FF90EF90DF90CF9080
:1014700008959D9191938F5F6DCF85EEA9CF809157
:10148000640390916503A0916603B0916703892B73
:101490008A2B8B2B09F4A2CF0E948308009164034E
:1014A0001091650320916603309167036C197D09E3
:1014B0008E099F09061717072807390708F08ECFEE
:1014C000C4CF80E0C7CF82E0C5CF83E0C3CF08950B
:1014D000E091080380910703E81730F4F0E0E95148
:1014E000FD4F808190E008958FEF9FEF0895CF9298
:1014F000DF92EF92FF920F931F93CF93DF937C01C4
:10150000CB018A0120916803222389F0EB016B0152
:10151000C40ED51ECC15DD0569F06991D701ED919A
:10152000FC910190F081E02DC7010995F3CF642F64
:101530000E941A09C801DF91CF911F910F91FF906E
:10154000EF90DF90CF900895CF93DF931F92CDB7A8
:10155000DEB76983209168032223F9F020918B0381
:10156000203258F021E030E0FC013383228390E008
:1015700080E00F90DF91CF91089580916903E82F6B
:10158000F0E0E659FC4F998190838F5F8093690367
:1015900080938B0381E090E0ECCF61E0CE01019677
:1015A0000E941A09F7CFCF93DF9300D000D000D06C
:1015B0001F92CDB7DEB78091A702882391F08FEFFD
:1015C000870F823070F085EF870F823050F05150D6
:1015D0007330E9F4511107C0693118F081E04230ED
:1015E00068F480E00BC087E090E0851B9109680FEC
:1015F000792F711D81E0603271059CF327960FB63B
:10160000F894DEBF0FBECDBFDF91CF9108958CEF70
:10161000870F8630B0F07A3021F7511106C081E093
:10162000693160F3433050F3DCCF87E090E0851BF5
:101630009109680F792F711D81E060327105F4F214
:10164000D0CF81E0DBCFAF92BF92CF92DF92EF920B
:10165000FF920F93CF93DF93CDB7DEB7A6970FB668
:10166000F894DEBF0FBECDBF298F3A8F4B8F5C8FB2
:101670006D8F7E8F8F8FA8A2B9A2CAA2DBA2ECA227
:10168000FDA20EA398E1EDE4F1E0DE0111960190D8
:101690000D929A95E1F7682F70E0202F30E0AB01B2
:1016A000081708F4A901EE8DE150FF0BEE0FFF1FA4
:1016B00081E090E08C0F9D1FE80FF91F0190F081F1
:1016C000E02DCA018617970744F4DC01A370BB27FD
:1016D000AB2B09F431960196F5CF8D8D8E0F9F2F90
:1016E000911D641B750BADE6B1E06A9FF0016B9F25
:1016F000F00D7A9FF00D1124BF01680F791FFA01D8
:1017000090E080E0E217F30744F4DF01A370BB2709
:10171000AB2B09F401963196F5CFEDA1E150FF0B0B
:10172000EE0FFF1FA1E0B0E0AC0FBD1FEA0FFB1FE3
:101730000190F081E02D8E0F9F1FECA1E80FF92F93
:10174000F11D241B350B4DE651E0249FC001259F60
:10175000900D349F900D11248E0F9F1F861B970BA9
:10176000A6960FB6F894DEBF0FBECDBFDF91CF9126
:101770000F91FF90EF90DF90CF90BF90AF900895C2
:101780006F927F928F929F92AF92BF92CF92DF9291
:10179000EF92FF920F931F93CF93DF938C01722EE2
:1017A000DB01CA010996A11DB11D4397A105B10531
:1017B00020F5411551056105710501F580E3F8013A
:1017C00080832223B9F0818382E090E0800F911F13
:1017D000FC011082C801DF91CF911F910F91FF9002
:1017E000EF90DF90CF90BF90AF909F908F907F90C1
:1017F0006F90089581E090E0E9CF712C612C77FF24
:1018000009C070956095509541955F4F6F4F7F4F20
:10181000662463946801F12CE12C8AE0882E912CD7
:10182000A12CB12CE7012196CB01BA01A5019401AD
:101830000E945C3C942F852F605DF60161936F01DF
:10184000A901692F782F411551056105710559F5D9
:10185000772031F0C00FD11F80E38883E701229603
:10186000662031F0F801EC0FFD1F8DE28083219698
:10187000F801EC0FFD1F10822197AF01D801CD01B7
:10188000801B910B8C179D070CF0A4CF8D91FA0152
:101890009291AF019D0121503109F9019083FA0124
:1018A00080832197ECCF7E01BDCF8F929F92AF9224
:1018B000BF92CF92DF92EF92FF920F931F93CF933D
:1018C000DF9300D01F92CDB7DEB76B017C01198288
:1018D0001A821B8228EE33E040E050E00E943A3C3E
:1018E00049015A01C701B60120E83EEE46E350E047
:1018F0000E943A3CBA01A90110E000E041155105EF
:101900006105710581F021E0CE0101960E94C00BB6
:101910008981809394038A81809395038AE38093DD
:10192000960303E010E0C501B40120E13EE040E091
:1019300050E00E943A3C2CE330E040E050E00E944E
:101940003A3C49016B017C0121E0BA01A401CE01BE
:1019500001960E94C00BF801EC56FC4F89818083F0
:10196000F801EB56FC4F8A818083F801EA56FC4F60
:101970008AE3808321E0B701A601CE0101960E948F
:10198000C00BF801E956FC4F89818083F801E856C5
:10199000FC4F8A818083F801E756FC4F108284E96E
:1019A00093E00F900F900F90DF91CF911F910F91C7
:1019B000FF90EF90DF90CF90BF90AF909F908F906F
:1019C00008950F931F93CF93DF938C01EB0161E098
:1019D00080E00E941908B801110F880B990B0E9432
:1019E000A80860E080E00E941908BE01DD0F880BA6
:1019F000990BDF91CF911F910F910C94A808CF9371
:101A0000C82F2091A0023091A1022115310529F0A3
:101A10008330B1F5E091950208C0E091A2028130D7
:101A200021F0E0919D028230A9F7F0E0EC59FE4FE1
:101A3000208130E0A0E6BAEE0E9433393091960260
:101A40003323E1F0C330D1F020914B012230B0F4C8
:101A5000232F30E0A901445E5F4F2091BE023091F8
:101A6000BF024217530754F424E630E040E050E050
:101A70000E943A3CA2E8B0E00E942839CF91089534
:101A8000E091A202813011F0E0919D02F0E0EC596A
:101A9000FE4FA0818CE3A89FD0011124C13021F01A
:101AA00020919B0230919C024091780250917902E2
:101AB000249FC001259F900D349F900D112497FD08
:101AC000019695958795AC014C595F4F2AE030E01F
:101AD0000E94833CDA019B01AC010E948A3CAECF9C
:101AE00081E080934C0162E070E080E090E00E9431
:101AF000A8080E94F90662E070E080E090E00E9491
:101B0000A8080E94F906A091BA02B091BB029C01FC
:101B10000E947B3CDC01CB012AE0B695A795979506
:101B200087952A95D1F708950E94700D883928E08D
:101B3000920774F0803629E092076CF088322AE030
:101B4000920764F084359B4064F084E090E008954F
:101B500090E080E0089581E090E0089582E090E0D8
:101B6000089583E090E008958EE480937C0062E025
:101B700070E080E090E00E94A80880917A00806484
:101B800080937A0080917A0086FDFCCF80917A0064
:101B9000806480937A0080917A0086FDFCCF20914A
:101BA00078003091790050E040E060E070E381E13E
:101BB00090E00E945C3CC9010895AF92BF92CF9221
:101BC000DF92EF92FF920F931F93CF93DF93409199
:101BD000BC025091BD029A0157FF04C0222733274F
:101BE000241B350B80EF90E08C01021B130B29376F
:101BF00031053CF4B901452B41F490EFE92EF12C6D
:101C000007C0203F3105C9F3B8010E94263C7B0183
:101C1000EEE4F2E04CE652E081E0293731050CF4C5
:101C200080E0819581934E175F07B1F72937310521
:101C30000CF48901D0E0C0E0D12CC12CAA24A394DB
:101C4000B12CEC2FC016D106FCF4CE01B7010E94D6
:101C5000263C892BC9F48FEFC81AD80ACE0180958B
:101C6000909587709927A50101C0440F8A95EAF7DE
:101C7000E695E695E695F0E0E25BFD4F8081293739
:101C800031058CF4842B80832196C03FD105C9F6A1
:101C9000DF91CF911F910F91FF90EF90DF90CF9048
:101CA000BF90AF90089540958423EDCF1F93CF93BD
:101CB000DF93EC01162F61E0411101C060E08889DB
:101CC0000E94190880E58CBD81E08DBD60E08F85A4
:101CD0000E9419081EBD00000DB407FEFDCF8EB591
:101CE00061E08F85DF91CF911F910C941908DC0181
:101CF000ED91FC910084F185E02D40E00994FC0118
:101D00002781269526952695621720F46583606BBA
:101D10000C94770E08950F931F93CF93FC012681A7
:101D2000621798F4C62F8C0164836085C60F6C2FF0
:101D30006F700E94770E6C2F62956F706061C801A2
:101D4000CF911F910F910C94770ECF911F910F910E
:101D50000895DF92EF92FF920F931F93CF93DF933B
:101D6000EC01D62EE42E022F1A868F818695869559
:101D70008695281710F00FEF080F1E2D60E0CE019A
:101D8000011780F00E948B0E612FCE010E947F0E02
:101D9000F12C6D85CE010E94E808F394DF14C8F79A
:101DA0001F5FECCF0E948B0E6E2DCE01DF91CF9185
:101DB0001F910F91FF90EF90DF900C947F0EFC012C
:101DC000278126952695269521506681615040E011
:101DD0000C94A90E2F923F924F925F926F927F9236
:101DE0008F929F92AF92BF92CF92DF92EF92FF922B
:101DF0000F931F93CF93DF93CDB7DEB72C970FB61A
:101E0000F894DEBF0FBECDBFFC01238534852115BC
:101E1000310509F458C1062F9C878B87F90132964A
:101E2000749031965491C52ED12CF7E0CF0ED11C71
:101E300093E0D594C7949A95E1F7CB82F901349653
:101E400044913196E491641740F08E2F90E0BC01EC
:101E5000640F711D06171706ACF10D3001F560E037
:101E60008B859C850E948B0E81E090E02C960FB6AE
:101E7000F894DEBF0FBECDBFDF91CF911F910F91C0
:101E8000FF90EF90DF90CF90BF90AF909F908F909A
:101E90007F906F905F904F903F902F9008950A3001
:101EA00009F011C160E08B859C850E948B0EEB854B
:101EB000FC85868565818C9D600D1124CF010E9473
:101EC0007F0ED2CF7901F6E0EF0EF11C602F641B7C
:101ED000EB85FC854185F90174912F5F3F4FF90136
:101EE0002491372F2230310508F072C07C9C90017C
:101EF0007D9C300D1124629FC001639F900D1124C1
:101F0000E80EF91E512CEB85FC8534802580F28586
:101F1000FC83272D30E03A83298388248394912CF5
:101F2000412C842F90E098878F838FE790E0FC010D
:101F3000E319F109FA87E987FB814F1608F0BFC062
:101F4000612C23EA200F2D8331EA300F3E83EB858D
:101F5000FC858685681608F0A9C02C81228741106F
:101F600002C0662069F0EB85FC8515811F5F632D3B
:101F7000CF010E948B0E612F8B859C850E947F0E66
:101F80000B3509F048C010E0212F30E083E090E0ED
:101F90000D3531F089859A850E3511F090E080E09D
:101FA0004F815885840F951F281739070CF03BC0C7
:101FB00051E0651206C0EB85FC85858560E48F3FA6
:101FC00009F060E08B859C850E94E8081F5FDCCFEC
:101FD000577028E0522E551A511101C0512CF701AB
:101FE000712C30E020E0761631F05491250F311D30
:101FF00073943196F8CFF701E70DF11D7490C29EEE
:10200000F001C39EF00DD29EF00D11248E0F9F1F84
:10201000E80EF91E78CFFD81B12CA12CF23028F406
:102020000B3309F03EC0639492CFA714B0F5F501CD
:10203000EE0DFF1D1491552061F0C814D90449F428
:10204000E12FF0E0052C02C0F595E7950A94E2F740
:102050001E2FEB85FC8586858230B1F461101295C8
:102060001F70E12FF0E0EB5FF44F1491F1E06F127D
:1020700006C0EB85FC8585858F3F09F41064612FD0
:102080008B859C850E94E808612F8B859C850E942A
:10209000E808FFEFAF1ABF0AC8CF023209F4C3CF76
:1020A000BFCF2E81223008F4BECF6DCF439429815B
:1020B0003A81E20EF31E3FEF831A930A3DCF622D61
:1020C0008B859C85FCCE90E080E0D0CE6DEA8AEBDB
:1020D00093E00E94770E61E070E080E090E00E9463
:1020E000A8086BE88AEB93E00E94770E61E070E04D
:1020F00080E090E00E94A8086FEA8AEB93E00E94DB
:10210000770E1092E3021092E40281E08093B7020E
:1021100061E070E080E090E00C94A808089590E001
:1021200080E008952F923F924F925F926F927F923C
:102130008F929F92AF92BF92CF92DF92EF92FF92D7
:102140000F931F93CF93DF93CDB7DEB7E2970FB610
:10215000F894DEBF0FBECDBF682E962E242E702EB3
:10216000812E88E18E01075E1F4FF801982F119292
:102170009A95E9F7DE011196FD0111928A95E9F72A
:10218000BD01AD0190E080E0F901E80FF91F549026
:102190000196FA015192AF01552019F0893191054C
:1021A00099F750E040E0FB018191BF01882309F4D9
:1021B00040C04F5F5F4F48315105A9F78AE2898FD0
:1021C00030E020E0200F311FF9011082662D8AEBEC
:1021D00093E00E948B0E692D8AEB93E00E947F0EA4
:1021E00021942092C703F80101900020E9F731976C
:1021F000AF01401B510BB8018AEB93E00E949A0794
:10220000E2960FB6F894DEBF0FBECDBFDF91CF913F
:102210001F910F91FF90EF90DF90CF90BF90AF9004
:102220009F908F907F906F905F904F903F902F90F6
:10223000089570E030E020E061E0872F90E084179F
:1022400095070CF0BFCF8A0F9B1FFC01908196323F
:10225000E9F5872D982D613059F0C701623041F0C2
:10226000C601633029F08BEE91E0643009F4C501BA
:10227000582E392EFC01412C8191811112C0C801C8
:10228000820F931F59AA3AAA39A835183414B8F402
:10229000E9A9FAA93190FAABE9ABFC013192CF017F
:1022A000F3CF439488E14812E7CF2901FFEF4F1A9B
:1022B0005F0A200F311F8AE2F901808303C0420EBA
:1022C000532E511C6F5F7F5F9201B7CF2901FFEF43
:1022D0004F1A5F0A200F311FF9019083F4CF8F92BC
:1022E0009F92AF92BF92CF92DF92EF92FF920F93A5
:1022F0001F93CF93DF93CDB7DEB768970FB6F894EF
:10230000DEBF0FBECDBF4C018E010F5F1F4F88E1B6
:10231000F80111928A95E9F7D80190E080E0FB017D
:10232000E80FF91FE4910196ED93EE2319F089313E
:102330009105A9F78FEF98E00E94100781E0809344
:10234000C30382E08093C8038BEEA82E81E0B82EF1
:10235000650175012CEF38E040E0B40190E080E0C9
:102360000E94921068960FB6F894DEBF0FBECDBFE4
:10237000DF91CF911F910F91FF90EF90DF90CF9061
:10238000BF90AF909F908F900895CF93DF9388E692
:102390000E945B0768E080EA93E00E94A40AC9E01B
:1023A000D3E0699180EA93E00E94A40A83E0C832F6
:1023B000D807B9F70E948009882359F061E080E0CE
:1023C0000E94190864E67CE090E080E00E946F11B2
:1023D000FFCF88E60E945B0767E280EA93E00E94F5
:1023E000A40AC8E2D3E0699180EA93E00E94A40ABB
:1023F00083E0CB33D807B9F762E389E093E00E942A
:102400000309682F80EA93E00E94A40A0E948009D1
:10241000882359F061E080E00E9419086CE57CE0B7
:1024200090E080E00E946F11FFCFDF91CF9108957F
:102430001F93CF93DF9300D000D000D01F92CDB771
:10244000DEB729833A834B835C836D837E838F83DE
:1024500088E60E945B0760E080EA93E00E94A40A9D
:102460000E948009882359F061E080E00E941908E9
:102470006CEB72E090E080E00E946F11FFCF88E685
:102480000E945B0760E080EA93E00E94A40A60E893
:1024900080EA93E00E94A40A8A811AE0612F0E94D8
:1024A000063C8295807F682F690F80EA93E00E9446
:1024B000A40A8B818F73612F0E94063C8295807FD6
:1024C000682F690F80EA93E00E94A40A6C8180EA79
:1024D00093E00E94A40A8D81612F0E94063C8295A0
:1024E000807F682F690F80EA93E00E94A40A8E81A2
:1024F000612F0E94063C8295807F682F690F80EAD9
:1025000093E00E94A40A8F81612F0E94063C82956D
:10251000807F682F690F80EA93E00E94A40A0E94DE
:10252000800988E60E945B0760E080EA93E00E94F1
:10253000A40A8981612F0E94063C8295807F682FC2
:10254000690F80EA93E00E94A40A0E94800965E076
:1025500070E080E090E027960FB6F894DEBF0FBEE3
:10256000CDBFDF91CF911F910C94A808FF920F93DC
:102570001F93CF93DF938091B903811104C00E9410
:10258000220781110DC01092B7031092B903109267
:10259000B80380E0DF91CF911F910F91FF900895D4
:1025A00080EF0E94AA06D1E000E0F12CC1E00E9479
:1025B000D406182F0E94D4061130D9F48130C1F509
:1025C000C13408F3F092B703F11003C081E08093A7
:1025D000B9038091AF038823B1F2AFEAB3E0ECE82E
:1025E000F3E08D91819383E0E439F807D1F781E03E
:1025F000D1CFE02FF0E0181311C08091B703C817B6
:10260000A8F4DF01A455BC4F13968C918D2381F45F
:1026100010E0C93010F4C093B803FC2EE455FC4F11
:1026200083819D2F9095892383830AC08C13F0CFDB
:10263000E02FF0E0E455FC4F83818D2B838311E084
:10264000812F0E947A06CF5FDD0F11F40F5FD1E07A
:10265000083008F4ACCFB4CF8F929F92AF92BF9264
:10266000CF92DF92EF92FF920F931F93CF93DF935E
:102670007C01D62F0E9483084B015C01809162038C
:10268000811167C0CD2F81E0809362038093610345
:102690009FEF9093600310925F039D0F90935E03F2
:1026A00080933D0380913D03EE0CFF1C8E298093A7
:1026B0003D0380913C03813009F083C010923C03BC
:1026C0000E9483086B017C0180913D038093BB00D5
:1026D0008091640390916503A0916603B0916703B4
:1026E000892B8A2B8B2BA1F00E9483088090640396
:1026F00090906503A0906603B09067036C197D0904
:102700008E099F0986169706A806B90608F442C0E6
:102710008091BC0083FDD8CF85EC8093BC000E94E3
:1027200083086B017C0180916203813009F44BC006
:1027300080915F038D1710F4C0915F03EEE3F3E027
:10274000A7EEB2E080E08C1751F191919D938F5FDD
:10275000FACF8091640390916503A0916603B091D4
:102760006703892B8A2B8B2B09F488CF0E9483085F
:102770000091640310916503209166033091670313
:10278000681979098A099B09061717072807390765
:1027900008F074CF809163030E945F09C0E010923B
:1027A0000803C09307038C2FDF91CF911F910F91E6
:1027B000FF90EF90DF90CF90BF90AF909F908F9061
:1027C000089585EEAACF8091640390916503A0914E
:1027D0006603B0916703892B8A2B8B2B09F4A3CF57
:1027E0000E9483088090640390906503A090660324
:1027F000B09067036C197D098E099F0986169706AC
:10280000A806B90608F08FCFC5CFCF9388E60E94FF
:102810005B0768E080EA93E00E94A40A0E948009B6
:10282000882359F061E080E00E94190864E57CE0AB
:1028300090E080E00E946F11FFCF60E270E088E6D8
:1028400090E00E942C13C0E0909107038091080350
:10285000981749F00E947807EC2FF0E0E75FFC4FF3
:102860008083CF5FF1CF88E60E945B0768E280EA51
:1028700093E00E94A40A0E948009882359F061E035
:1028800080E00E9419086CE47CE090E080E00E9407
:102890006F11FFCF63E170E088E690E00E942C1397
:1028A0009091070380910803981749F00E947807D8
:1028B000EC2FF0E0E75FFC4F8083CF5FF1CFCF914B
:1028C00008951F93CF93DF9313E0C0E0D1E0809190
:1028D0009802809309038091A802805D80930A0387
:1028E0008091A502865A80930B03E091A302F09198
:1028F000A4029F012C543F4FC901BE010E94263CF7
:1029000080930C0337FF02C021503F4F30930D03DB
:102910008091970280930E038091E00280930F03D1
:102920008091A702809310038091A00280931103ED
:10293000E091BC02F091BD029F0120513F4FC901BF
:10294000BE010E94263C8093120337FF02C0215033
:102950003F4F309313038091AB0280931403809117
:1029600010018093150380910F01809316038091CD
:10297000A202809317038091140180931803809121
:102980001301809319038091120180931A0380919F
:10299000AA0280931B038091090180931C038091FC
:1029A000080180931D0380919D0280931E038091F6
:1029B0000D0180931F0380910C018093200380916F
:1029C0000B018093210380919E02809322038091CA
:1029D0009F028093230330917F0220918002832FF6
:1029E000922FBE010E94263C80932403832F922FB6
:1029F00097FF02C081509F4F909325033091810231
:102A000020918202832F922FBE010E94263C809348
:102A10002603832F922F97FF02C081509F4F9093E0
:102A200027038091780280932803809195028093F8
:102A300029038091960280932A0380912601809336
:102A40002B038091250180932C0380912401809396
:102A50002D038091C002835880932E038091220120
:102A600080932F03809121018093300380911F0177
:102A70008093310380911E018093320380911D0168
:102A8000809333038091BE028358809334038091F6
:102A90001B018093350380911A0180933603809146
:102AA00099028093370380919A0280933803809132
:102AB0009B02809339030E94C5110E94051462E3B2
:102AC00089E093E00E94030990913B03891781F00C
:102AD00064E170E080E090E00E94A808115009F0E5
:102AE000F6CE64EB72E090E080E00E946F11FFCFC1
:102AF000DF91CF911F910895CF93DF93C82F80E28C
:102B00000E945B076C2F80EA93E00E94A40A0E9457
:102B10008009882351F080914B018F5F80934B0196
:102B200090E080E0DF91CF91089564E170E080E073
:102B300090E00E94A80862E070E080E290E00E94CD
:102B40002C130E947807D82F80E0C82F0E947807A6
:102B50008C2B9D2B10924B01E5CF0E94983C8F92BD
:102B60009F92AF92BF92CF92DF92EF92FF926A0153
:102B70007B012AE534EC41EF54E4CB01B6010E941D
:102B80006A389B01AC016BE774E18AEF92E40E9422
:102B900053392BED3FE049E450E40E946A3820E0CD
:102BA00030E044E353E40E94E0390E94DB394B01FA
:102BB0005C012FE232EA4DEE5AE3C701B6010E94F2
:102BC0006A389B01AC016BE37AEA8AE19AE30E94DE
:102BD0005339A70196010E946A382FE832E44BE38B
:102BE00052E40E945439A70196010E946A389B0161
:102BF000AC0161E875E98BEA91E40E94533920E069
:102C000030E040E752E40E94E03920E030E040ED5F
:102C100051E40E94543920E030E040E752E40E9441
:102C2000E03920E030E048EB51E40E9454396B0178
:102C30007C012CEA35EC47E25BE3C501B4010E945C
:102C40006A389B01AC01C701B6010E945439FF905C
:102C5000EF90DF90CF90BF90AF909F908F900895AE
:102C60003F924F925F926F927F928F929F92AF921C
:102C7000BF92CF92DF92EF92FF920F931F93CF9369
:102C8000DF93CDB7DEB7AA970FB6F894DEBF0FBEBD
:102C9000CDBF4C01362ECA01B901E9A2FAA20BA39D
:102CA0001CA3ADA2BEA2CFA2D8A624E631EA45E17C
:102CB0005AE40E94533920E03DEA4EE057E40E9476
:102CC000E0392B013C01BC01A201C4010E94AF15F7
:102CD0004B015C0121ED36EF4EE959E3C301B2012E
:102CE0000E946A3825EC30EA4CE057E40E945439DF
:102CF000A30192010E946A3825EB3BE34CE853E4C0
:102D00000E94543969A77AA7182F092F6B01E82E62
:102D1000F92E20E030E044EB53E4B601C7010E94F5
:102D20007A3B18165CF420E030E044EB53E4B60143
:102D3000C7010E9453396B017C01EBCF20E030E0EA
:102D4000A901B601C7010E94043887FF0BC020E02B
:102D500030E044EB53E4B601C7010E9454396B01E3
:102D60007C01ECCF28E03BE048E054E3C301B20132
:102D70000E946A3823EE30E540E358E30E9454395C
:102D8000A30192010E946A389B01AC016CE870EECD
:102D900088E89CE30E94533969837A838B839C8300
:102DA0002BED3FE049E450E4C501B4010E946A38CC
:102DB00020E030E044E353E40E94E039698B7A8BF1
:102DC0008B8B9C8B20E030E040E05FE30E946A3810
:102DD0000E94CD3B9B01AC010E946A3869877A87CB
:102DE0008B879C872BED3FE049E450E4B601C70197
:102DF0000E946A3820E030E044E353E40E94E03966
:102E00006B017C01AC019B010E9454394B015C01B8
:102E10000E947F3B698F7A8F8B8F9C8F28E83AE2E4
:102E200041E259E3C301B2010E946A389B01AC013F
:102E30006DE07FE98CE097E40E945339A301920191
:102E40000E946A382AEB33EC42EB53E40E94543977
:102E50002BED3FE049E450E40E946A3820E030E086
:102E600044E353E40E94E0396D837E838F83988727
:102E70000E947F3B6D877E878F87988BC501B40149
:102E80000E94DB394B015C0120E030E040E850E477
:102E9000C701B6010E946A380E947F3B6D8F7E8F0A
:102EA0008F8F98A32D813E814F815885CA01B9012A
:102EB0000E9454390E947F3B6D8B7E8B8F8B988F45
:102EC000298D3A8D4B8D5C8D69857A858B859C85A6
:102ED0000E946A386B017C0129813A814B815C81B7
:102EE000CA01B9010E9454392D853E854F85588904
:102EF0000E946A389B01AC01C701B6010E94533998
:102F00006B017C0120E030E040E850E469817A8187
:102F10008B819C810E946A3829853A854B855C8526
:102F20000E946A382D853E854F8558890E946A38EF
:102F3000A50194010E946A389B01AC01C701B6014A
:102F40000E9454396B017C0120E030E040E05FE3F7
:102F500069857A858B859C850E946A3829853A85A2
:102F60004B855C850E946A382D8D3E8D4F8D58A112
:102F70000E946A389B01AC01C701B6010E94533917
:102F80006B017C0120E030E040EA5FE369817A81F7
:102F90008B819C810E946A3829813A814B815C81B6
:102FA0000E946A382D893E894F89588D0E946A385F
:102FB0009B01AC01C701B6010E94533920E030E00B
:102FC00044E353E40E946A382BED3FE049E450E4C7
:102FD0000E94E03920E030E040E850E40E946A3886
:102FE00069877A878B879C8720E030E044EB53E445
:102FF00069A57AA5812F902F0E947A3B18167CF440
:1030000020E030E044EB53E469A57AA5812F902FAE
:103010000E94533969A77AA7182F092FE5CF20E01E
:1030200030E0A90169A57AA5812F902F0E9404386C
:1030300087FF0FC020E030E044EB53E469A57AA598
:10304000812F902F0E94543969A77AA7182F092F32
:10305000E6CF20E030E040E450E46D817E818F8156
:1030600098850E946A380E947F3B69837A838B83AC
:103070009C832AE534EC41EF54E4C301B2010E9481
:103080006A389B01AC016BE774E18AEF92E40E941D
:1030900053392BED3FE049E450E40E946A3820E0C8
:1030A00030E044E353E40E94E0390E947F3B4B014F
:1030B0005C0169897A898B899C890E947F3B6B01BD
:1030C0007C012BE831EE4AE657E3C301B2010E94CE
:1030D0006A382DEE37ED4DE95BE30E945439A301C8
:1030E00092010E946A389B01AC016EEA71E185EFA2
:1030F0009FE30E9453392D853E854F8558890E9454
:103100006A386D837E838F83988726EF3FEC43ED8B
:1031100058E3C301B2010E946A389B01AC016CE51F
:1031200078EC83EA9CE30E9453392D893E894F89CC
:10313000588D0E946A389B01AC016D817E818F8120
:1031400098850E9454392B013C012CEE34E847E964
:1031500059E369817A818B819C810E946A389B0145
:10316000AC01C301B2010E94543929A53AA5412FEF
:10317000502F0E9454392EE233E74AEB5BE30E9462
:1031800053392B013C012CE831EA4CE95BE3C501E2
:10319000B4010E946A389B01AC01C301B2010E94D4
:1031A00053392BED3FE049E450E40E946A3820E0B7
:1031B00030E044E353E40E94E0390E947F3B9B01EE
:1031C000AC01C701B6010E946A380E94C0396B0188
:1031D0007C012BED3FE049E450E469A17AA18BA189
:1031E0009CA10E946A3820E030E044E353E40E944E
:1031F000E0394B015C0120E030E044E353E4C701D7
:10320000B6010E946A382BED3FE049E450E40E9489
:10321000E0392BED3FE049E450E40E946A3820E0B9
:1032200030E044E353E40E94E0396B017C01C501C6
:10323000B4010E94DB392B013C01C701B6010E9499
:10324000DB3969837A838B839C83C501B4010E9437
:10325000CD3B4B015C01C701B6010E94CD3B6B0128
:103260007C0129813A814B815C81C301B2010E94BA
:103270006A389B01AC0169E071E38EE69CEB0E9429
:10328000E0392B013C01A7019601C501B4010E9460
:103290006A389B01AC01C301B2010E9453390E94FC
:1032A0004239311001C0905820E030E044E353E44B
:1032B0000E946A382BED3FE049E450E40E94E03977
:1032C0002DA13EA14FA158A50E94543920E030E025
:1032D00040E850E40E946A389B01AC0160E070E075
:1032E00084E394E40E94533929853A854B855C85B3
:1032F0000E945339AA960FB6F894DEBF0FBECDBF19
:10330000DF91CF911F910F91FF90EF90DF90CF90C1
:10331000BF90AF909F908F907F906F905F904F90F5
:103320003F9008952F923F924F925F926F927F92BB
:103330008F929F92AF92BF92CF92DF92EF92FF92C5
:103340000F931F93CF93DF93CDB7DEB72A970FB6B6
:10335000F894DEBF0FBECDBF1C0169872A01390179
:10336000EA8623E06216710434F431E0431A51080E
:103370008CE0680E711CB20164597D4E072E000C62
:10338000880B990B0E940B3820E030EA46EB53E49F
:103390000E946A380E94883A6B017C01B3016F5F1A
:1033A0007F4F072E000C880B990B0E940B3821E0F1
:1033B0003DEC44EF51E40E946A380E94883A4B0188
:1033C0005C01C20164E670E00E94263C82E090E06D
:1033D000DC01A61BB70BBD01072E000C880B990B57
:1033E0000E940B3869837A838B839C83C20160E9D6
:1033F00071E00E94263C072E000C880B990B0E945E
:103400000B389B01AC0169817A818B819C810E9480
:1034100054390E94523A072E000C880B990B0E94D7
:103420000B382B013C01A5019401C701B6010E9494
:1034300054396B017C01B801110F880B990B0E9464
:103440000B389B01AC01C701B6010E9454399B01A6
:10345000AC01C301B2010E94543920E030E94EEBC7
:1034600054E40E9453396D837E838F839887F101E2
:10347000448055806680778080819181A281B3816C
:1034800089839A83AB83BC83630152017C018D01E4
:103490002D813E814F8158856985C1010E9430167A
:1034A00020E030E044EB54E40E94E0392D813E817D
:1034B0004F8158850E9454399B01AC01E980FA8004
:1034C0000B811C816985C1010E9430166B017C0152
:1034D000AC019B010E94F23B811149C020E030E029
:1034E00040E752E4F10160857185828593850E94F1
:1034F0006A38A70196010E9454396B017C0120E0D3
:1035000030E0A9010E947A3B20E030E040E05FE338
:1035100087FD28C0C701B6010E9454390E94523A63
:10352000FA8590E080E0FF2311F08CE390E0860FB5
:10353000971F2A960FB6F894DEBF0FBECDBFDF915E
:10354000CF911F910F91FF90EF90DF90CF90BF90A0
:10355000AF909F908F907F906F905F904F903F9033
:103560002F900895C701B6010E945339D7CF8FEF2E
:103570009FEFDFCF6F927F928F929F92AF92BF9219
:10358000CF92DF92EF92FF920F931F93CF93DF932F
:10359000CDB7DEB72C970FB6F894DEBF0FBECDBF08
:1035A0006091A8027091A902072E000C880B990B5C
:1035B0000E940B3820E030E040E85EE30E946A3869
:1035C0004B015C016091A3027091A402072E000CD4
:1035D000880B990B0E940B386B017C016091A5024E
:1035E0007091A602072E000C880B990B0E940B38D5
:1035F00069837A838B839C83CD82DE82EF82F88617
:1036000089869A86AB86BC8620914401309145011B
:1036100040914601509147016091480170914901E4
:1036200080914A010E94D30A60904801712C8090D9
:103630004901912CA0904A01B12C40E3A41A48EF13
:10364000B40AE82E83019401A50161E0CE01019640
:103650000E9492196C019401A50160E0CE010196CF
:103660000E9492199C01E091AB02E230D8F0F0E0A8
:10367000E658FE4F8081A601480F511D87FD5A95DF
:10368000CA01813A55E0950710F090E080E06CE3C4
:1036900070E00E94263C683109F460E060931001FC
:1036A00080930F01E091AA02E230D8F0F0E0E658F2
:1036B000FE4F8081A901480F511D87FD5A95CA010F
:1036C000813A55E0950710F090E080E06CE370E0FF
:1036D0000E94263C683109F460E060930901809300
:1036E000080140917F0250918002D901AC19BD09B7
:1036F000A41BB50B24E630E00E94833C209181029C
:1037000030918202241B350B032E000C440B550B09
:103710000E943A3C30E030937902209378022C9654
:103720000FB6F894DEBF0FBECDBFDF91CF911F91D2
:103730000F91FF90EF90DF90CF90BF90AF909F9050
:103740008F907F906F90089585ED8093BC0080915D
:10375000640390916503A0916603B0916703079697
:10376000A11DB11D23E0B695A795979587952A953C
:10377000D1F72091BC0024FD03C01092620308958C
:1037800040916403509165036091660370916703F3
:10379000452B462B472B69F30097A105B10541F056
:1037A00025E32A95F1F700000197A109B109E1CFBE
:1037B000809163030C945F094F925F926F927F92A6
:1037C0008F929F92AF92BF92CF92DF92EF92FF9231
:1037D0000F931F93CF93DF93CDB7DEB762970FB6EA
:1037E000F894DEBF0FBECDBF882E6090DE027090D1
:1037F000DF0280919802882371F029E0269DC001A4
:10380000279D900D112465E070E00E94263C3B014D
:1038100020E2620E711C1091AC02912C112329F050
:10382000909094029110909093028FEF98E00E94F4
:103830001007552453945092C30382E08093C80329
:1038400085100FC28091B8028150833008F0D0C03B
:10385000112309F4C2C00BEE11E06BEEA62E61E05D
:10386000B62E6501750129EF38E040E070E060E0B8
:1038700090E080E00E9492108091B8020E94FF0CBC
:103880006F87788B898B9A8B40907B0250907C025B
:1038900060907D0270907E020E94DB0838EE430E3D
:1038A00033E0531E611C711C2F85388949895A8960
:1038B000420E531E641E751E461A570A680A790A7C
:1038C00080914B01823008F08BC08091E002823001
:1038D00019F0843009F084C04091C2025091C302B3
:1038E00070E060E020E08CE692E00E94C00B7C017A
:1038F000C301B2010E94550C31E843163EEE530657
:1039000036E36306710408F470C023EF38E04BEE31
:10391000A42E41E0B42E65018C0140E066E070E029
:1039200090E080E00E9492108DEB95E00E941007DD
:103930001092C30381E08093C803992029F08091FD
:10394000B602873009F478C140913D0150E070E043
:1039500060E021E080EF91E00E94C00B6C019110CB
:103960006FC140913E0150E070E060E021E08CE6E4
:1039700092E00E94C00B7C0191106BC140913F010D
:1039800050E070E060E021E084E993E00E94C00B29
:103990004BEEA42E41E0B42E8C0126EB35E040E046
:1039A00062E070E084E090E00E94921062960FB6B0
:1039B000F894DEBF0FBECDBFDF91CF911F910F9165
:1039C000FF90EF90DF90CF90BF90AF909F908F903F
:1039D0007F906F905F904F9008950BEA11E03DCF7C
:1039E0005DEEE52E51E0F52E83CF2BEE38E08FCF44
:1039F000E0914201E150FF0BEE0FFF1FED52F74F38
:103A000065917491CE0101960E94FD37E0914001CD
:103A1000E150FF0BEE0FFF1FEB53F74F65917491D1
:103A2000CE010C960E94FD37992029F08091B602B4
:103A3000843009F4CBC04091430150E070E060E075
:103A400020E08CE692E00E94C00B5C01CE01019662
:103A50006C01992009F4BFC08091B60218EEC12E06
:103A600011E0D12E833009F4B6C0AE014F5F5F4F35
:103A70006A01823009F0AFC0809141018A3008F0BC
:103A8000BAC08AEE91E0AE014F5F5F4F6A012091AC
:103A9000B60209EE11E0213009F0A9C020914101E0
:103AA0002A3008F0AFC02DEA38E07C0140E070E039
:103AB00060E090E080E00E949210E091B902F0E0B6
:103AC000EE0FFF1FE554F74F65917491CE010196FB
:103AD0000E94FD3780914B01823008F0A1C0809197
:103AE000E002823019F0843009F09AC0C3010996CF
:103AF0008D36910508F089C03AE06316710408F02C
:103B000089C025E030E085E090E0820F931F20918E
:103B1000C2023091C3022A30310508F07EC025E090
:103B200030E02C01420E531E27E046E06FEF640D9B
:103B30008AEB93E00E94A90E10914B01123008F01D
:103B400073C08091E002823019F0843009F06CC0BB
:103B50004091C2025091C30270E060E020E08CE628
:103B600092E00E94C00B5C0180919802E6EBCE2EA1
:103B7000E1E0DE2E811104C078EBC72E71E0D72E74
:103B8000123008F056C08091E002882309F451C039
:103B9000A301770C660B770B20E084E993E00E9489
:103BA000C00B2091B902211106C02091AC0209EE90
:103BB00011E0211103C08E010F5F1F4F7C0123E92B
:103BC00038E040E066E070E0C201ACCE09EEA02E25
:103BD00001E0B02E41CF4091410150E070E060E043
:103BE00020E084E993E00E94C00B911050CF8E0139
:103BF000045F1F4F53CF89EE91E09E012F5F3F4F2F
:103C0000690145CF2EE938E050CF21E030E090E067
:103C100080E07BCF25E030E0FACF30E020E081CFBC
:103C2000A5E04A2E512C80CFFDEEAF2EF1E0BF2E45
:103C30009BCF8DEE91E0B5CF6AEBC62E61E0D62E1C
:103C40008091B602863009F08CCE5AEBE52E51E019
:103C5000F52E8091B602853009F090CE8AEB91E086
:103C600097CE42E08412FAC03BEEA32E31E0B32E91
:103C700065017501850126EA35E041E070E060E00C
:103C800090E080E00E9492105092C8030091A80238
:103C90001091A902C80164E070E00E94263C0097E0
:103CA000A1F097FF03C0919581959109813091050D
:103CB00009F4BAC021ECC22E21E0D22E029749F0BD
:103CC000B5ECCB2EB1E0DB2E04C09BEEC92E91E00B
:103CD000D92EA80117FF02C04D5F5F4F559547953C
:103CE00055954795052E000C660B770B20E084E96F
:103CF00093E00E94C00B17FF9CC00D5F1F4F073061
:103D0000110508F099C00EEE11E0992009F497C052
:103D10002091B602213009F092C02AE935E0FBEE8D
:103D2000AF2EF1E0BF2E7C0140E062E070E090E059
:103D300080E00E949210992031F08091B6020BEE43
:103D400011E0823041F08091A7020BEC11E081116B
:103D500002C00EEC11E0EBEEAE2EE1E0BE2E6501EE
:103D6000750126E735E040E063E070E090E080E038
:103D70000E9492100091A5021091A602C801099616
:103D80007AEEC72E71E0D72E439720F06BEEC62E49
:103D900061E0D62EA801012E000C660B770B20E007
:103DA00084E993E00E94C00B17FD4CC009EC11E0C0
:103DB000992009F44AC02091B602233009F045C089
:103DC0002AE635E05BEEA52E51E0B52E7C0140E001
:103DD00064E070E090E080E00E9492100091A30205
:103DE0001091A402A801012E000C660B770B20E0B5
:103DF00084E993E00E94C00B17FD2AC009EC11E092
:103E0000992049F12091B602243029F52FE435E0BC
:103E10004BEEA42E41E0B42E65017C0140E065E04C
:103E200070E090E080E0C0CD8DEBC82E81E0D82E10
:103E300050CF09EC11E069CF0BEE11E066CF2AE814
:103E400035E06DCF0BEE11E0B3CF2CE535E0BACF06
:103E50000BEE11E0D5CF20E435E0DACF8DEF880D01
:103E6000823008F094C153E0851244C1E091AB0266
:103E7000F0E0EE0FFF1FE25DFA4F65917491CE0105
:103E800001960E94FD3783E002ED11E0881611F0E3
:103E900004ED11E09BEEA92E91E0B92E65017501AC
:103EA0002EE035E041E070E060E090E080E00E94CC
:103EB000921081E08093C803992031F08091B6027E
:103EC0000BEE11E0813019F08E010F5F1F4F8BEE6A
:103ED000A82E81E0B82E6501750125E035E040E0AF
:103EE00062E070E090E080E00E949210992029F05A
:103EF0008091B602833009F405C193E040910F012F
:103F000089124091080150E070E060E021E08CE609
:103F100092E00E94C00B7C01992029F08091B602AA
:103F2000823009F4F4C023E04091100182124091E4
:103F3000090150E070E060E021E084E993E00E9434
:103F4000C00B1BEEA12E11E0B12E65018C012AEFF2
:103F500034E040E063E070E090E080E00E94921086
:103F600033E0E091A2028312E0919D02E150FF0B49
:103F7000EE0FFF1FE053FB4F65917491CE01019648
:103F80000E94FD378091AC02882371F08091B602C7
:103F9000843051F480919402882331F0809193020F
:103FA0000BEE11E0811103C08E010F5F1F4FABEECE
:103FB000AA2EA1E0BA2E6501750123EC34E040E0A1
:103FC00064E070E090E080E00E94921043E0809115
:103FD000A0029091A102841621F080919B02909101
:103FE0009C0222E3289FA001299F500D1124052E39
:103FF000000C660B770B20E084E993E00E94C00B75
:104000008C01992029F08091B602853009F49BC07B
:1040100053E085127FC08091A0029091A102892B6C
:1040200009F4F4C32EE934E0FBEEAF2EF1E0BF2E2D
:104030006501750140E065E070E090E080E00E947D
:10404000921083E088127CC040919F0250E070E0A3
:1040500060E020E084E993E00E94C00B8C0199208D
:1040600029F08091B602863009F486C093E0891267
:104070006DC080919F02882309F4D8C326E634E0FE
:10408000EBEEAE2EE1E0BE2E6501750140E066E08C
:1040900070E090E080E00E94921023E0821269C0FC
:1040A00040919E024150550B052E000C660B770B7C
:1040B00020E084E993E00E94C00B8C01992031F04C
:1040C0008091B60225E434E0873051F033E09091DE
:1040D0009E02831290919902911151C027E234E01F
:1040E0007BEEA72E71E0B72E6501750140E067E019
:1040F00070E097CEE091AA02F0E0EE0FFF1FE45EC1
:10410000FA4FBBCE0BEEE02E01E0F02E07CF89EE8A
:1041100091E017CF80919B0290919C02892B09F02E
:1041200081CF2BEEA22E21E0B22E650175012AE887
:1041300034E040E065E070E090E080E00E949210A2
:1041400040919A0283CF22EB34E06ECF80919A02A5
:10415000811194CF8BEEA82E81E0B82E65017501F8
:1041600022E534E040E066E070E090E080E00E940C
:1041700092104091990296CF29E734E081CF26E151
:1041800034E0913009F4ACCF27E334E0A9CF45E027
:10419000841238C16BEEA62E61E0B62E6501750162
:1041A000850128E034E041E070E060E090E080E0EC
:1041B0000E9492105092C803209198026091970239
:1041C000222309F4FBC06550770B39E0369FC0010C
:1041D000379F900D112465E070E00E94263C3B0162
:1041E00050E2650E711C9110EFC006ED11E05BEE20
:1041F000A52E51E0B52E6501750127EF33E040E0B3
:1042000062E070E090E080E00E949210A301072C31
:10421000000C660B770B20E084E993E00E94C00B52
:1042200009EC11E077FE02C00BEE11E0992029F0B5
:104230002091B602223009F4D3C0209197022223A4
:1042400009F4D1C020919802222309F4CFC02EEBAB
:1042500033E04BEEA42E41E0B42E65017C0140E03A
:1042600063E070E090E080E00E949210992029F0D5
:104270008091B602833009F4BCC0809196020AEEA8
:1042800011E0882341F08091980206EB11E0811142
:1042900002C008EB11E0992029F08091B60283302A
:1042A00009F4AAC0409196028EEC91E04423E9F013
:1042B00050E0435E5F4F80919802882369F029E0C7
:1042C000249FC001259F900D112465E070E00E949D
:1042D000263CAB01405E5F4F052E000C660B770B52
:1042E00020E084E993E00E94C00BBBEEAB2EB1E06E
:1042F000BB2E650178018C0129EA33E040E064E0DF
:1043000070E090E080E00E949210992029F0809166
:10431000B602843009F473C04091BC025091BD02D2
:10432000052E000C660B770B20E084E993E00E94D9
:10433000C00B992031F02091B6020AEE11E0243032
:1043400051F02091BC023091BD0209EC11E037FF21
:1043500002C00BEE11E07BEEA72E71E0B72E6501D7
:104360007C0124E933E040E065E070E090E080E02B
:104370000E949210E091E002F0E0EE0FFF1FE6577E
:10438000FC4F65917491CE0101960E94FD379920F2
:1043900031F08091B6020BEE11E0853019F08E01FC
:1043A0000F5F1F4F6BEEA62E61E0B62E6501750103
:1043B0002FE733E040E066E070E033CD862F855094
:1043C000990B3C01992049F08091B6020BEE11E067
:1043D000813009F40CCF211108CF0FED11E007CF88
:1043E0002BEE33E036CF2DEC33E033CF2CED33E042
:1043F00030CF0AEE11E051CF87EE91E076CF88EE14
:1044000091E099CF96E0891235C04BEEA42E41E0A1
:10441000B42E6501750185012EE633E041E070E0C0
:1044200060E090E080E00E949210E0919502E150FF
:10443000FF0BEE0FFF1FE053FB4F65917491CE0110
:1044400001960E94FD37992031F08091B6020BEE63
:1044500011E0813019F08E010F5F1F4F3BEEA32E4C
:1044600031E0B32E6501750126E633E040E064E0FB
:1044700070E0D7CC27E08212C1C02BEEA22E21E043
:10448000B22E65017501850126E533E041E070E05B
:1044900060E090E080E00E949210F090980200911D
:1044A000BE021091BF02FF2069F029E0209FC001E9
:1044B000219F900D112465E070E00E94263C8B0145
:1044C000005E1F4F40911A0150E070E060E021E073
:1044D00080EF91E00E94C00B5C0140911B0150E015
:1044E00070E060E021E08CE692E00E94C00B6C017D
:1044F000FF2009F479C096EBE92E91E0F92EA8018E
:10450000110F660B770B20E084E993E00E94C00B4B
:104510008C012DE433E040E062E070E090E080E068
:104520000E9492108091980206EBE02E01E0F02E9E
:10453000811104C018EBE12E11E0F12EA301770CDC
:10454000660B770B20E084E993E00E94C00BBBEE82
:10455000AB2EB1E0BB2E65018C0128E433E040E0D6
:1045600064E070E090E080E00E949210F090980289
:104570000091C0021091C102FF2069F029E0209F44
:10458000C001219F900D112465E070E00E94263C3F
:104590008B01005E1F4F4091210150E070E060E010
:1045A00021E080EF91E00E94C00B5C01409122016C
:1045B00050E070E060E021E08CE692E00E94C00BE9
:1045C0006C01FF20B1F0A6EBEA2EA1E0FA2EA801C3
:1045D000110F660B770B20E084E993E00E94C00B7B
:1045E0008C012FE333E0E6CE88EBE82E81E0F82E55
:1045F00086CFF8EBEF2EF1E0FF2EE9CF38E0831203
:10460000D5C95092C803EBEEAE2EE1E0BE2E650197
:10461000750185012FE233E040E070E060E090E05A
:1046200080E00E9492102EE133E040E061E070E013
:1046300090E080E00E9492104091120150E070E002
:1046400060E021E080EF91E00E94C00B6C0140919E
:10465000130150E070E060E021E08CE692E00E94FF
:10466000C00B7C014091140150E070E060E021E05B
:1046700084E993E00E94C00B8C012CE033E040E021
:1046800062E070E090E080E00E94921081E00E9481
:10469000FF0C0E94550C650175018C0120E033E090
:1046A00040E063E070E090E080E00E949210409172
:1046B0000B0150E070E060E021E080EF91E00E94AB
:1046C000C00B6C0140910C0150E070E060E021E013
:1046D0008CE692E00E94C00B7C0140910D0150E0FD
:1046E00070E060E021E084E993E00E94C00B8C015F
:1046F0002EEE32E040E064E070E090E080E00E9466
:10470000921082E00E94FF0C0E94550C6501750119
:104710008C0122EE32E040E065E070E090E080E065
:104720000E9492100E94B40D8C019093BB02809362
:10473000BA020E94700DAC01990F660B770B20E056
:104740008CE692E00E94C00B7C01A801110F660B61
:10475000770B20E084E993E00E94C00B8C0125EDEB
:1047600032E040E066E070E090E080E00E9492106D
:104770008091980276EBA72E71E0B72E811104C0CC
:1047800068EBA62E61E0B62E80914B01823088F551
:104790001091E002112369F1A301770C660B770BEE
:1047A00020E080EF91E00E94C00B6C01123011F00C
:1047B000143039F54091C2025091C30270E060E0BC
:1047C00020E08CE692E00E94C00B7C01123011F0D8
:1047D0001430A1F44091DA025091DB0270E060E005
:1047E00020E084E993E00E94C00B8C0124EC32E0CD
:1047F0007DCC5DEEE52E51E0F52E67018CEE91E06B
:10480000F4CF4DEEE42E41E0F42EF8CF3BEEA32E94
:1048100031E0B32E650175012AE834E040E065E03F
:1048200070E090E080E00E9492100ECC9BEEA92EEA
:1048300091E0B92E6501750122E534E040E066E0C3
:1048400070E090E080E00E9492102ACC1F920F92BC
:104850000FB60F9211242F933F938F939F93AF9393
:10486000BF938091410290914202A0914302B09186
:1048700044023091400223E0230F2D3758F5019672
:10488000A11DB11D209340028093410290934202EA
:10489000A0934302B0934402809145029091460256
:1048A000A0914702B09148020196A11DB11D8093CD
:1048B000450290934602A0934702B0934802BF91ED
:1048C000AF919F918F913F912F910F900FBE0F90BD
:1048D0001F90189526E8230F0296A11DB11DD2CF77
:1048E0001F920F920FB60F9211242F933F934F9365
:1048F0005F936F937F938F939F93AF93BF93EF9348
:10490000FF93E0910201F09103010995FF91EF916E
:10491000BF91AF919F918F917F916F915F914F91D7
:104920003F912F910F900FBE0F901F9018951F92DF
:104930000F920FB60F9211242F933F934F935F93D3
:104940006F937F938F939F93AF93BF93EF93FF9357
:10495000E0910001F09101010995FF91EF91BF9164
:10496000AF919F918F917F916F915F914F913F9107
:104970002F910F900FBE0F901F9018951F920F92BE
:104980000FB60F9211242F933F934F935F936F9322
:104990007F938F939F93AF93BF93EF93FF938091F8
:1049A000B900887F803609F44AC0F0F5883209F4EE
:1049B000A7C018F5803109F49BC0B8F4882309F426
:1049C000F9C0883009F494C0FF91EF91BF91AF9185
:1049D0009F918F917F916F915F914F913F912F9117
:1049E0000F900FBE0F901F901895883109F488C062
:1049F000803251F78093600314C0803409F49DC065
:104A000040F48033B9F38833F9F68093600385EC82
:104A1000B0C0803509F485C0883509F496C0883463
:104A200099F60E94A41BD0CF883909F48CC038F5C0
:104A3000883729F050F4883611F0803729F683E062
:104A40008093620310923F0257C0883809F47BC0FC
:104A5000803919F0803809F0B7CF80913F02803259
:104A600008F071C0E0913F0281E08E0F80933F0219
:104A70008091BB00F0E0E15EFD4F80833DC0803B54
:104A800039F0E0F4803A09F479C0883A09F09CCF13
:104A900084E08093620310921E0210921D02E09146
:104AA0004C02F0914D02099580911D0281110FC0B9
:104AB00081E080931D021092FD0109C0803C09F441
:104AC000A6CF883C09F4A3CF883B09F07DCFE091C5
:104AD0001E0281E08E0F80931E02F0E0E350FE4F35
:104AE00080818093BB0090911E0280911D0229C09D
:104AF00080913D038093BB0085EC8093BC0064CF24
:104B000090915F0380915E03981758F5E0915F03E1
:104B100081E08E0F80935F03F0E0E25CFC4F8081C8
:104B2000E9CFE0915F0381E08E0F80935F03809176
:104B3000BB00F0E0E25CFC4F808390915F038091CA
:104B40005E039817C8F285E8D8CFE0915F0381E053
:104B50008E0F80935F038091BB00F0E0E25CFC4F1E
:104B600080838091610381115CCF81E080933C035D
:104B700084EA8093BC001092620326CF85EC809378
:104B8000BC001092620380913F02803230F4E091C9
:104B90003F02F0E0E15EFD4F108260913F0270E065
:104BA000E0914A02F0914B028FE192E00995109258
:104BB0003F020ACF1092600334CF1F920F920FB6BC
:104BC0000F9211240F900FBE0F901F9018951F92F7
:104BD0000F920FB60F9211240F900FBE0F901F90DF
:104BE00018951F920F920FB60F9211248F938091F8
:104BF000E6028F5F8093E6028F910F900FBE0F90B9
:104C00001F901895E0EAF3E01382128288EE93E099
:104C1000A0E0B0E084839583A683B7838FE891E01A
:104C200091838083EAEBF3E013821282128614866A
:104C30001386158681E0868781EA91E091838083DF
:104C400060E081E10E944708EBE9FCE0E491ACEA16
:104C5000B3E0EC93E7E8FCE0E491F0E0EE0FFF1F37
:104C6000E459F34F8591949112969C938E931197EA
:104C70001B961C921B971D961C921D971C961C92AE
:104C80001C971A961C921A9719961C9219971896A7
:104C90001C92189717961C92179716961C921697A7
:104CA00015961C92159714961C92149713961C92A5
:104CB0000895CF93DF93CDB7DEB7E3970FB6F8949F
:104CC000DEBF0FBECDBF789484B5826084BD84B54D
:104CD000816084BD85B5826085BD85B5816085BDF7
:104CE00080916E00816080936E00109281008091AF
:104CF0008100826080938100809181008160809337
:104D00008100809180008160809380008091B1005B
:104D100084608093B1008091B00081608093B00086
:104D200080917A00846080937A0080917A0082601A
:104D300080937A0080917A00816080937A008091DC
:104D40007A00806880937A001092C100A895F89448
:104D500014BE8091600088618093600089E2809336
:104D60006000789488E48093B8006AE070E080E0A6
:104D700090E00E94A80861E080E00E9447086DE48E
:104D800071E086E990E00E94E10C61E08FE00E9412
:104D9000470860E08FE00E9419086AE070E080E058
:104DA00090E00E94A80861E08FE00E9419086AE084
:104DB00070E080E090E00E94A80889E08093C90339
:104DC0008AE08093CA0361E089E00E94470861E0BD
:104DD0008091CA030E9447081FB7F8948091490246
:104DE000811127C0E0E8FCE08491E4E9FCE09491C3
:104DF000E82FF0E0EE0FFF1FED5CF44FA591B491AA
:104E0000EC91E92321F461E08AE00E94190861E055
:104E10008AE00E9447088CB580618CBD8CB58064A7
:104E20008CBD61E08DE00E94470861E08BE00E944C
:104E30004708809149028F5F809349021FBF1092FB
:104E4000BE031092BF03E0EEFBE0C590D490E2EE0B
:104E5000FBE0F490E3EEFBE0E491E093C003E4EECA
:104E6000FBE0E491E093C103E5EEFBE0E491E09325
:104E7000C20310E000E00F1558F4F601E00FF11F37
:104E800064918AEB93E00E94770E0F5F1F4FF3CF80
:104E90008AEB93E00E94DF0E61E88AEB93E00E94C8
:104EA000770E66EE8AEB93E00E94770E8AEB93E032
:104EB0000E94DF0E6BED7BE090E080E00E946F11BE
:104EC0006DE471E080E090E00E94A80862E082E07A
:104ED0000E94470862E081E00E94470862E084E0A7
:104EE0000E94470862E083E00E94470861E088E092
:104EF0000E94470860E088E00E94190860E080E1B5
:104F00000E9447086AE070E080E090E00E94A808F4
:104F10000E9405140FEF1FEF62E389E093E00E9407
:104F2000030990913B03891709F446C00F3F10070E
:104F300009F042C08AEB93E00E94DF0E63ED7BE054
:104F400082E090E00E946F116CEC7BE084E090E0E6
:104F50000E946F1160EC7BE086E090E00E946F1190
:104F600081E00E94F0078C01019751F58AEB93E0F4
:104F70000E94DF0E6AEB7BE090E080E00E946F1100
:104F800083E00E94F007892B61F48AEB93E00E9492
:104F9000DF0E62EB7BE090E080E00E946F1103E0A7
:104FA00010E065E070E080E090E00E94A808A8951D
:104FB0000F3F1007A9F2B0CF0330110521F4FFCF46
:104FC0000FEF1FEFDDCF01301105D9F442E350E0C0
:104FD00060E87BE089E093E00E94F4370E94C5110D
:104FE0002091440130914501409146015091470183
:104FF000609148017091490180914A010E94181204
:10500000FFCFA895809109038093980280910A03AD
:105010008053990B9093A9028093A80280910B036F
:105020008A55990B9093A6028093A50280910D0357
:10503000282F30E0322F222780910C03820F932FEC
:10504000911D845B91099093A4028093A3028091A7
:105050000E038093970280910F038093E00280916A
:1050600010038093A7028091110390E09093A10216
:105070008093A00280911303282F30E0322F222743
:1050800080911203820F932F911D805F910990935D
:10509000BD028093BC02809114038093AB02809187
:1050A0001503809310018091160380930F01809166
:1050B00017038093A20280911803809314018091BA
:1050C00019038093130180911A0380931201809138
:1050D0001B038093AA0280911C0380930901809195
:1050E0001D038093080180911E0380939D0280918F
:1050F0001F0380930D018091200380930C01809108
:10510000210380930B018091220380939E02809162
:10511000230380939F028091250390E0982F882796
:1051200020912403820F911D9093800280937F022F
:105130008091270390E0982F882720912603820FE3
:10514000911D90938202809381028091280390E0C8
:10515000909379028093780280912903809395023D
:1051600080912A038093960280912B0380932601DD
:1051700080912C038093250180912D03809324013D
:1051800080912E038D57990B9093C1028093C0029A
:1051900080912F038093220180913003809321011D
:1051A0008091310380931F018091320380931E010F
:1051B0008091330380931D01809134038D57990BA7
:1051C0009093BF028093BE028091350380931B01B0
:1051D0008091360380931A0180913703809399025E
:1051E0008091380380939A028091390390E09093E4
:1051F0009C0280939B0269E77BE082E090E00E9442
:105200006F116DE471E080E090E00E94A8080E94B8
:10521000DD0D0E94B40D9093BB028093BA0288E624
:105220000E945B0760E080EA93E00E94A40A0E946B
:105230008009882359F061E080E00E9419086DE33D
:105240007BE090E080E00E946F11FFCF61E070E0B2
:1052500088E690E00E942C130E94780787FF0FC019
:1052600088E60E945B0760E080EA93E00E94A40A5F
:1052700060E080EA93E00E94A40A0E94800965E051
:1052800070E080E090E00E94A80888E60E945B073A
:1052900067E080EA93E00E94A40A60E180EA93E07C
:1052A0000E94A40A0E948009882359F061E080E0EE
:1052B0000E94190861E77BE084E090E00E946F1192
:1052C000FFCF6AE67BE084E090E00E946F116DE41E
:1052D00071E080E090E00E94A808A8950E94940DDB
:1052E0008093B9028091E002813061F463E67BE053
:1052F00086E090E00E946F116DE471E080E090E044
:105300000E94A8088091E002823079F5109208038B
:10531000109207031092690310928B030E944109B7
:1053200088E997E090934D0280934C0289E997E0D9
:1053300090934B0280934A0280E20E945B0766E0F2
:1053400080EA93E00E94A40A0E948009882309F45D
:1053500089C06BE57BE086E090E00E946F1160ED14
:1053600077E080E090E00E94A8088091E0028350FE
:10537000823040F588E28093AF031092B003109220
:10538000B1031092B2031092B3031092B4031092BF
:10539000B5031092B60380E48093B7031092B8036C
:1053A0001092B9030E94B612811167C06CE47BE0D1
:1053B00086E090E00E946F1160ED77E080E090E081
:1053C0000E94A808A8956DE471E086E990E00E942B
:1053D000E10C6DE471E086E990E00E94E10C6DE47F
:1053E00071E086E990E00E94E10C8AEB93E00E9474
:1053F000DF0EA89582E997E0909301018093000168
:10540000809169008C7F826080936900E89A1AE03D
:10541000412E512C612C712CAE01465F5F4F5FA76E
:105420004EA7BBE32B2EB1E03B2EA8958090E60261
:105430009090E502882011F40C94D5371092E60282
:1054400091100C94D1371092E4028091E3028823EA
:1054500011F40C94DB370E94661081E08093E20225
:105460000C94DB3764E57BE086E090E00E946F11EE
:105470006DE471E080E090E076CF65E47BE086E06B
:1054800090E00E946F116DE471E080E090E098CFB1
:105490008091E10281110C94DB378091E40289371D
:1054A00000F181E08093E3021092E4021092E102A5
:1054B0001092B6021092B502809318018AEB93E025
:1054C0000E94DF0E6EEA8AEB93E00E94770E6DEA8F
:1054D0008AEB93E00E94770E6AE88AEB93E00E94E1
:1054E000770E8091E3028111EBC181E00E94F00709
:1054F00011E0892B09F410E080919202181751F005
:105500000E94DB0860938E0270938F02809390025A
:10551000909391020E94DB0820910601C0908E02B8
:10552000D0908F02E0909002F09091026C197D096A
:105530008E099F096A3171058105910518F01213D2
:10554000109306011093920284E00E94F00711E08C
:10555000892B09F410E080918D02181751F00E94F8
:10556000DB086093890270938A0280938B02909388
:105570008C020E94DB08C0908902D0908A02E090E1
:105580008B02F0908C026C197D098E099F096A319B
:1055900071058105910528F080910501181310937C
:1055A000050110938D0283E00E94F00711E0892B22
:1055B00009F410E080918802181751F00E94DB086E
:1055C0006093840270938502809386029093870291
:1055D0000E94DB08C0908402D0908502E090860291
:1055E000F09087026C197D098E099F096A31710557
:1055F0008105910528F0809104011813109304018E
:105600001093880280918302909106012091AC0250
:10561000222381F181112EC080911801E82FF0E042
:10562000EE57FE4F2081222329F13091B50235310A
:1056300008F191111FC09091B80291110C94DF33C1
:105640009091E10231E093279093E102911101C022
:1056500020E02093B60291110AC09FEF980F93307B
:1056600010F00C942F330E94BA1A0E94611481E04A
:10567000809383028091060190918302992331F0F7
:10568000882321F0109283021092B5021091E1025A
:10569000112311F40C94093481110C940D34809170
:1056A0001701813021F4109217011092E4028091C9
:1056B0009402882351F08091B5028C3030F08091B3
:1056C0000501811102C0109294028091940281110F
:1056D00007C080910501882319F081E0809394022E
:1056E00080919302882351F08091B5028C3030F084
:1056F00080910401811102C0109293028091930263
:10570000811107C080910401882319F081E0809302
:1057100093028091830281111AC0809116019091A9
:10572000050191110C94BF37813021F410921601BC
:105730001092E402809115019091040191110C9452
:10574000C837813021F4109215011092E4020E94B2
:10575000DB08C090B102D090B202E090B302F090AA
:10576000B4026C197D098E099F09673471058105A2
:10577000910508F477C00E94DB086093B102709332
:10578000B2028093B3029093B40281E00E94F007CA
:10579000892B11F00C9418348091B5028F5F80939F
:1057A000B5021092E40280911701811128C082E0B5
:1057B000809317018091B602E0911801813011F0B9
:1057C0000C943034E33011F00C942A349091AB02F5
:1057D000923010F40C94303484E08093B60221E0CF
:1057E0002093B7023091B602F0E0EE57FE4F808171
:1057F00090E001963817190611F42093B6029091A3
:105800001601992321F080911501811110C021E02A
:105810002093B70211110C9452348091E202882334
:1058200011F40C9433341092E2021092B70280917A
:10583000160181110C94A73782E0809316018091A4
:10584000150181110C94B33782E08093150180918A
:10585000E102811104C08091B802882319F081E02F
:105860008093B7020E94DB080091AD021091AE0256
:105870002091AF023091B002601B710B820B930B31
:10588000693C710581059105D8F08091AC0291E0E9
:1058900089278093AC020E94DB086093AD0270936D
:1058A000AE028093AF029093B0028091E102811129
:1058B00004C08091B802882319F081E08093B70278
:1058C0008091E30281110AC08091B702882331F0F0
:1058D000809118010E94DC1B1092B7028091E302B4
:1058E000882309F445C083B7817F846083BF83B771
:1058F000816083BFF894809164008F6E8093640010
:1059000085B7806685BF8F7D85BF7894809168005C
:1059100084608093680080916D00826080936D0048
:1059200080916D00886080936D0080916D00806132
:1059300080936D00DA9A889583B78E7F83BF8091BC
:10594000640080718093640080916800847080930B
:10595000680080916D00827080936D0080916D0071
:10596000887080936D0080916D00807180936D00D0
:1059700062E070E080E090E00E94A80880E090E0A3
:10598000892B09F452CD0E9400004BCD882009F4E8
:1059900084CD8091B802811117C48091E3028111F6
:1059A00005C08091E4028F5F8093E402A0903D01E6
:1059B000B0903E01C0903F01D0904001E090410185
:1059C000F0904201009143012091070130910801BC
:1059D0004091090150910A0160910B0170910C01F5
:1059E00080910D0110C467E070E088E690E00E94AD
:1059F0002C13D090070380910803D81609F4B7C37D
:105A00000E947807982F92959770282F2F70A22EBA
:105A10005AE0959FA00C112490910803D9120E947E
:105A20007807282F2F70982F92959F70B22EAAE09A
:105A30009A9FB00C112490910803D9120E94780704
:105A4000982F92959370082F0F70BAE09B9F000DCE
:105A5000112490910803D9120E947807282F2F70E3
:105A6000982F92959F70C22EEAE09E9FC00C112441
:105A700090910803D9120E947807282F2F70982F31
:105A800092959F70E22EFAE09F9FE00C1124909176
:105A90000803D9120E947807282F2F70982F92950B
:105AA0009F70F22E3AE0939FF00C1124909108031E
:105AB000D9120E947807982F92959F708F70182F97
:105AC0004AE0949F100D1124A0924401B092450128
:105AD00000934601C0924701E0924801F0924901CB
