:100000000C9453060C949C240C9475240C94EC25AD
:100010000C947B060C94F6250C94E2250C947B063C
:100020000C947B060C947B060C947B060C947B064C
:100030000C947B060C947B060C947B060C947B063C
:100040000C942B240C947B060C947B060C947B065E
:100050000C947B060C947B060C947B060C947B061C
:100060000C94C3240C947B06036EDB363D9A99995D
:10007000993DABAAAA2A3E000000803F072C7AA532
:10008000BA6CC590DA3B9365FC8BBC53F810FD3C11
:100090005692834DBD879D3AB63DCBC9BF5BBE73BB
:1000A000DA0FC93F05A84CCDB2D44EB93836A902F3
:1000B0000C50B9918688083CA6AAAA2ABE00000066
:1000C000803F0664EC1B3C04BC163E3BE5B93CC9D2
:1000D0003C37C29E5A3D660498083EEA69AAAA3E89
:1000E000000000803F0050494341504F54004453AA
:1000F0003138423230004341544E49500041544D52
:10010000454741333238004E4F4E4500335D486F0E
:1001100075727300322E355D486F75727300325DF3
:10012000486F75727300312E355D486F75727300BC
:10013000315D486F75720035305D4D696E00343049
:100140005D4D696E0033305D4D696E0032355D4D39
:10015000696E0032305D4D696E0031355D4D696EFE
:100160000031305D4D696E00395D4D696E00385D5E
:100170004D696E00375D4D696E00365D4D696E00EC
:10018000355D4D696E00345D4D696E00335D4D69BE
:100190006E00325D4D696E00315D4D696E004455F3
:1001A000534B2D355D486F757273004455534B2D7D
:1001B000345D486F757273004455534B2D335D4861
:1001C0006F757273004455534B2D325D486F7572D5
:1001D00073004455534B2D315D486F757200445583
:1001E000534B2D33305D4D696E73004455534B00B6
:1001F0004441574E2B355D486F757273004441572B
:100200004E2B345D486F757273004441574E2B334B
:100210005D486F757273004441574E2B325D486FD5
:10022000757273004441574E2B315D486F757200F3
:100230004441574E2B33305D4D696E730044415736
:100240004E004D414E55414C004F46460022230082
:100250002227003B27005F2700602700534100460C
:1002600052005448005744005455004D4F00535518
:1002700000444543004E4F56004F435400534550F1
:1002800000415547004A554C004A554E004D4159D2
:1002900000415052004D415200464542004A414EF5
:1002A00000AED580A83FD300408D142002A1C8DA4B
:1002B00012817FD9F1DB40A4A6AF434C4B45522DB0
:1002C0005700434C4B45522D530048554D3D262079
:1002D000262520544D503D26265E005643433D269C
:1002E000204241543D265E004455524154494F4EF0
:1002F0003D265E004C41535420414C323D32302665
:100300002D262D265E004455524154494F4E3D2620
:100310005E004C41535420414C313D3230262D2655
:100320002D265E005757572E50494341504F542EAB
:10033000434F4D5E0053554E46592D3332382056AB
:10034000322E315E007C262620263A265E002026AC
:10035000265E007B262620263A265E005B5B5B54E9
:10036000454D50455241545552455E004475722EDC
:100370003D265E005B5741544552494E475B5B5DED
:100380004E4F575E0053454E534F523D20265E0060
:100390000701FD00F600EE00E600434C4F434B2002
:1003A00043414C49425241542E3D2026265E00488E
:1003B000454154574156452041444A5553543D20E8
:1003C00026265E00534B4950204943453D202626B2
:1003D0002C5E00534B4950204943453D204F464633
:1003E0005E00534B4950204943453D2026267E5E02
:1003F00000534B4950204943453D205E0054454D34
:100400005045522E20554E49543D20265E00202056
:100410005B5B5B4F5054494F4E535E00534B49500A
:1004200020444159533D204155544F5E00534B49A0
:100430005020444159533D204F46465E00534B499E
:100440005020444159533D20265E00534B495020D3
:10045000444159533D205E00534B49502048554D6F
:1004600049444954593D204F46465E00534B49503C
:100470002048554D49444954593D2026255E005396
:100480004B49502048554D49444954593D205E0040
:10049000534541534F4E2041444A5553543D204FFC
:1004A00046465E00534541534F4E2041444A555302
:1004B000543D202B26255E00534541534F4E20418D
:1004C000444A5553543D205E004455524154494FCF
:1004D0004E3D20265E00980192018C01860180012C
:1004E0007A0174016E01680161015A0153014C01E6
:1004F00045013E013701300126011E0114010C01A6
:1005000054494D453D20263A265E004D4F44453D19
:1005100020265E0020205B5B5B414C41524D2D2626
:100520005E0049024202EB01DE01D201C501B801C1
:10053000AB019E01490242023D0230022402170231
:100540000A02FD01F0014C4F4E4749545544453DC8
:100550002026265E004C4F4E4749545544453D20C9
:100560005E004C415449545544453D2026265E00CA
:100570004C415449545544453D205E004441594C3A
:100580004947485420534156494E473D20265E0076
:1005900054494D455A4F4E453D20262626265E009D
:1005A00054494D455A4F4E453D205E005B5B5B47CD
:1005B000454F4C4F434154494F4E5E00263A263A30
:1005C000265E0000000F1B2F0C0000000000000042
:1005D000000000000000000000000000000000001B
:1005E000000000000000000000000000000000000B
:1005F00000000000000000000000000000000000FB
:1006000000000000000000C0E0F0F8787878F8F012
:10061000E0C0000000FEFFFFFF0100000001FFFF3F
:10062000FFFE00001FFFFFFFE0808080E0FFFFFF74
:100630001F00000000010307070707070301000070
:1006400000000080C0E0F0F8F8F8F80000000000BA
:10065000000F07030100FFFFFFFF00000000000084
:100660000080808080FFFFFFFF808080800000008E
:10067000070707070707070707070707000080E0C6
:10068000F0F0F8787878F8F0F0E0800000030303E9
:1006900003000080C0F0FFFF7F0F000000E0F0FCCF
:1006A000FEFF8F8783818080800000070707070790
:1006B0000707070707070707000000C0F0F0F878F2
:1006C0007878F8F0F0E08000000303030300F0F016
:1006D000F0F8FFFF9F07000018F8F8F8E08080802E
:1006E000E1FFFFFF7F000000000303070707070784
:1006F000030301000000000000000000C0E0F8F863
:10070000F8F80000000080E0F8FC3F0F03FFFFFF57
:10071000FF0000003F3F3F3F3C3C3C3CFFFFFFFFF2
:100720003C3C000000000000000000070707070035
:10073000000000C0F8F8F8787878787878780000C9
:1007400000E0FFFF7F3F383C3C7CF8F8F0C0000041
:1007500030F8F8F8E0808080E0FFFFFF1F00000025
:1007600000010307070707070301000000000080DE
:10077000E0F0F0787878F8F8F0E0800000FEFFFF15
:10078000FFF1787878F8F1F1E18100001FFFFFFFB9
:10079000C0808080C0FFFFFF7F00000000010307D2
:1007A0000707070703030100000078787878787856
:1007B0007878F8F8F8F878000000000000C0F0FC45
:1007C000FF3F0F03000000000000E0FEFFFF1F01DD
:1007D00000000000000000000007070707000000FD
:1007E000000000000000C0E0F0F0F8787878F8F041
:1007F000F0E0C00000079FDFFFF8F0F0F0F8FFFF27
:100800009F0700007EFFFFFFC1808080C1FFFFFFC8
:100810007E00000001030307070707070303010029
:10082000000080E0F0F0F8787878F8F0E0C00000A0
:10083000003FFFFFFFE0C0C0C0E0FFFFFFFE000081
:1008400070F0F1F1C3838383F1FFFF7F0F0000009D
:10085000010307070707070303010000000000006A
:100860000000008080800000000000000000000008
:10087000060F1F1F1F0F060000000000000000C031
:10088000E0F0F0F0E0C00000000000000000000117
:1008900003030301000000000026205D2626205DE2
:1008A00026255E005B5B5B265D5D265D5D265D5DEE
:1008B000265E005B5B5B5B5B262026202620265E97
:1008C0000059025602530250024D026E026B02683A
:1008D00002650262025F025C029D0299029502912A
:1008E000028D028902850281027D02790275027100
:1008F000022026202026255E00262026255E0026B2
:100900005E00265E00000005072060000000000079
:1009100000004F00007E425A5A5A5A42663C3C241C
:100920002A7F2A1223130864623649552250424214
:10093000663C3C001C2241000041221C0014083E81
:10094000081408083E080802057E14040808080870
:1009500008006060000020100804023E5149453E36
:1009600000427F400042615149462141454B3118C8
:1009700014127F1027454545393C4A4949300171D9
:100980000905033649494936064949291E0000240C
:1009900000007E425A5A42081422410000141414E6
:1009A0000000412214080201510906304979413EF4
:1009B0007E1111117E7F494949363E414141227FD6
:1009C0004141221C7F494949417F090909013E41B2
:1009D00049497A7F0808087F00417F410020404153
:1009E0003F017F081422417F404040407F020C02BB
:1009F0007F7F0408107F3E4141413E7F090909067F
:100A00003E4151215E7F0919294646494949310134
:100A1000017F01013F4040403F1F2040201F3F40D9
:100A200030403F6314081463070870080761514998
:100A30004543007F41410002040810200041417FEE
:100A40000004020102047E425A42427E4242424275
:100A500020545454787F504848303844440000387B
:100A60004444487F3854545418087E0901020C52FB
:100A700052523E7F0804047800447D4000204044E8
:100A80003D007F1028440000417F4000780C180C86
:100A9000787C0804047838444444387C14141408DE
:100AA000081414187C7C0804040848545454200486
:100AB0003F4440203C4040207C1C2040201C3C40C7
:100AC00030403C44281028440C5050503C4464545E
:100AD0004C440C067F060C18307F30181C22272E41
:100AE0001C02053A44440000000000005EBCE261C4
:100AF0003FDD83C29C7E20A3FD1F41009D23BE4697
:100B0000DB65F88C11AF32CA57E97400030C0F3063
:100B1000333C3FC0C3CCCFF0F3FCFF000000002506
:100B20000028002B00000000080002010000030460
:100B30000700000000000000000000000024002763
:100B4000002A00434C4B45522D4F00534E53204F2B
:100B50004B00534E532045525200534E53204F4B9F
:100B600000534E532045525200534E53204F4B00DA
:100B7000434C4B204F4B00434C4B20455252004DB1
:100B8000454D204F4B0000347DC20003010103F0AE
:100B900000070700051401010413000214010100FD
:100BA0005C4A026803000107140101FA0000140105
:100BB00001000000005C03005265737461727400F0
:100BC0005265736574004254313D59204254333D9F
:100BD0004E0052657365743F004D454D204552529D
:100BE00000424F4F5400A10219804000202D4700C1
:100BF000534B495020414C41524D00534B495044B6
:100C00004159262F265E00534B49502048554D49E7
:100C10004400534B4950204943450054696D6520B9
:100C200053637265656E0066726F6D20746865004F
:100C30007761746572696E67005475726E204F46F5
:100C4000460063616C69622B310063616C69622DDF
:100C50003100434C4B45522D5200434C4B45522DD5
:100C60005200434C4B45522D5700434C4B45522D9F
:100C7000570000000000230026002900040404049B
:100C80000404040402020202020203030303030336
:100C90000102040810204080010204081020010213
:100CA00004081020072611241FBECFEFD8E0DEBFB6
:100CB000CDBF23E0A0EFB1E001C01D92AB3CB20775
:100CC000E1F711E0A0E0B1E0E8E4F9E702C0059047
:100CD0000D92A03FB107D9F716E0C3E5D6E004C0F6
:100CE0002197FE010E94973CC235D107C9F70E94A7
:100CF0005E260C94A23C0C9400009091AC03E09111
:100D0000AD03F091AE03292F209580FF14C0F89415
:100D10008281822382838181892B8183A3E2B0E057
:100D20001197F1F78281982B928378948FE590E068
:100D30000197F1F70895F89482818223828381815B
:100D4000892B8183A7E8B0E01197F1F78281982B76
:100D5000928378948FE090E0EBCF0F931F93CF9323
:100D6000DF93082FC8E0D0E011E081E0902F9123BD
:100D700009F480E00E947D06110F2197B1F7F894E5
:100D8000E091AD03F091AE0391818091AC03809529
:100D900098239183E091AD03F091AE039281892372
:100DA00082837894DF91CF911F910F910895809164
:100DB000AC03E091AD03F091AE03F8949181982BD0
:100DC00091832281382F309523232283A7E0B0E03E
:100DD0001197F1F7918193239183A3E2B0E01197EA
:100DE000F1F790817894E7E5F0E03197F1F79823F7
:100DF00081E009F480E0089580914C0120E4829F15
:100E0000C0011124826080937C0080917A0080640C
:100E100080937A0080917A0086FDFCCF80917800E3
:100E20009091790008959093C6038093C503FC01C7
:100E300024913196E491F22F319719F41092C30363
:100E4000089581E08093C30308958091AC03E091FD
:100E5000AD03F091AE03F8949181282F2095922351
:100E6000918378943DE743E050E0315029F1DA0175
:100E70001197F1F790819823C1F3F894928192230E
:100E800092839181982B91837894ABE7B7E0119787
:100E9000F1F7F894918192239183A3ECB0E011973C
:100EA000F1F79081982381E009F080E07894E3EBFA
:100EB000F1E03197F1F7089580E0089591E0909383
:100EC000680380938A031092690310928B0308953C
:100ED00090910803809107032FEF3FEF981748F494
:100EE000E92FF0E0E951FD4F208130E09F5F9093C2
:100EF0000803C901089590910803809107032FEF1B
:100F00003FEF981748F4E92FF0E0E951FD4F2081B9
:100F100030E09F5F90930803C90108958091070313
:100F200090910803891B990B08958091E5028F5FCA
:100F30008093E502089508950895AF92BF92CF92ED
:100F4000DF92EF92FF920F931F93CF93DF936C0189
:100F50007B018B01040F151FEB015E01AE18BF086A
:100F6000C017D10759F06991D601ED91FC9101901C
:100F7000F081E02DC6010995892B79F7C501DF9134
:100F8000CF911F910F91FF90EF90DF90CF90BF9086
:100F9000AF900895833081F028F4813099F0823049
:100FA000A9F008958730A9F08830C9F08430B1F4F1
:100FB000809180008F7D03C0809180008F77809327
:100FC0008000089584B58F7784BD089584B58F7DA2
:100FD000FBCF8091B0008F778093B000089580910F
:100FE000B0008F7DF9CFCF93DF93282F30E0F90148
:100FF000EB5DF44F8491F901E057F34FD491F9017F
:10100000E458F34FC491CC23A1F081110E94CA0788
:10101000EC2FF0E0EE0FFF1FEE58F34FA591B491C7
:10102000EC91ED2381E090E009F480E0DF91CF9135
:10103000089580E090E0FACF1F93CF93DF93282F9D
:1010400030E0F901EB5DF44F8491F901E057F34F83
:10105000D491F901E458F34FC491CC23A9F0162F91
:1010600081110E94CA07EC2FF0E0EE0FFF1FE55E32
:10107000F44FA591B4918FB7F894EC91111108C079
:10108000D095DE23DC938FBFDF91CF911F91089520
:10109000DE2BF8CFCF93DF9390E0FC01E057F34FC6
:1010A00024918458934FFC0184918823C9F090E0E7
:1010B000880F991FFC01E75CF44FA591B491FC01E6
:1010C000E55EF44FC591D49161110DC09FB7F894BE
:1010D0008C91209582238C938881282328839FBF1D
:1010E000DF91CF910895623051F49FB7F8943C910D
:1010F000822F809583238C93E8812E2BEFCF8FB79F
:10110000F894EC912E2B2C938FBFEACF3FB7F89435
:101110008091450290914602A0914702B091480209
:1011200026B5A89B05C02F3F19F00196A11DB11D42
:101130003FBFBA2FA92F982F8827BC01CD01620F7E
:10114000711D811D911D42E0660F771F881F991F39
:101150004A95D1F708958F929F92AF92BF92CF9206
:10116000DF92EF92FF926B017C010E9486084B0197
:101170005C01C114D104E104F104B9F00E948608B5
:10118000681979098A099B09683E734081059105B0
:1011900080F321E0C21AD108E108F10888EE880E38
:1011A00083E0981EA11CB11CE4CFFF90EF90DF906C
:1011B000CF90BF90AF909F908F9008952FB7F894E5
:1011C00060914102709142028091430290914402E9
:1011D0002FBF08950895CF93DF93EC018A8588236C
:1011E00029F081508A87DF91CF9108959C818E816B
:1011F0009817C8F7E881F9810084F185E02D42E075
:10120000CE0109958C818F5F8C83EDCFDC0180E06E
:10121000615090F09D919827E92FEF70F0E0E55133
:10122000F54F2491E92FE295EF70F0E0E550F54F8E
:10123000E491822F8E27ECCF089520911D02260F76
:101240003327331F21323105ECF420916203FC0176
:1012500090E080E0243069F082E00895A0911D02C2
:101260002191AC0143505E4FA40FB52FB11D2C93BB
:101270000196861798F380911D02680F60931D02F6
:1012800080E0089581E008951092620381E08093E8
:10129000610310923C0361E082E10E941C0861E05E
:1012A00083E10E941C08E9EBF0E080818E7F80835F
:1012B00080818D7F808388E48093B80085E480936B
:1012C000BC000895CF93DF9391E09093FC018823B5
:1012D000B9F0C091B800D091BA008091BC008A7B6F
:1012E0008093BC0060E082E10E941C0860E083E122
:1012F0000E941C080E944409D093BA00C093B80011
:10130000DF91CF910895CF92DF92EF92FF920F93EA
:101310001F93CF93DF93D0918B0381E0D13208F0FC
:101320009CC0C0918A030E9486086B017C01809159
:10133000620381116CC082E08093620381E080933C
:1013400061038FEF8093600310925F03D0935E037D
:10135000AAE6B3E0EEE3F3E080E0D8138DC010928C
:101360003D0380913D03CC0FC82BC0933D0380917A
:101370003C03813009F084C010923C030E9486082F
:101380006B017C0180913D038093BB0080916403DD
:1013900090916503A0916603B0916703892B8A2B16
:1013A0008B2BA1F00E9486080091640310916503C5
:1013B00020916603309167036C197D098E099F099E
:1013C000061717072807390708F442C08091BC00A8
:1013D00083FDD8CF85EC8093BC000E9486086B010A
:1013E0007C0180916203823009F44CC080916003DB
:1013F0008F3F09F469C080916003803209F466C0B0
:1014000080916003803309F463C084E026C080913A
:10141000640390916503A0916603B0916703892BE3
:101420008A2B8B2B09F483CF0E94860800916403DA
:101430001091650320916603309167036C197D0953
:101440008E099F09061717072807390708F06FCF7D
:10145000809163030E94620985E0109269031092F3
:101460008B0310926803DF91CF911F910F91FF9032
:10147000EF90DF90CF9008959D9191938F5F6DCF06
:1014800085EEA9CF8091640390916503A0916603D6
:10149000B0916703892B8A2B8B2B09F4A2CF0E9472
:1014A00086080091640310916503209166033091D2
:1014B00067036C197D098E099F090617170728070E
:1014C000390708F08ECFC4CF80E0C7CF82E0C5CF08
:1014D00083E0C3CF0895E091080380910703E817E4
:1014E00030F4F0E0E951FD4F808190E008958FEFF6
:1014F0009FEF0895CF92DF92EF92FF920F931F9389
:10150000CF93DF937C01CB018A01209168032223D2
:1015100089F0EB016B01C40ED51ECC15DD0569F019
:101520006991D701ED91FC910190F081E02DC70107
:101530000995F3CF642F0E941D09C801DF91CF9157
:101540001F910F91FF90EF90DF90CF900895CF9370
:10155000DF931F92CDB7DEB7698320916803222302
:10156000F9F020918B03203258F021E030E0FC01AB
:101570003383228390E080E00F90DF91CF91089534
:1015800080916903E82FF0E0E659FC4F9981908340
:101590008F5F8093690380938B0381E090E0ECCFB1
:1015A00061E0CE0101960E941D09F7CFCF93DF9332
:1015B00000D000D000D01F92CDB7DEB78091A70237
:1015C000882391F08FEF870F823070F085EF870FBF
:1015D000823050F051507330E9F4511107C0693135
:1015E00018F081E0423068F480E00BC087E090E0C2
:1015F000851B9109680F792F711D81E0603271059B
:101600009CF327960FB6F894DEBF0FBECDBFDF91D7
:10161000CF9108958CEF870F8630B0F07A3021F7A4
:10162000511106C081E0693160F3433050F3DCCFE3
:1016300087E090E0851B9109680F792F711D81E08B
:1016400060327105F4F2D0CF81E0DBCFAF92BF9270
:10165000CF92DF92EF92FF920F93CF93DF93CDB7AC
:10166000DEB7A6970FB6F894DEBF0FBECDBF298FA9
:101670003A8F4B8F5C8F6D8F7E8F8F8FA8A2B9A210
:10168000CAA2DBA2ECA2FDA20EA398E1EDE4F1E078
:10169000DE01119601900D929A95E1F7682F70E0A6
:1016A000202F30E0AB01081708F4A901EE8DE150BE
:1016B000FF0BEE0FFF1F81E090E08C0F9D1FE80FE6
:1016C000F91F0190F081E02DCA018617970744F4B5
:1016D000DC01A370BB27AB2B09F431960196F5CF43
:1016E0008D8D8E0F9F2F911D641B750BADE6B1E0A4
:1016F0006A9FF0016B9FF00D7A9FF00D1124BF01DE
:10170000680F791FFA0190E080E0E217F30744F4D4
:10171000DF01A370BB27AB2B09F401963196F5CFFF
:10172000EDA1E150FF0BEE0FFF1FA1E0B0E0AC0F09
:10173000BD1FEA0FFB1F0190F081E02D8E0F9F1F50
:10174000ECA1E80FF92FF11D241B350B4DE651E0FC
:10175000249FC001259F900D349F900D11248E0F62
:101760009F1F861B970BA6960FB6F894DEBF0FBE81
:10177000CDBFDF91CF910F91FF90EF90DF90CF9091
:10178000BF90AF9008956F927F928F929F92AF9289
:10179000BF92CF92DF92EF92FF920F931F93CF935E
:1017A000DF938C01722EDB01CA010996A11DB11DC8
:1017B0004397A105B10520F5411551056105710556
:1017C00001F580E3F80180832223B9F0818382E070
:1017D00090E0800F911FFC011082C801DF91CF9132
:1017E0001F910F91FF90EF90DF90CF90BF90AF903F
:1017F0009F908F907F906F90089581E090E0E9CF67
:10180000712C612C77FF09C07095609550954195BA
:101810005F4F6F4F7F4F662463946801F12CE12C7A
:101820008AE0882E912CA12CB12CE7012196CB01C6
:10183000BA01A50194010E94613C942F852F605D3F
:10184000F60161936F01A901692F782F41155105A8
:101850006105710559F5772031F0C00FD11F80E384
:101860008883E7012296662031F0F801EC0FFD1F16
:101870008DE280832196F801EC0FFD1F10822197E5
:10188000AF01D801CD01801B910B8C179D070CF087
:10189000A4CF8D91FA019291AF019D0121503109A0
:1018A000F9019083FA0180832197ECCF7E01BDCFAF
:1018B0008F929F92AF92BF92CF92DF92EF92FF9260
:1018C0000F931F93CF93DF9300D01F92CDB7DEB756
:1018D0006B017C0119821A821B8228EE33E040E002
:1018E00050E00E943F3C49015A01C701B60120E87F
:1018F0003EEE46E350E00E943F3CBA01A90110E0F1
:1019000000E0411551056105710581F021E0CE012E
:1019100001960E94C30B8981809394038A818093EE
:1019200095038AE38093960303E010E0C501B401B8
:1019300020E13EE040E050E00E943F3C2CE330E0FC
:1019400040E050E00E943F3C49016B017C0121E0F6
:10195000BA01A401CE0101960E94C30BF801EC5616
:10196000FC4F89818083F801EB56FC4F8A8180838C
:10197000F801EA56FC4F8AE3808321E0B701A60113
:10198000CE0101960E94C30BF801E956FC4F8981F4
:101990008083F801E856FC4F8A818083F801E7567E
:1019A000FC4F108284E993E00F900F900F90DF912D
:1019B000CF911F910F91FF90EF90DF90CF90BF904C
:1019C000AF909F908F9008950F931F93CF93DF93C5
:1019D0008C01EB0161E080E00E941C08B801110F4E
:1019E000880B990B0E94AB0860E080E00E941C0805
:1019F000BE01DD0F880B990BDF91CF911F910F91E5
:101A00000C94AB08CF93C82F2091A0023091A10273
:101A10002115310529F08330B1F5E091950208C018
:101A2000E091A202813021F0E0919D028230A9F77D
:101A3000F0E0EC59FE4F208130E0A0E6BAEE0E94C3
:101A40003839309196023323E1F0C330D1F0209140
:101A50004B012230B0F4232F30E0A901445E5F4FE8
:101A60002091BE023091BF024217530754F424E67E
:101A700030E040E050E00E943F3CA2E8B0E00E942D
:101A80002D39CF910895E091A202813011F0E091BB
:101A90009D02F0E0EC59FE4FA0818CE3A89FD0019D
:101AA0001124C13021F020919B0230919C02409181
:101AB000780250917902249FC001259F900D349F98
:101AC000900D112497FD019695958795AC014C5981
:101AD0005F4F2AE030E00E94883CDA019B01AC01B4
:101AE0000E948F3CAECF81E080934C0162E070E0B9
:101AF00080E090E00E94AB080E94FC0662E070E08B
:101B000080E090E00E94AB080E94FC06A091BA021F
:101B1000B091BB029C010E94803CDC01CB012AE019
:101B2000B695A795979587952A95D1F708950E9420
:101B3000730D883928E0920774F0803629E0920707
:101B40006CF088322AE0920764F084359B4064F0A0
:101B500084E090E0089590E080E0089581E090E0D6
:101B6000089582E090E0089583E090E008958EE487
:101B700080937C0062E070E080E090E00E94AB081F
:101B800080917A00806480937A0080917A0086FD4B
:101B9000FCCF80917A00806480937A0080917A00F3
:101BA00086FDFCCF209178003091790050E040E034
:101BB00060E070E381E190E00E94613CC90108951A
:101BC000AF92BF92CF92DF92EF92FF920F931F934B
:101BD000CF93DF934091BC025091BD029A0157FF11
:101BE00004C022273327241B350B80EF90E08C01A3
:101BF000021B130B293731053CF4B901452B41F485
:101C000090EFE92EF12C07C0203F3105C9F3B80150
:101C10000E942B3C7B01EEE4F2E04CE652E081E0D6
:101C2000293731050CF480E0819581934E175F07C9
:101C3000B1F7293731050CF48901D0E0C0E0D12C8F
:101C4000C12CAA24A394B12CEC2FC016D106FCF40D
:101C5000CE01B7010E942B3C892BC9F48FEFC81A23
:101C6000D80ACE018095909587709927A50101C06B
:101C7000440F8A95EAF7E695E695E695F0E0E25B93
:101C8000FD4F8081293731058CF4842B8083219688
:101C9000C03FD105C9F6DF91CF911F910F91FF9001
:101CA000EF90DF90CF90BF90AF9008954095842340
:101CB000EDCF1F93CF93DF93EC01162F61E041111D
:101CC00001C060E088890E941C0880E58CBD81E02D
:101CD0008DBD60E08F850E941C081EBD00000DB404
:101CE00007FEFDCF8EB561E08F85DF91CF911F910B
:101CF0000C941C08DC01ED91FC910084F185E02D31
:101D000040E00994FC0127812695269526956217C7
:101D100020F46583606B0C947A0E08950F931F93E3
:101D2000CF93FC012681621798F4C62F8C0164833F
:101D30006085C60F6C2F6F700E947A0E6C2F6295B3
:101D40006F706061C801CF911F910F910C947A0E52
:101D5000CF911F910F910895DF92EF92FF920F9311
:101D60001F93CF93DF93EC01D62EE42E022F1A8619
:101D70008F81869586958695281710F00FEF080FAE
:101D80001E2D60E0CE01011780F00E948E0E612FA3
:101D9000CE010E94820EF12C6D85CE010E94EB08CF
:101DA000F394DF14C8F71F5FECCF0E948E0E6E2DE8
:101DB000CE01DF91CF911F910F91FF90EF90DF90B7
:101DC0000C94820EFC01278126952695269521509C
:101DD0006681615040E00C94AC0E2F923F924F927E
:101DE0005F926F927F928F929F92AF92BF92CF92AB
:101DF000DF92EF92FF920F931F93CF93DF93CDB7B4
:101E0000DEB72C970FB6F894DEBF0FBECDBFFC0136
:101E1000238534852115310509F458C1062F9C8787
:101E20008B87F9013296749031965491C52ED12C3E
:101E3000F7E0CF0ED11C93E0D594C7949A95E1F7C3
:101E4000CB82F901349644913196E491641740F0C5
:101E50008E2F90E0BC01640F711D06171706ACF1C0
:101E60000D3001F560E08B859C850E948E0E81E02F
:101E700090E02C960FB6F894DEBF0FBECDBFDF9179
:101E8000CF911F910F91FF90EF90DF90CF90BF9077
:101E9000AF909F908F907F906F905F904F903F900A
:101EA0002F9008950A3009F011C160E08B859C8560
:101EB0000E948E0EEB85FC85868565818C9D600D6C
:101EC0001124CF010E94820ED2CF7901F6E0EF0EED
:101ED000F11C602F641BEB85FC854185F901749131
:101EE0002F5F3F4FF9012491372F2230310508F041
:101EF00072C07C9C90017D9C300D1124629FC001BA
:101F0000639F900D1124E80EF91E512CEB85FC8582
:101F100034802580F285FC83272D30E03A832983A5
:101F200088248394912C412C842F90E098878F8370
:101F30008FE790E0FC01E319F109FA87E987FB815B
:101F40004F1608F0BFC0612C23EA200F2D8331EA21
:101F5000300F3E83EB85FC858685681608F0A9C0A6
:101F60002C812287411002C0662069F0EB85FC8538
:101F700015811F5F632DCF010E948E0E612F8B850F
:101F80009C850E94820E0B3509F048C010E0212F7D
:101F900030E083E090E00D3531F089859A850E358B
:101FA00011F090E080E04F815885840F951F28172D
:101FB00039070CF03BC051E0651206C0EB85FC858B
:101FC000858560E48F3F09F060E08B859C850E94E9
:101FD000EB081F5FDCCF577028E0522E551A5111C5
:101FE00001C0512CF701712C30E020E0761631F061
:101FF0005491250F311D73943196F8CFF701E70DF9
:10200000F11D7490C29EF001C39EF00DD29EF00DA2
:1020100011248E0F9F1FE80EF91E78CFFD81B12C81
:10202000A12CF23028F40B3309F03EC0639492CF18
:10203000A714B0F5F501EE0DFF1D1491552061F0C8
:10204000C814D90449F4E12FF0E0052C02C0F5953D
:10205000E7950A94E2F71E2FEB85FC858685823092
:10206000B1F4611012951F70E12FF0E0E55FF44FBD
:102070001491F1E06F1206C0EB85FC8585858F3FDA
:1020800009F41064612F8B859C850E94EB08612FF9
:102090008B859C850E94EB08FFEFAF1ABF0AC8CF63
:1020A000023209F4C3CFBFCF2E81223008F4BECF55
:1020B0006DCF439429813A81E20EF31E3FEF831ADC
:1020C000930A3DCF622D8B859C85FCCE90E080E00D
:1020D000D0CE6DEA8AEB93E00E947A0E61E070E068
:1020E00080E090E00E94AB086BE88AEB93E00E94EE
:1020F0007A0E61E070E080E090E00E94AB086FEA49
:102100008AEB93E00E947A0E1092E3021092E402AE
:1021100081E08093B70261E070E080E090E00C9491
:10212000AB08089590E080E008952F923F924F927F
:102130005F926F927F928F929F92AF92BF92CF9257
:10214000DF92EF92FF920F931F93CF93DF93CDB760
:10215000DEB7E2970FB6F894DEBF0FBECDBF682E94
:10216000962E242E702E812E88E18E01075E1F4F41
:10217000F801982F11929A95E9F7DE011196FD0169
:1021800011928A95E9F7BD01AD0190E080E0F90177
:10219000E80FF91F54900196FA015192AF015520B2
:1021A00019F08931910599F750E040E0FB018191E8
:1021B000BF01882309F440C04F5F5F4F483151058C
:1021C000A9F78AE2898F30E020E0200F311FF90162
:1021D0001082662D8AEB93E00E948E0E692D8AEBA9
:1021E00093E00E94820E21942092C703F80101908F
:1021F0000020E9F73197AF01401B510BB8018AEB82
:1022000093E00E949D07E2960FB6F894DEBF0FBEE2
:10221000CDBFDF91CF911F910F91FF90EF90DF9095
:10222000CF90BF90AF909F908F907F906F905F9076
:102230004F903F902F90089570E030E020E061E0F3
:10224000872F90E0841795070CF0BFCF8A0F9B1F54
:10225000FC0190819632E9F5872D982D613059F077
:10226000C701623041F0C601633029F08BEE91E086
:10227000643009F4C501582E392EFC01412C81919E
:10228000811112C0C801820F931F59AA3AAA39A816
:1022900035183414B8F4E9A9FAA93190FAABE9ABCE
:1022A000FC013192CF01F3CF439488E14812E7CF8C
:1022B0002901FFEF4F1A5F0A200F311F8AE2F9014F
:1022C000808303C0420E532E511C6F5F7F5F9201CB
:1022D000B7CF2901FFEF4F1A5F0A200F311FF90115
:1022E0009083F4CF8F929F92AF92BF92CF92DF9262
:1022F000EF92FF920F931F93CF93DF93CDB7DEB78B
:1023000068970FB6F894DEBF0FBECDBF4C018E01AB
:102310000F5F1F4F88E1F80111928A95E9F7D80104
:1023200090E080E0FB01E80FF91FE4910196ED9346
:10233000EE2319F089319105A9F785E099E00E9413
:10234000130781E08093C30382E08093C8038BEE80
:10235000A82E81E0B82E6501750122E039E040E049
:10236000B40190E080E00E94951068960FB6F89452
:10237000DEBF0FBECDBFDF91CF911F910F91FF90B8
:10238000EF90DF90CF90BF90AF909F908F90089587
:10239000CF93DF9388E60E945E0768E080EA93E0CF
:1023A0000E94A70AC9E0D3E0699180EA93E00E9405
:1023B000A70A83E0C832D807B9F70E9483098823A7
:1023C00059F061E080E00E941C086AE67CE090E041
:1023D00080E00E947211FFCF88E60E945E0767E2EC
:1023E00080EA93E00E94A70AC8E2D3E0699180EAFC
:1023F00093E00E94A70A83E0CB33D807B9F762E3E2
:1024000089E093E00E940609682F80EA93E00E9429
:10241000A70A0E948309882359F061E080E00E94A6
:102420001C0862E67CE090E080E00E947211FFCF21
:10243000DF91CF9108951F93CF93DF9300D000D009
:1024400000D01F92CDB7DEB729833A834B835C83DC
:102450006D837E838F8388E60E945E0760E080EA5A
:1024600093E00E94A70A0E948309882359F061E043
:1024700080E00E941C0862EC72E090E080E00E9424
:102480007211FFCF88E60E945E0760E080EA93E069
:102490000E94A70A60E880EA93E00E94A70A8A8166
:1024A0001AE0612F0E940B3C8295807F682F690F94
:1024B00080EA93E00E94A70A8B818F73612F0E94AC
:1024C0000B3C8295807F682F690F80EA93E00E9421
:1024D000A70A6C8180EA93E00E94A70A8D81612F90
:1024E0000E940B3C8295807F682F690F80EA93E001
:1024F0000E94A70A8E81612F0E940B3C8295807FEB
:10250000682F690F80EA93E00E94A70A8F81612FEC
:102510000E940B3C8295807F682F690F80EA93E0D0
:102520000E94A70A0E94830988E60E945E0760E075
:1025300080EA93E00E94A70A8981612F0E940B3CE8
:102540008295807F682F690F80EA93E00E94A70A36
:102550000E94830965E070E080E090E027960FB666
:10256000F894DEBF0FBECDBFDF91CF911F910C94C9
:10257000AB08FF920F931F93CF93DF938091B90322
:10258000811104C00E94250781110DC01092B7036C
:102590001092B9031092B80380E0DF91CF911F91A0
:1025A0000F91FF90089580EF0E94AD06D1E000E00A
:1025B000F12CC1E00E94D706182F0E94D7061130D7
:1025C000D9F48130C1F5C13408F3F092B703F110AA
:1025D00003C081E08093B9038091AF038823B1F2F7
:1025E000AFEAB3E0ECE8F3E08D91819383E0E43966
:1025F000F807D1F781E0D1CFE02FF0E0181311C038
:102600008091B703C817A8F4DF01A455BC4F1396F7
:102610008C918D2381F410E0C93010F4C093B8037D
:10262000FC2EE455FC4F83819D2F90958923838355
:102630000AC08C13F0CFE02FF0E0E455FC4F83810B
:102640008D2B838311E0812F0E947D06CF5FDD0FEC
:1026500011F40F5FD1E0083008F4ACCFB4CF8F9203
:102660009F92AF92BF92CF92DF92EF92FF920F9321
:102670001F93CF93DF937C01D62F0E9486084B01D6
:102680005C0180916203811167C0CD2F81E080934E
:102690006203809361039FEF9093600310925F0346
:1026A0009D0F90935E0380933D0380913D03EE0C5C
:1026B000FF1C8E2980933D0380913C03813009F0FB
:1026C00083C010923C030E9486086B017C018091BC
:1026D0003D038093BB008091640390916503A091BA
:1026E0006603B0916703892B8A2B8B2BA1F00E9484
:1026F00086088090640390906503A0906603B09074
:1027000067036C197D098E099F0986169706A8062E
:10271000B90608F442C08091BC0083FDD8CF85EC97
:102720008093BC000E9486086B017C01809162034B
:10273000813009F44BC080915F038D1710F4C09174
:102740005F03EEE3F3E0A7EEB2E080E08C1751F117
:1027500091919D938F5FFACF80916403909165036F
:10276000A0916603B0916703892B8A2B8B2B09F408
:1027700088CF0E9486080091640310916503209120
:10278000660330916703681979098A099B0906175E
:1027900017072807390708F074CF809163030E9458
:1027A0006209C0E010920803C09307038C2FDF91E9
:1027B000CF911F910F91FF90EF90DF90CF90BF903E
:1027C000AF909F908F90089585EEAACF809164037B
:1027D00090916503A0916603B0916703892B8A2BC2
:1027E0008B2B09F4A3CF0E948608809064039090FD
:1027F0006503A0906603B09067036C197D098E098C
:102800009F0986169706A806B90608F08FCFC5CF90
:10281000CF9388E60E945E0768E080EA93E00E941A
:10282000A70A0E948309882359F061E080E00E9492
:102830001C086AE57CE090E080E00E947211FFCF06
:1028400060E270E088E690E00E942F13C0E0909173
:10285000070380910803981749F00E947B07EC2F2B
:10286000F0E0E75FFC4F8083CF5FF1CF88E60E9406
:102870005E0768E280EA93E00E94A70A0E9483094B
:10288000882359F061E080E00E941C0862E57CE04A
:1028900090E080E00E947211FFCF63E170E088E673
:1028A00090E00E942F1390910703809108039817DE
:1028B00049F00E947B07EC2FF0E0E75FFC4F80833C
:1028C000CF5FF1CFCF9108951F93CF93DF9313E0A4
:1028D000C0E0D1E080919802809309038091A80222
:1028E000805D80930A038091A502865A80930B0332
:1028F000E091A302F091A4029F012C543F4FC90123
:10290000BE010E942B3C80930C0337FF02C0215074
:102910003F4F30930D038091970280930E03809177
:10292000E00280930F038091A702809310038091AF
:10293000A00280931103E091BC02F091BD029F01BF
:1029400020513F4FC901BE010E942B3C80931203CE
:1029500037FF02C021503F4F309313038091AB02E9
:1029600080931403809110018093150380910F01CF
:10297000809316038091A202809317038091140123
:1029800080931803809113018093190380911201A1
:1029900080931A038091AA0280931B0380910901FE
:1029A00080931C038091080180931D0380919D02F8
:1029B00080931E0380910D0180931F0380910C0171
:1029C0008093200380910B018093210380919E02CC
:1029D0008093220380919F028093230330917F0292
:1029E00020918002832F922FBE010E942B3C809366
:1029F0002403832F922F97FF02C081509F4F909303
:102A000025033091810220918202832F922FBE01F3
:102A10000E942B3C80932603832F922F97FF02C0A6
:102A200081509F4F909327038091780280932803D1
:102A300080919502809329038091960280932A03C6
:102A40008091260180932B038091250180932C0394
:102A50008091240180932D038091C002835880933C
:102A60002E038091220180932F0380912101809376
:102A7000300380911F018093310380911E01809368
:102A8000320380911D01809333038091BE028358ED
:102A90008093340380911B018093350380911A0148
:102AA00080933603809199028093370380919A0234
:102AB0008093380380919B02809339030E94C81150
:102AC0000E94081462E389E093E00E940609909155
:102AD0003B03891781F064E170E080E090E00E94A0
:102AE000AB08115009F0F6CE6AEB72E090E080E09E
:102AF0000E947211FFCFDF91CF911F910895CF9364
:102B0000DF93C82F80E20E945E076C2F80EA93E07B
:102B10000E94A70A0E948309882351F080914B01EB
:102B20008F5F80934B0190E080E0DF91CF9108951B
:102B300064E170E080E090E00E94AB0862E070E049
:102B400080E290E00E942F130E947B07D82F80E044
:102B5000C82F0E947B078C2B9D2B10924B01E5CF39
:102B60000E949D3C8F929F92AF92BF92CF92DF9234
:102B7000EF92FF926A017B012AE534EC41EF54E4C5
:102B8000CB01B6010E946F389B01AC016BE774E189
:102B90008AEF92E40E9458392BED3FE049E450E47B
:102BA0000E946F3820E030E044E353E40E94E539AE
:102BB0000E94E0394B015C012FE232EA4DEE5AE30C
:102BC000C701B6010E946F389B01AC016BE37AEA42
:102BD0008AE19AE30E945839A70196010E946F3852
:102BE0002FE832E44BE352E40E945939A7019601E1
:102BF0000E946F389B01AC0161E875E98BEA91E4B2
:102C00000E94583920E030E040E752E40E94E53964
:102C100020E030E040ED51E40E94593920E030E0FE
:102C200040E752E40E94E53920E030E048EB51E40F
:102C30000E9459396B017C012CEA35EC47E25BE3D9
:102C4000C501B4010E946F389B01AC01C701B601F8
:102C50000E945939FF90EF90DF90CF90BF90AF90D6
:102C60009F908F9008953F924F925F926F927F92C4
:102C70008F929F92AF92BF92CF92DF92EF92FF928C
:102C80000F931F93CF93DF93CDB7DEB7AA970FB6FD
:102C9000F894DEBF0FBECDBF4C01362ECA01B9017C
:102CA000E9A2FAA20BA31CA3ADA2BEA2CFA2D8A6F2
:102CB00024E631EA45E15AE40E94583920E03DEA31
:102CC0004EE057E40E94E5392B013C01BC01A20112
:102CD000C4010E94B2154B015C0121ED36EF4EE9B3
:102CE00059E3C301B2010E946F3825EC30EA4CE091
:102CF00057E40E945939A30192010E946F3825EBD5
:102D00003BE34CE853E40E94593969A77AA7182F8E
:102D1000092F6B01E82EF92E20E030E044EB53E45C
:102D2000B601C7010E947F3B18165CF420E030E03A
:102D300044EB53E4B601C7010E9458396B017C0192
:102D4000EBCF20E030E0A901B601C7010E940938AD
:102D500087FF0BC020E030E044EB53E4B601C7012D
:102D60000E9459396B017C01ECCF28E03BE048E040
:102D700054E3C301B2010E946F3823EE30E540E313
:102D800058E30E945939A30192010E946F389B01B8
:102D9000AC016CE870EE88E89CE30E9458396983C6
:102DA0007A838B839C832BED3FE049E450E4C5019B
:102DB000B4010E946F3820E030E044E353E40E9405
:102DC000E539698B7A8B8B8B9C8B20E030E040E07F
:102DD0005FE30E946F380E94D23B9B01AC010E94CE
:102DE0006F3869877A878B879C872BED3FE049E4B2
:102DF00050E4B601C7010E946F3820E030E044E3A0
:102E000053E40E94E5396B017C01AC019B010E94F7
:102E100059394B015C010E94843B698F7A8F8B8FFB
:102E20009C8F28E83AE241E259E3C301B2010E94D3
:102E30006F389B01AC016DE07FE98CE097E40E9464
:102E40005839A30192010E946F382AEB33EC42EB10
:102E500053E40E9459392BED3FE049E450E40E94CD
:102E60006F3820E030E044E353E40E94E5396D839D
:102E70007E838F8398870E94843B6D877E878F87B0
:102E8000988BC501B4010E94E0394B015C0120E040
:102E900030E040E850E4C701B6010E946F380E945C
:102EA000843B6D8F7E8F8F8F98A32D813E814F81C4
:102EB0005885CA01B9010E9459390E94843B6D8B23
:102EC0007E8B8F8B988F298D3A8D4B8D5C8D69858C
:102ED0007A858B859C850E946F386B017C012981E6
:102EE0003A814B815C81CA01B9010E9459392D8513
:102EF0003E854F8558890E946F389B01AC01C70100
:102F0000B6010E9458396B017C0120E030E040E8B6
:102F100050E469817A818B819C810E946F38298578
:102F20003A854B855C850E946F382D853E854F859F
:102F300058890E946F38A50194010E946F389B0147
:102F4000AC01C701B6010E9459396B017C0120E038
:102F500030E040E05FE369857A858B859C850E943F
:102F60006F3829853A854B855C850E946F382D8D99
:102F70003E8D4F8D58A10E946F389B01AC01C70157
:102F8000B6010E9458396B017C0120E030E040EA34
:102F90005FE369817A818B819C810E946F382981EE
:102FA0003A814B815C810E946F382D893E894F891F
:102FB000588D0E946F389B01AC01C701B6010E9479
:102FC000583920E030E044E353E40E946F382BEDA1
:102FD0003FE049E450E40E94E53920E030E040E879
:102FE00050E40E946F3869877A878B879C8720E03E
:102FF00030E044EB53E469A57AA5812F902F0E941D
:103000007F3B18167CF420E030E044EB53E469A5E4
:103010007AA5812F902F0E94583969A77AA7182F77
:10302000092FE5CF20E030E0A90169A57AA5812F1D
:10303000902F0E94093887FF0FC020E030E044EB5A
:1030400053E469A57AA5812F902F0E94593969A769
:103050007AA7182F092FE6CF20E030E040E450E4B3
:103060006D817E818F8198850E946F380E94843B9C
:1030700069837A838B839C832AE534EC41EF54E4A3
:10308000C301B2010E946F389B01AC016BE774E190
:103090008AEF92E40E9458392BED3FE049E450E476
:1030A0000E946F3820E030E044E353E40E94E539A9
:1030B0000E94843B4B015C0169897A898B899C89D8
:1030C0000E94843B6B017C012BE831EE4AE657E31A
:1030D000C301B2010E946F382DEE37ED4DE95BE37D
:1030E0000E945939A30192010E946F389B01AC01E3
:1030F0006EEA71E185EF9FE30E9458392D853E8588
:103100004F8558890E946F386D837E838F8398879F
:1031100026EF3FEC43ED58E3C301B2010E946F3844
:103120009B01AC016CE578EC83EA9CE30E94583982
:103130002D893E894F89588D0E946F389B01AC01C3
:103140006D817E818F8198850E9459392B013C01C8
:103150002CEE34E847E959E369817A818B819C81BF
:103160000E946F389B01AC01C301B2010E94593922
:1031700029A53AA5412F502F0E9459392EE233E755
:103180004AEB5BE30E9458392B013C012CE831EA01
:103190004CE95BE3C501B4010E946F389B01AC01AF
:1031A000C301B2010E9458392BED3FE049E450E4DD
:1031B0000E946F3820E030E044E353E40E94E53998
:1031C0000E94843B9B01AC01C701B6010E946F388D
:1031D0000E94C5396B017C012BED3FE049E450E4CE
:1031E00069A17AA18BA19CA10E946F3820E030E0F8
:1031F00044E353E40E94E5394B015C0120E030E0F8
:1032000044E353E4C701B6010E946F382BED3FE061
:1032100049E450E40E94E5392BED3FE049E450E4F5
:103220000E946F3820E030E044E353E40E94E53927
:103230006B017C01C501B4010E94E0392B013C0106
:10324000C701B6010E94E03969837A838B839C832E
:10325000C501B4010E94D23B4B015C01C701B6011C
:103260000E94D23B6B017C0129813A814B815C81B8
:10327000C301B2010E946F389B01AC0169E071E3A8
:103280008EE69CEB0E94E5392B013C01A7019601DB
:10329000C501B4010E946F389B01AC01C301B201AA
:1032A0000E9458390E944739311001C0905820E0DF
:1032B00030E044E353E40E946F382BED3FE049E4F3
:1032C00050E40E94E5392DA13EA14FA158A50E94CE
:1032D000593920E030E040E850E40E946F389B010B
:1032E000AC0160E070E084E394E40E9458392985E1
:1032F0003A854B855C850E945839AA960FB6F8949A
:10330000DEBF0FBECDBFDF91CF911F910F91FF9018
:10331000EF90DF90CF90BF90AF909F908F907F9075
:103320006F905F904F903F9008952F923F924F92F1
:103330005F926F927F928F929F92AF92BF92CF9245
:10334000DF92EF92FF920F931F93CF93DF93CDB74E
:10335000DEB72A970FB6F894DEBF0FBECDBF1C01B3
:1033600069872A013901EA8623E06216710434F480
:1033700031E0431A51088CE0680E711CB2016459A7
:103380007D4E072E000C880B990B0E94103820E010
:1033900030EA46EB53E40E946F380E948D3A6B018D
:1033A0007C01B3016F5F7F4F072E000C880B990BD8
:1033B0000E94103821E03DEC44EF51E40E946F3848
:1033C0000E948D3A4B015C01C20164E670E00E94EC
:1033D0002B3C82E090E0DC01A61BB70BBD01072E61
:1033E000000C880B990B0E94103869837A838B83B9
:1033F0009C83C20160E971E00E942B3C072E000C07
:10340000880B990B0E9410389B01AC0169817A816D
:103410008B819C810E9459390E94573A072E000CDB
:10342000880B990B0E9410382B013C01A5019401D7
:10343000C701B6010E9459396B017C01B801110F17
:10344000880B990B0E9410389B01AC01C701B60193
:103450000E9459399B01AC01C301B2010E94593944
:1034600020E030E94EEB54E40E9458396D837E83AE
:103470008F839887F10144805580668077808081B2
:103480009181A281B38189839A83AB83BC836301D9
:1034900052017C018D012D813E814F8158856985C6
:1034A000C1010E94331620E030E044EB54E40E9456
:1034B000E5392D813E814F8158850E9459399B0104
:1034C000AC01E980FA800B811C816985C1010E94F1
:1034D00033166B017C01AC019B010E94F73B81110B
:1034E00049C020E030E040E752E4F1016085718599
:1034F000828593850E946F38A70196010E945939F1
:103500006B017C0120E030E0A9010E947F3B20E0BC
:1035100030E040E05FE387FD28C0C701B6010E94AC
:1035200059390E94573AFA8590E080E0FF2311F064
:103530008CE390E0860F971F2A960FB6F894DEBFB3
:103540000FBECDBFDF91CF911F910F91FF90EF90F4
:10355000DF90CF90BF90AF909F908F907F906F90B3
:103560005F904F903F902F900895C701B6010E9441
:103570005839D7CF8FEF9FEFDFCF6F927F928F9227
:103580009F92AF92BF92CF92DF92EF92FF920F93F2
:103590001F93CF93DF93CDB7DEB72C970FB6F89478
:1035A000DEBF0FBECDBF6091A8027091A902072EA9
:1035B000000C880B990B0E94103820E030E040E8A6
:1035C0005EE30E946F384B015C016091A302709131
:1035D000A402072E000C880B990B0E9410386B0177
:1035E0007C016091A5027091A602072E000C880B49
:1035F000990B0E94103869837A838B839C83CD82D8
:10360000DE82EF82F88689869A86AB86BC86209118
:10361000440130914501409146015091470160912C
:1036200048017091490180914A010E94D60A609038
:103630004801712C80904901912CA0904A01B12C35
:1036400040E3A41A48EFB40AE82E83019401A501CF
:1036500061E0CE0101960E9495196C019401A501CB
:1036600060E0CE0101960E9495199C01E091AB02A9
:10367000E230E0F0F0E0E658FE4F8081A6016AE01B
:103680008602400D511D1124CA01813A45E094077C
:1036900010F090E080E06CE370E00E942B3C683119
:1036A00009F460E06093100180930F01E091AA0299
:1036B000E230E0F0F0E0E658FE4F8081A90166EFCD
:1036C0008602400D511D1124CA01813A45E094073C
:1036D00010F090E080E06CE370E00E942B3C6831D9
:1036E00009F460E0609309018093080140917F0232
:1036F00050918002D901AC19BD09A41BB50B24E679
:1037000030E00E94883C2091810230918202241B8B
:10371000350B032E000C440B550B0E943F3C30E050
:1037200030937902209378022C960FB6F894DEBF7E
:103730000FBECDBFDF91CF911F910F91FF90EF9002
:10374000DF90CF90BF90AF909F908F907F906F90C1
:10375000089585ED8093BC0080916403909165038A
:10376000A0916603B09167030796A11DB11D23E0E8
:10377000B695A795979587952A95D1F72091BC0086
:1037800024FD03C010926203089540916403509198
:1037900065036091660370916703452B462B472BA9
:1037A00069F30097A105B10541F025E32A95F1F7EA
:1037B00000000197A109B109E1CF809163030C9446
:1037C00062094F925F926F927F928F929F92AF9217
:1037D000BF92CF92DF92EF92FF920F931F93CF93FE
:1037E000DF93CDB7DEB762970FB6F894DEBF0FBE9A
:1037F000CDBF882E6090DE027090DF02809198022B
:10380000882371F029E0269DC001279D900D112489
:1038100065E070E00E942B3C3B0120E2620E711CCF
:103820001091AC02912C112329F0909094029110E8
:103830009090930285E099E00E94130755245394D9
:103840005092C30382E08093C80385100FC2809119
:10385000B8028150833008F0D0C0112309F4C2C0EF
:103860000BEE11E06BEEA62E61E0B62E6501750140
:103870002FEF38E040E070E060E090E080E00E94F0
:1038800095108091B8020E94020D6F87788B898B0A
:103890009A8B40907B0250907C0260907D027090E9
:1038A0007E020E94DE0838EE430E33E0531E611C98
:1038B000711C2F85388949895A89420E531E641E0E
:1038C000751E461A570A680A790A80914B018230A0
:1038D00008F08BC08091E002823019F0843009F04A
:1038E00084C04091C2025091C30270E060E020E0C9
:1038F0008CE692E00E94C30B7C01C301B2010E94DE
:10390000580C31E843163EEE530636E36306710465
:1039100008F470C029EF38E04BEEA42E41E0B42E3D
:1039200065018C0140E066E070E090E080E00E947C
:10393000951083EC95E00E9413071092C30381E079
:103940008093C803992029F08091B602873009F44A
:1039500078C140913D0150E070E060E021E080EFEF
:1039600091E00E94C30B6C0191106FC140913E0128
:1039700050E070E060E021E08CE692E00E94C30B32
:103980007C0191106BC140913F0150E070E060E01C
:1039900021E084E993E00E94C30B4BEEA42E41E0AA
:1039A000B42E8C012CEB35E040E062E070E084E066
:1039B00090E00E94951062960FB6F894DEBF0FBE9D
:1039C000CDBFDF91CF911F910F91FF90EF90DF90CE
:1039D000CF90BF90AF909F908F907F906F905F90AF
:1039E0004F9008950BEA11E03DCF5DEEE52E51E0DA
:1039F000F52E83CF21EF38E08FCFE0914201E150E7
:103A0000FF0BEE0FFF1FE752F74F65917491CE0148
:103A100001960E940238E0914001E150FF0BEE0F49
:103A2000FF1FE553F74F65917491CE010C960E94EC
:103A30000238992029F08091B602843009F4CBC075
:103A40004091430150E070E060E020E08CE692E0BD
:103A50000E94C30B5C01CE0101966C01992009F410
:103A6000BFC08091B60218EEC12E11E0D12E833076
:103A700009F4B6C0AE014F5F5F4F6A01823009F0B2
:103A8000AFC0809141018A3008F0BAC08AEE91E05F
:103A9000AE014F5F5F4F6A012091B60209EE11E05F
:103AA000213009F0A9C0209141012A3008F0AFC0AF
:103AB00023EB38E07C0140E070E060E090E080E0E3
:103AC0000E949510E091B902F0E0EE0FFF1FEF5356
:103AD000F74F65917491CE0101960E940238809152
:103AE0004B01823008F0A1C08091E002823019F0D1
:103AF000843009F09AC0C30109968D36910508F00B
:103B000089C03AE06316710408F089C025E030E00E
:103B100085E090E0820F931F2091C2023091C30292
:103B20002A30310508F07EC025E030E02C01420E3D
:103B3000531E27E046E06FEF640D8AEB93E00E948E
:103B4000AC0E10914B01123008F073C08091E0026E
:103B5000823019F0843009F06CC04091C20250915B
:103B6000C30270E060E020E08CE692E00E94C30BAC
:103B70005C0180919802E6EBCE2EE1E0DE2E811111
:103B800004C078EBC72E71E0D72E123008F056C073
:103B90008091E002882309F451C0A301770C660BE1
:103BA000770B20E084E993E00E94C30B2091B902D7
:103BB000211106C02091AC0209EE11E0211103C0D1
:103BC0008E010F5F1F4F7C0129E938E040E066E07D
:103BD00070E0C201ACCE09EEA02E01E0B02E41CFC4
:103BE0004091410150E070E060E020E084E993E022
:103BF0000E94C30B911050CF8E01045F1F4F53CF13
:103C000089EE91E09E012F5F3F4F690145CF24EA85
:103C100038E050CF21E030E090E080E07BCF25E03D
:103C200030E0FACF30E020E081CFA5E04A2E512CE1
:103C300080CFFDEEAF2EF1E0BF2E9BCF8DEE91E059
:103C4000B5CF6AEBC62E61E0D62E8091B6028630E3
:103C500009F08CCE5AEBE52E51E0F52E8091B6029C
:103C6000853009F090CE8AEB91E097CE42E0841245
:103C7000FAC03BEEA32E31E0B32E6501750185013C
:103C80002CEA35E041E070E060E090E080E00E94E6
:103C900095105092C8030091A8021091A902C80182
:103CA00064E070E00E942B3C0097A1F097FF03C0F6
:103CB0009195819591098130910509F4BAC021EC63
:103CC000C22E21E0D22E029749F0B5ECCB2EB1E006
:103CD000DB2E04C09BEEC92E91E0D92EA80117FF60
:103CE00002C04D5F5F4F5595479555954795052EF9
:103CF000000C660B770B20E084E993E00E94C30B75
:103D000017FF9CC00D5F1F4F0730110508F099C0C9
:103D10000EEE11E0992009F497C02091B6022130EF
:103D200009F092C020EA35E0FBEEAF2EF1E0BF2EA5
:103D30007C0140E062E070E090E080E00E9495103D
:103D4000992031F08091B6020BEE11E0823041F003
:103D50008091A7020BEC11E0811102C00EEC11E082
:103D6000EBEEAE2EE1E0BE2E650175012CE735E0ED
:103D700040E063E070E090E080E00E9495100091E8
:103D8000A5021091A602C80109967AEEC72E71E02D
:103D9000D72E439720F06BEEC62E61E0D62EA801F9
:103DA000012E000C660B770B20E084E993E00E9463
:103DB000C30B17FD4CC009EC11E0992009F44AC06F
:103DC0002091B602233009F045C020E735E05BEED4
:103DD000A52E51E0B52E7C0140E064E070E090E05B
:103DE00080E00E9495100091A3021091A402A80106
:103DF000012E000C660B770B20E084E993E00E9413
:103E0000C30B17FD2AC009EC11E0992049F120915C
:103E1000B602243029F525E535E04BEEA42E41E02D
:103E2000B42E65017C0140E065E070E090E080E048
:103E3000C0CD8DEBC82E81E0D82E50CF09EC11E01B
:103E400069CF0BEE11E066CF20E935E06DCF0BEEC8
:103E500011E0B3CF22E635E0BACF0BEE11E0D5CFBB
:103E600026E435E0DACF8DEF880D823008F094C17A
:103E700053E0851244C1E091AB02F0E0EE0FFF1F6A
:103E8000EC5CFA4F65917491CE0101960E94023864
:103E900083E002ED11E0881611F004ED11E09BEED5
:103EA000A92E91E0B92E6501750124E135E041E0CC
:103EB00070E060E090E080E00E94951081E08093E7
:103EC000C803992031F08091B6020BEE11E08130E9
:103ED00019F08E010F5F1F4F8BEEA82E81E0B82ED8
:103EE000650175012BE035E040E062E070E090E0B4
:103EF00080E00E949510992029F08091B6028330CD
:103F000009F405C193E040910F0189124091080125
:103F100050E070E060E021E08CE692E00E94C30B8C
:103F20007C01992029F08091B602823009F4F4C016
:103F300023E04091100182124091090150E070E0AD
:103F400060E021E084E993E00E94C30B1BEEA12E08
:103F500011E0B12E65018C0120E035E040E063E026
:103F600070E090E080E00E94951033E0E091A202C2
:103F70008312E0919D02E150FF0BEE0FFF1FEA520A
:103F8000FB4F65917491CE0101960E940238809199
:103F9000AC02882371F08091B602843051F4809194
:103FA0009402882331F0809193020BEE11E081118D
:103FB00003C08E010F5F1F4FABEEAA2EA1E0BA2EF9
:103FC0006501750129EC34E040E064E070E090E0C8
:103FD00080E00E94951043E08091A0029091A102A0
:103FE000841621F080919B0290919C0222E3289FED
:103FF000A001299F500D1124052E000C660B770B94
:1040000020E084E993E00E94C30B8C01992029F001
:104010008091B602853009F49BC053E085127FC0C1
:104020008091A0029091A102892B09F4F4C324EAA3
:1040300034E0FBEEAF2EF1E0BF2E6501750140E0EC
:1040400065E070E090E080E00E94951083E08812C7
:104050007CC040919F0250E070E060E020E084E985
:1040600093E00E94C30B8C01992029F08091B60245
:10407000863009F486C093E089126DC080919F025A
:10408000882309F4D8C32CE634E0EBEEAE2EE1E051
:10409000BE2E6501750140E066E070E090E080E0D2
:1040A0000E94951023E0821269C040919E02415007
:1040B000550B052E000C660B770B20E084E993E08E
:1040C0000E94C30B8C01992031F08091B6022BE441
:1040D00034E0873051F033E090919E02831290914A
:1040E0009902911151C02DE234E07BEEA72E71E0D0
:1040F000B72E6501750140E067E070E097CEE09172
:10410000AA02F0E0EE0FFF1FEE5DFA4FBBCE0BEE02
:10411000E02E01E0F02E07CF89EE91E017CF8091DD
:104120009B0290919C02892B09F081CF2BEEA22E4D
:1041300021E0B22E6501750120E934E040E065E040
:1041400070E090E080E00E94951040919A0283CF49
:1041500028EB34E06ECF80919A02811194CF8BEEE0
:10416000A82E81E0B82E6501750128E534E040E015
:1041700066E070E090E080E00E9495104091990226
:1041800096CF2FE734E081CF2CE134E0913009F471
:10419000ACCF2DE334E0A9CF45E0841238C16BEEFB
:1041A000A62E61E0B62E6501750185012EE034E092
:1041B00041E070E060E090E080E00E949510509255
:1041C000C8032091980260919702222309F4FBC052
:1041D0006550770B39E0369FC001379F900D112451
:1041E00065E070E00E942B3C3B0150E2650E711CC3
:1041F0009110EFC006ED11E05BEEA52E51E0B52E5B
:10420000650175012DEF33E040E062E070E090E081
:1042100080E00E949510A301072C000C660B770B21
:1042200020E084E993E00E94C30B09EC11E077FEE3
:1042300002C00BEE11E0992029F02091B602223045
:1042400009F4D3C020919702222309F4D1C0209110
:104250009802222309F4CFC024EC33E04BEEA42EC5
:1042600041E0B42E65017C0140E063E070E090E045
:1042700080E00E949510992029F08091B602833049
:1042800009F4BCC0809196020AEE11E0882341F047
:104290008091980206EB11E0811102C008EB11E059
:1042A000992029F08091B602833009F4AAC0409188
:1042B00096028EEC91E04423E9F050E0435E5F4FBC
:1042C00080919802882369F029E0249FC001259FEE
:1042D000900D112465E070E00E942B3CAB01405E24
:1042E0005F4F052E000C660B770B20E084E993E00E
:1042F0000E94C30BBBEEAB2EB1E0BB2E6501780173
:104300008C012FEA33E040E064E070E090E080E070
:104310000E949510992029F08091B602843009F40A
:1043200073C04091BC025091BD02052E000C660B7B
:10433000770B20E084E993E00E94C30B992031F0D1
:104340002091B6020AEE11E0243051F02091BC0217
:104350003091BD0209EC11E037FF02C00BEE11E015
:104360007BEEA72E71E0B72E65017C012AE933E0D0
:1043700040E065E070E090E080E00E949510E09100
:10438000E002F0E0EE0FFF1FE057FC4F65917491E3
:10439000CE0101960E940238992031F08091B60238
:1043A0000BEE11E0853019F08E010F5F1F4F6BEEA1
:1043B000A62E61E0B62E6501750125E833E040E0E8
:1043C00066E070E033CD862F8550990B3C01992033
:1043D00049F08091B6020BEE11E0813009F40CCF68
:1043E000211108CF0FED11E007CF21EF33E036CFD9
:1043F00023ED33E033CF22EE33E030CF0AEE11E08D
:1044000051CF87EE91E076CF88EE91E099CF96E09C
:10441000891235C04BEEA42E41E0B42E6501750122
:10442000850124E733E041E070E060E090E080E067
:104430000E949510E0919502E150FF0BEE0FFF1FD7
:10444000EA52FB4F65917491CE0101960E940238A9
:10445000992031F08091B6020BEE11E0813019F015
:104460008E010F5F1F4F3BEEA32E31E0B32E65018F
:1044700075012CE633E040E064E070E0D7CC27E043
:104480008212C1C02BEEA22E21E0B22E6501750171
:1044900085012CE533E041E070E060E090E080E0F1
:1044A0000E949510F09098020091BE021091BF02F8
:1044B000FF2069F029E0209FC001219F900D112469
:1044C00065E070E00E942B3C8B01005E1F4F409125
:1044D0001A0150E070E060E021E080EF91E00E947E
:1044E000C30B5C0140911B0150E070E060E021E0F3
:1044F0008CE692E00E94C30B6C01FF2009F479C0A6
:1045000096EBE92E91E0F92EA801110F660B770BBF
:1045100020E084E993E00E94C30B8C0123E533E0A3
:1045200040E062E070E090E080E00E9495108091B1
:10453000980206EBE02E01E0F02E811104C018EB8A
:10454000E12E11E0F12EA301770C660B770B20E032
:1045500084E993E00E94C30BBBEEAB2EB1E0BB2E0F
:1045600065018C012EE433E040E064E070E090E00F
:1045700080E00E949510F09098020091C002109186
:10458000C102FF2069F029E0209FC001219F900D0A
:10459000112465E070E00E942B3C8B01005E1F4FF0
:1045A0004091210150E070E060E021E080EF91E077
:1045B0000E94C30B5C014091220150E070E060E07A
:1045C00021E08CE692E00E94C30B6C01FF20B1F069
:1045D000A6EBEA2EA1E0FA2EA801110F660B770BCD
:1045E00020E084E993E00E94C30B8C0125E433E0D2
:1045F000E6CE88EBE82E81E0F82E86CFF8EBEF2EA2
:10460000F1E0FF2EE9CF38E08312D5C95092C803FC
:10461000EBEEAE2EE1E0BE2E65017501850125E3CE
:1046200033E040E070E060E090E080E00E949510B0
:1046300024E233E040E061E070E090E080E00E943E
:1046400095104091120150E070E060E021E080EFB1
:1046500091E00E94C30B6C014091130150E070E0A7
:1046600060E021E08CE692E00E94C30B7C01409167
:10467000140150E070E060E021E084E993E00E94E2
:10468000C30B8C0122E133E040E062E070E090E097
:1046900080E00E94951081E00E94020D0E94580C5B
:1046A000650175018C0126E033E040E063E070E0D5
:1046B00090E080E00E94951040910B0150E070E086
:1046C00060E021E080EF91E00E94C30B6C0140911B
:1046D0000C0150E070E060E021E08CE692E00E9486
:1046E000C30B7C0140910D0150E070E060E021E0DF
:1046F00084E993E00E94C30B8C0124EF32E040E098
:1047000064E070E090E080E00E94951082E00E94FA
:10471000020D0E94580C650175018C0128EE32E0F3
:1047200040E065E070E090E080E00E9495100E941B
:10473000B70D8C019093BB028093BA020E94730D57
:10474000AC01990F660B770B20E08CE692E00E949B
:10475000C30B7C01A801110F660B770B20E084E9E5
:1047600093E00E94C30B8C012BED32E040E066E049
:1047700070E090E080E00E9495108091980276EBC6
:10478000A72E71E0B72E811104C068EBA62E61E060
:10479000B62E80914B01823088F51091E0021123F2
:1047A00069F1A301770C660B770B20E080EF91E0B5
:1047B0000E94C30B6C01123011F0143039F5409196
:1047C000C2025091C30270E060E020E08CE692E00B
:1047D0000E94C30B7C01123011F01430A1F44091FF
:1047E000DA025091DB0270E060E020E084E993E0BF
:1047F0000E94C30B8C012AEC32E07DCC5DEEE52EED
:1048000051E0F52E67018CEE91E0F4CF4DEEE42EF1
:1048100041E0F42EF8CF3BEEA32E31E0B32E65013C
:10482000750120E934E040E065E070E090E080E070
:104830000E9495100ECC9BEEA92E91E0B92E650139
:10484000750128E534E040E066E070E090E080E04B
:104850000E9495102ACC1F920F920FB60F9211242E
:104860002F933F938F939F93AF93BF938091410278
:1048700090914202A0914302B091440230914002D3
:1048800023E0230F2D3758F50196A11DB11D20936C
:1048900040028093410290934202A0934302B0935E
:1048A00044028091450290914602A0914702B09146
:1048B00048020196A11DB11D8093450290934602C6
:1048C000A0934702B0934802BF91AF919F918F91FF
:1048D0003F912F910F900FBE0F901F90189526E8D3
:1048E000230F0296A11DB11DD2CF1F920F920FB6BA
:1048F0000F9211242F933F934F935F936F937F9366
:104900008F939F93AF93BF93EF93FF93E091020137
:10491000F09103010995FF91EF91BF91AF919F91A4
:104920008F917F916F915F914F913F912F910F9058
:104930000FBE0F901F9018951F920F920FB60F92F7
:1049400011242F933F934F935F936F937F938F9394
:104950009F93AF93BF93EF93FF93E0910001F0918A
:1049600001010995FF91EF91BF91AF919F918F91B7
:104970007F916F915F914F913F912F910F900FBE5B
:104980000F901F9018951F920F920FB60F9211243F
:104990002F933F934F935F936F937F938F939F9347
:1049A000AF93BF93EF93FF938091B900887F8036D8
:1049B00009F44AC0F0F5883209F4A7C018F580312F
:1049C00009F49BC0B8F4882309F4F9C0883009F4CD
:1049D00094C0FF91EF91BF91AF919F918F917F9183
:1049E0006F915F914F913F912F910F900FBE0F905C
:1049F0001F901895883109F488C0803251F7809350
:104A0000600314C0803409F49DC040F48033B9F3CE
:104A10008833F9F68093600385ECB0C0803509F4E3
:104A200085C0883509F496C0883499F60E94A91B80
:104A3000D0CF883909F48CC038F5883729F050F484
:104A4000883611F0803729F683E080936203109254
:104A50003F0257C0883809F47BC0803919F080388C
:104A600009F0B7CF80913F02803208F071C0E09129
:104A70003F0281E08E0F80933F028091BB00F0E007
:104A8000E15EFD4F80833DC0803B39F0E0F4803A29
:104A900009F479C0883A09F09CCF84E080936203DE
:104AA00010921E0210921D02E0914C02F0914D02F4
:104AB000099580911D0281110FC081E080931D0234
:104AC0001092FD0109C0803C09F4A6CF883C09F48E
:104AD000A3CF883B09F07DCFE0911E0281E08E0FCD
:104AE00080931E02F0E0E350FE4F80818093BB0074
:104AF00090911E0280911D0229C080913D038093F8
:104B0000BB0085EC8093BC0064CF90915F038091E3
:104B10005E03981758F5E0915F0381E08E0F809354
:104B20005F03F0E0E25CFC4F8081E9CFE0915F033E
:104B300081E08E0F80935F038091BB00F0E0E25C28
:104B4000FC4F808390915F0380915E039817C8F2B9
:104B500085E8D8CFE0915F0381E08E0F80935F03FB
:104B60008091BB00F0E0E25CFC4F808380916103A8
:104B700081115CCF81E080933C0384EA8093BC0088
:104B80001092620326CF85EC8093BC0010926203E2
:104B900080913F02803230F4E0913F02F0E0E15E2C
:104BA000FD4F108260913F0270E0E0914A02F09167
:104BB0004B028FE192E0099510923F020ACF1092CA
:104BC000600334CF1F920F920FB60F9211240F90F3
:104BD0000FBE0F901F9018951F920F920FB60F9255
:104BE00011240F900FBE0F901F9018951F920F92D7
:104BF0000FB60F9211248F938091E6028F5F8093FE
:104C0000E6028F910F900FBE0F901F901895E0EA6B
:104C1000F3E01382128288EE93E0A0E0B0E0848398
:104C20009583A683B7838FE891E091838083EAEB35
:104C3000F3E013821282128614861386158681E0B1
:104C4000868781EA91E09183808360E081E10E9420
:104C50004A08E1EAFCE0E491ACEAB3E0EC93EDE869
:104C6000FCE0E491F0E0EE0FFF1FEE58F34F85916A
:104C7000949112969C938E9311971B961C921B975E
:104C80001D961C921D971C961C921C971A961C929E
:104C90001A9719961C92199718961C92189717969E
:104CA0001C92179716961C92169715961C9215979C
:104CB00014961C92149713961C920895CF93DF9329
:104CC000CDB7DEB7E3970FB6F894DEBF0FBECDBF0A
:104CD000789484B5826084BD84B5816084BD85B5D7
:104CE000826085BD85B5816085BD80916E008160E3
:104CF00080936E0010928100809181008260809389
:104D0000810080918100816080938100809180008A
:104D10008160809380008091B10084608093B100B5
:104D20008091B00081608093B00080917A008460AF
:104D300080937A0080917A00826080937A008091DB
:104D40007A00816080937A0080917A0080688093F5
:104D50007A001092C100A895F89414BE809160006A
:104D600088618093600089E280936000789488E491
:104D70008093B8006AE070E080E090E00E94AB08A9
:104D800061E080E00E944A086DE471E086E990E00D
:104D90000E94E40C61E08FE00E944A0860E08FE02E
:104DA0000E941C086AE070E080E090E00E94AB087E
:104DB00061E08FE00E941C086AE070E080E090E013
:104DC0000E94AB0889E08093C9038AE08093CA03FC
:104DD00061E089E00E944A0861E08091CA030E9474
:104DE0004A081FB7F89480914902811127C0E6E86C
:104DF000FCE08491EAE9FCE09491E82FF0E0EE0F0A
:104E0000FF1FE75CF44FA591B491EC91E92321F4E5
:104E100061E08AE00E941C0861E08AE00E944A0882
:104E20008CB580618CBD8CB580648CBD61E08DE0FB
:104E30000E944A0861E08BE00E944A088091490282
:104E40008F5F809349021FBF1092BE031092BF0371
:104E5000E6EEFBE0C590D490E8EEFBE0F490E9EEDE
:104E6000FBE0E491E093C003EAEEFBE0E491E09321
:104E7000C103EBEEFBE0E491E093C20310E000E03D
:104E80000F1558F4F601E00FF11F64918AEB93E0DF
:104E90000E947A0E0F5F1F4FF3CF8AEB93E00E94C0
:104EA000E20E61E88AEB93E00E947A0E66EE8AEBEE
:104EB00093E00E947A0E8AEB93E00E94E20E61EE8C
:104EC0007BE090E080E00E9472116DE471E080E090
:104ED00090E00E94AB0862E082E00E944A0862E033
:104EE00081E00E944A0862E084E00E944A0862E091
:104EF00083E00E944A0861E088E00E944A0860E07E
:104F000088E00E941C0860E080E10E944A086AE094
:104F100070E080E090E00E94AB080E9408140FEF60
:104F20001FEF62E389E093E00E94060990913B0342
:104F3000891709F446C00F3F100709F042C08AEBF9
:104F400093E00E94E20E69ED7BE082E090E00E9437
:104F5000721162ED7BE084E090E00E94721166ECD9
:104F60007BE086E090E00E94721181E00E94F307EE
:104F70008C01019751F58AEB93E00E94E20E60EC00
:104F80007BE090E080E00E94721183E00E94F307D2
:104F9000892B61F48AEB93E00E94E20E68EB7BE0E0
:104FA00090E080E00E94721103E010E065E070E0A4
:104FB00080E090E00E94AB08A8950F3F1007A9F28F
:104FC000B0CF0330110521F4FFCF0FEF1FEFDDCF7E
:104FD00001301105D9F442E350E066E87BE089E056
:104FE00093E00E94F9370E94C8112091440130914A
:104FF00045014091460150914701609148017091EF
:10500000490180914A010E941B12FFCFA89580910F
:1050100009038093980280910A038053990B90931F
:10502000A9028093A80280910B038A55990B909353
:10503000A6028093A50280910D03282F30E0322F25
:10504000222780910C03820F932F911D845B91097D
:105050009093A4028093A30280910E038093970201
:1050600080910F038093E002809110038093A70248
:105070008091110390E09093A1028093A00280910F
:105080001303282F30E0322F222780911203820F42
:10509000932F911D805F91099093BD028093BC0274
:1050A000809114038093AB028091150380931001CB
:1050B0008091160380930F01809117038093A202C1
:1050C0008091180380931401809119038093130138
:1050D00080911A038093120180911B038093AA028E
:1050E00080911C038093090180911D038093080126
:1050F00080911E0380939D0280911F0380930D0178
:105100008091200380930C018091210380930B01F7
:105110008091220380939E028091230380939F02BB
:105120008091250390E0982F882720912403820FF7
:10513000911D9093800280937F028091270390E0DD
:10514000982F882720912603820F911D9093820229
:10515000809381028091280390E09093790280935C
:105160007802809129038093950280912A0380938D
:10517000960280912B038093260180912C038093CB
:10518000250180912D038093240180912E038D575A
:10519000990B9093C1028093C00280912F0380935A
:1051A000220180913003809321018091310380930B
:1051B0001F018091320380931E01809133038093FD
:1051C0001D01809134038D57990B9093BF028093FA
:1051D000BE028091350380931B018091360380933A
:1051E0001A0180913703809399028091380380934C
:1051F0009A028091390390E090939C0280939B02E5
:105200006FE77BE082E090E00E9472116DE471E054
:1052100080E090E00E94AB080E94E00D0E94B70D74
:105220009093BB028093BA0288E60E945E0760E01A
:1052300080EA93E00E94A70A0E948309882359F01C
:1052400061E080E00E941C0863E47BE090E080E085
:105250000E947211FFCF61E070E088E690E00E944A
:105260002F130E947B0787FF0FC088E60E945E070E
:1052700060E080EA93E00E94A70A60E080EA93E0A1
:105280000E94A70A0E94830965E070E080E090E038
:105290000E94AB0888E60E945E0767E080EA93E020
:1052A0000E94A70A60E180EA93E00E94A70A0E9498
:1052B0008309882359F061E080E00E941C0867E7B9
:1052C0007BE084E090E00E947211FFCF60E77BE01A
:1052D00084E090E00E9472116DE471E080E090E063
:1052E0000E94AB08A8950E94970D8093B902809107
:1052F000E002813061F469E67BE086E090E00E94A4
:1053000072116DE471E080E090E00E94AB08809142
:10531000E002823079F51092080310920703109290
:10532000690310928B030E9444098BE997E09093E4
:105330004D0280934C028CE997E090934B0280934E
:105340004A0280E20E945E0766E080EA93E00E94E3
:10535000A70A0E948309882309F489C061E67BE0DB
:1053600086E090E00E94721160ED77E080E090E0CE
:105370000E94AB088091E0028350823040F588E2C1
:105380008093AF031092B0031092B1031092B20356
:105390001092B3031092B4031092B5031092B603A7
:1053A00080E48093B7031092B8031092B9030E946F
:1053B000B912811167C062E57BE086E090E00E944F
:1053C000721160ED77E080E090E00E94AB08A89554
:1053D0006DE471E086E990E00E94E40C6DE471E018
:1053E00086E990E00E94E40C6DE471E086E990E0CB
:1053F0000E94E40C8AEB93E00E94E20EA89585E9F6
:1054000097E09093010180930001809169008C7F67
:10541000826080936900E89A1AE0412E512C612C39
:10542000712CAE01465F5F4F5FA74EA7BBE32B2EEB
:10543000B1E03B2EA8958090E6029090E50288208E
:1054400011F40C94DA371092E60291100C94D637CE
:105450001092E4028091E302882311F40C94E03767
:105460000E94691081E08093E2020C94E0376AE5C3
:105470007BE086E090E00E9472116DE471E080E0D4
:1054800090E076CF6BE47BE086E090E00E947211C2
:105490006DE471E080E090E098CF8091E1028111AD
:1054A0000C94E0378091E402893700F181E0809329
:1054B000E3021092E4021092E1021092B6021092FE
:1054C000B502809318018AEB93E00E94E20E6EEA27
:1054D0008AEB93E00E947A0E6DEA8AEB93E00E94D9
:1054E0007A0E6AE88AEB93E00E947A0E8091E302DA
:1054F0008111EBC181E00E94F30711E0892B09F4CF
:1055000010E080919202181751F00E94DE0860931B
:105510008E0270938F0280939002909391020E946A
:10552000DE0820910601C0908E02D0908F02E0909C
:105530009002F09091026C197D098E099F096A31E1
:1055400071058105910518F012131093060110934F
:10555000920284E00E94F30711E0892B09F410E025
:1055600080918D02181751F00E94DE086093890225
:1055700070938A0280938B0290938C020E94DE08C3
:10558000C0908902D0908A02E0908B02F0908C0249
:105590006C197D098E099F096A3171058105910594
:1055A00028F08091050118131093050110938D02C6
:1055B00083E00E94F30711E0892B09F410E0809149
:1055C0008802181751F00E94DE08609384027093DD
:1055D000850280938602909387020E94DE08C09025
:1055E0008402D0908502E0908602F09087026C19C8
:1055F0007D098E099F096A3171058105910528F0A1
:105600008091040118131093040110938802809173
:105610008302909106012091AC02222381F1811135
:105620002EC080911801E82FF0E0EE57FE4F208148
:10563000222329F13091B502353108F191111FC0B3
:105640009091B80291110C94E4339091E10231E011
:1056500093279093E102911101C020E02093B602BC
:1056600091110AC09FEF980F933010F00C943433CF
:105670000E94BD1A0E94641481E08093830280918D
:10568000060190918302992331F0882321F0109232
:1056900083021092B5021091E102112311F40C94CF
:1056A0000E3481110C94123480911701813021F451
:1056B000109217011092E40280919402882351F015
:1056C0008091B5028C3030F080910501811102C0CB
:1056D0001092940280919402811107C0809105017B
:1056E000882319F081E080939402809193028823AB
:1056F00051F08091B5028C3030F08091040181111D
:1057000002C01092930280919302811107C0809190
:105710000401882319F081E0809393028091830231
:1057200081111AC0809116019091050191110C947C
:10573000C437813021F4109216011092E402809156
:1057400015019091040191110C94CD37813021F411
:10575000109215011092E4020E94DE08C090B1027E
:10576000D090B202E090B302F090B4026C197D09BF
:105770008E099F09673471058105910508F477C08A
:105780000E94DE086093B1027093B2028093B3026C
:105790009093B40281E00E94F307892B11F00C94DE
:1057A0001D348091B5028F5F8093B5021092E402A0
:1057B00080911701811128C082E0809317018091A8
:1057C000B602E0911801813011F00C943534E330C9
:1057D00011F00C942F349091AB02923010F40C9491
:1057E000353484E08093B60221E02093B7023091F3
:1057F000B602F0E0EE57FE4F808190E00196381738
:10580000190611F42093B60290911601992321F004
:1058100080911501811110C021E02093B702111170
:105820000C9457348091E202882311F40C9438349C
:105830001092E2021092B7028091160181110C942D
:10584000AC3782E0809316018091150181110C9490
:10585000B83782E0809315018091E102811104C084
:105860008091B802882319F081E08093B7020E94EA
:10587000DE080091AD021091AE022091AF0230918E
:10588000B002601B710B820B930B693C71058105A3
:105890009105D8F08091AC0291E089278093AC0209
:1058A0000E94DE086093AD027093AE028093AF0257
:1058B0009093B0028091E102811104C08091B802FE
:1058C000882319F081E08093B7028091E30281116F
:1058D0000AC08091B702882331F0809118010E949C
:1058E000E11B1092B7028091E302882309F445C0BE
:1058F00083B7817F846083BF83B7816083BFF8945F
:10590000809164008F6E8093640085B7806685BF48
:105910008F7D85BF78948091680084608093680053
:1059200080916D00826080936D0080916D00886031
:1059300080936D0080916D00806180936D00DA9A94
:10594000889583B78E7F83BF809164008071809338
:1059500064008091680084708093680080916D007D
:10596000827080936D0080916D00887080936D00CF
:1059700080916D00807180936D0062E070E080E046
:1059800090E00E94AB0880E090E0892B09F452CDB2
:105990000E9400004BCD882009F484CD8091B8028C
:1059A000811117C48091E302811105C08091E40246
:1059B0008F5F8093E402A0903D01B0903E01C090C3
:1059C0003F01D0904001E0904101F09042010091F0
:1059D0004301209107013091080140910901509144
:1059E0000A0160910B0170910C0180910D0110C4AE
:1059F00067E070E088E690E00E942F13D0900703E4
:105A000080910803D81609F4B7C30E947B07982F2A
:105A100092959770282F2F70A22E5AE0959FA00C78
:105A2000112490910803D9120E947B07282F2F7010
:105A3000982F92959F70B22EAAE09A9FB00C1124D5
:105A400090910803D9120E947B07982F929593702A
:105A5000082F0F70BAE09B9F000D1124909108034E
:105A6000D9120E947B07282F2F70982F92959F7034
:105A7000C22EEAE09E9FC00C112490910803D91217
:105A80000E947B07282F2F70982F92959F70E22EEF
:105A9000FAE09F9FE00C112490910803D9120E9414
:105AA0007B07282F2F70982F92959F70F22E3AE047
:105AB000939FF00C112490910803D9120E947B0748
:105AC000982F92959F708F70182F4AE0949F100D19
:105AD0001124A0924401B092450100934601C09266
