:100000000C9477060C9408240C94E1230C9454254A
:100010000C949F060C945E250C944A250C949F0624
:100020000C949F060C949F060C949F060C949F06BC
:100030000C949F060C949F060C949F060C949F06AC
:100040000C9497230C949F060C949F060C949F0687
:100050000C949F060C949F060C949F060C949F068C
:100060000C942F240C949F06036EDB363D9A9999CD
:10007000993DABAAAA2A3E000000803F072C7AA532
:10008000BA6CC590DA3B9365FC8BBC53F810FD3C11
:100090005692834DBD879D3AB63DCBC9BF5BBE73BB
:1000A000DA0FC93F05A84CCDB2D44EB93836A902F3
:1000B0000C50B9918688083CA6AAAA2ABE00000066
:1000C000803F0664EC1B3C04BC163E3BE5B93CC9D2
:1000D0003C37C29E5A3D660498083EEA69AAAA3E89
:1000E000000000803F00335B5B5D486F75727300FA
:1000F00032482033304D00325B5B5D486F75727360
:100100000031482033304D003120486F7572003582
:1001100030204D696E003430204D696E0033302040
:100120004D696E003235204D696E003230204D69C8
:100130006E003135204D696E003130204D696E0002
:1001400039204D696E0038204D696E0037204D69A9
:100150006E0036204D696E0035204D696E003420EA
:100160004D696E0033204D696E0032204D696E007E
:1001700031204D696E0044534B2B39300044534BB2
:100180002B36300044534B2B33300044534B2D332C
:10019000300044534B2D36300044534B2D39300042
:1001A0004455534B0044574E2B39300044574E2B87
:1001B00036300044574E2B33300044574E2D3330E9
:1001C0000044574E2D36300044574E2D39300044F0
:1001D00041574E004D414E55414C004F464600227E
:1001E00023002227003B27005F27006027005341A0
:1001F000004652005448005744005455004D4F00EB
:10020000535500444543004E4F56004F435400534E
:10021000455000415547004A554C004A554E004D47
:10022000415900415052004D415200464542004A5A
:10023000414E00AED580A83FD300408D142002A1CE
:10024000C8DA12817FD9F1DB40A4A6AF434C4B45FD
:10025000522D5700434C4B45522D530048554D3DB0
:100260002620262520544D503D26265E0056434329
:100270003D26204241543D265E004455524154499A
:100280004F4E3D265E004C41535420414C323D328E
:1002900030262D262D265E004455524154494F4E9E
:1002A0003D265E004C41535420414C313D323026B6
:1002B0002D262D265E005757572E50494341504F4B
:1002C000542E434F4D5E0053554E46592D33323810
:1002D0002056322E315E007C262620263A265E00ED
:1002E0002026265E007B262620263A265E005B5BC3
:1002F0005B54454D50455241545552455E0044753E
:10030000722E3D265E005B5741544552494E475B75
:100310005B5D4E4F575E00434C4F434B2043414C77
:1003200049425241542E3D2026265E004845415404
:10033000574156452041444A5553543D2026265E98
:1003400000534B4950204943453D2026262C5E0052
:10035000534B4950204943453D204F46465E00538C
:100360004B4950204943453D2026267E5E00534B95
:100370004950204943453D205E0054454D5045526B
:100380002E20554E49543D20265E0020205B5B5BAD
:100390004F5054494F4E535E00534B4950204441F7
:1003A00059533D204155544F5E00534B4950204412
:1003B0004159533D204F46465E00534B495020441F
:1003C0004159533D20265E00534B4950204441592A
:1003D000533D205E00534B49502048554D494449F8
:1003E00054593D204F46465E00534B4950204855D6
:1003F0004D49444954593D2026255E00534B4950F0
:100400002048554D49444954593D205E00534541CB
:10041000534F4E2041444A5553543D204F46465E6B
:1004200000534541534F4E2041444A5553543D20BB
:100430002B26255E00534541534F4E2041444A55DB
:1004400053543D205E004455524154494F4E3D2087
:10045000265E0070016A0164015E01580152014C80
:100460000146014001390132012B0124011D011611
:10047000010F0108010101F700F000E60054494DA9
:10048000453D20263A265E004D4F44453D20265EE0
:100490000020205B5B5B414C41524D2D265E00DB12
:1004A00001D401A001990192018B0184017D0176A3
:1004B00001DB01D401CF01C801C101BA01B301AC14
:1004C00001A5014C4F4E4749545544453D20262631
:1004D0005E004C4F4E4749545544453D205E004C0C
:1004E000415449545544453D2026265E004C415414
:1004F00049545544453D205E004441594C494748C4
:100500005420534156494E473D20265E0054494DE4
:10051000455A4F4E453D20262626265E0054494D1D
:10052000455A4F4E453D205E005B5B5B47454F4C57
:100530004F434154494F4E5E00263A263A265E000C
:1005400000000F1B2F0C0000000000000000000046
:10055000000000000000000000000000000000009B
:10056000000000000000000000000000000000008B
:10057000000000000000000000000000000000007B
:1005800000000000C0E0F0F8787878F8F0E0C000F3
:100590000000FEFFFFFF0100000001FFFFFFFE0063
:1005A000001FFFFFFFE0808080E0FFFFFF1F0000D3
:1005B0000000010307070707070301000000000010
:1005C00080C0E0F0F8F8F8F80000000000000F0725
:1005D000030100FFFFFFFF0000000000000080801B
:1005E0008080FFFFFFFF80808080000000070707FA
:1005F000070707070707070707000080E0F0F0F884
:10060000787878F8F0F0E08000000303030300003E
:1006100080C0F0FFFF7F0F000000E0F0FCFEFF8FC6
:100620008783818080800000070707070707070787
:100630000707070707000000C0F0F0F8787878F89F
:10064000F0F0E08000000303030300F0F0F0F8FF97
:10065000FF9F07000018F8F8F8E0808080E1FFFFB6
:10066000FF7F0000000003030707070707030301DC
:10067000000000000000000000C0E0F8F8F8F800FA
:1006800000000080E0F8FC3F0F03FFFFFFFF0000C9
:10069000003F3F3F3F3C3C3C3CFFFFFFFF3C3C00FA
:1006A000000000000000000007070707000000002E
:1006B000C0F8F8F878787878787878000000E0FF6B
:1006C000FF7F3F383C3C7CF8F8F0C0000030F8F881
:1006D000F8E0808080E0FFFFFF1F000000000103C2
:1006E00007070707070301000000000080E0F0F0A3
:1006F000787878F8F8F0E0800000FEFFFFFFF178EE
:100700007878F8F1F1E18100001FFFFFFFC08080E1
:1007100080C0FFFFFF7F00000000010307070707FD
:10072000070303010000007878787878787878F803
:10073000F8F8F878000000000000C0F0FCFF3F0F60
:1007400003000000000000E0FEFFFF1F01000000AA
:10075000000000000000070707070000000000007D
:10076000000000C0E0F0F0F8787878F8F0F0E0C031
:100770000000079FDFFFF8F0F0F0F8FFFF9F070091
:10078000007EFFFFFFC1808080C1FFFFFF7E000071
:1007900000010303070707070703030100000080A8
:1007A000E0F0F0F8787878F8F0E0C00000003FFF63
:1007B000FFFFE0C0C0C0E0FFFFFFFE000070F0F1EF
:1007C000F1C3838383F1FFFF7F0F00000001030764
:1007D00007070707030301000000000000000000F6
:1007E00080808000000000000000000000060F1F55
:1007F0001F1F0F060000000000000000C0E0F0F026
:10080000F0E0C0000000000000000000010303034E
:1008100001000000000026205D2626205D26255EC2
:10082000005B5B5B265D5D265D5D265D5D265E0093
:100830005B5B5B5B5B262026202620265E00EB01AF
:10084000E801E501E201DF010002FD01FA01F70123
:10085000F401F101EE012F022B02270223021F02F5
:100860001B02170213020F020B02070203022026CB
:10087000202026255E00262026255E00265E0026F6
:100880005E00000005072060000000000000004F2F
:1008900000007E425A5A5A5A42663C3C242A7F2A19
:1008A00012231308646236495522504242663C3C8A
:1008B000001C2241000041221C0014083E081408BC
:1008C000083E080802057E140408080808080060AD
:1008D00060000020100804023E5149453E00427F5E
:1008E000400042615149462141454B311814127F65
:1008F0001027454545393C4A4949300171090503EE
:100900003649494936064949291E00002400007E1F
:10091000425A5A42081422410000141414000041A3
:100920002214080201510906304979413E7E111115
:10093000117E7F494949363E414141227F41412252
:100940001C7F494949417F090909013E4149497ACA
:100950007F0808087F00417F41002040413F017F20
:10096000081422417F404040407F020C027F7F04F8
:1009700008107F3E4141413E7F090909063E415131
:10098000215E7F09192946464949493101017F0104
:10099000013F4040403F1F2040201F3F4030403F2C
:1009A0006314081463070870080761514945430040
:1009B0007F41410002040810200041417F000402F1
:1009C0000102047E425A42427E4242424220545434
:1009D00054787F50484830384444000038444448F4
:1009E0007F3854545418087E0901020C5252523E6A
:1009F0007F0804047800447D40002040443D007F8F
:100A00001028440000417F4000780C180C787C08C6
:100A100004047838444444387C141414080814142A
:100A2000187C7C080404084854545420043F444073
:100A3000203C4040207C1C2040201C3C4030403C5E
:100A400044281028440C5050503C4464544C440CEE
:100A5000067F060C18307F30181C22272E1C02053A
:100A60003A44440000000000005EBCE2613FDD83C8
:100A7000C29C7E20A3FD1F419DC3217FFCA2401E7E
:100A80005F01E3BD3E6082DC237D9FC1421CFEA06E
:100A9000E1BF5D0380DE3C62BEE0025CDF81633D5E
:100AA0007C22C09E1D43A1FF4618FAA427799BC54E
:100AB00084DA3866E5BB5907DB856739BAE406583E
:100AC0001947A5FB7826C49A653BD987045AB8E62E
:100AD000A7F91B45C6987A24F8A6441A99C7257B1E
:100AE0003A6486D85B05E7B98CD2306EEDB3510F0E
:100AF0004E10F2AC2F7193CD114FADF3702ECC92FE
:100B0000D38D6F31B2EC0E50AFF1134DCE90722CED
:100B10006D33D18F0C52B0EE326C8ED0530DEFB1DD
:100B2000F0AE4C1291CF2D73CA947628ABF51749CD
:100B30000856B4EA6937D58B5709EBB536688AD4BD
:100B400095CB2977F4AA4816E9B7550B88D6346AAD
:100B50002B7597C94A14F6A8742AC896154BA9F79D
:100B6000B6E80A54D7896B3500030C0F30333C3F8D
:100B7000C0C3CCCFF0F3FCFF00000000250028002C
:100B80002B00000000080002010000030407000021
:100B900000000000000000000000240027002A00E0
:100BA000434C4B45522D4F00534E53204F4B005357
:100BB0004E532045525200434C4B204F4B00434C68
:100BC0004B20455252004D454D204F4B0000347D87
:100BD000C20003000103F000070700031401010431
:100BE00013000314010100004A026803000400140A
:100BF0000101FA000014010100000000000300528E
:100C00006573746172740052657365740042543187
:100C10003D59204254333D4E0052657365743F0088
:100C20004D454D2045525200424F4F54003302195A
:100C3000804000202D4700534B495020414C4152E9
:100C40004D00534B4950444159262F265E00534BCB
:100C500049502048554D494400534B495020494381
:100C6000450054696D652053637265656E00667258
:100C70006F6D20746865007761746572696E6700D6
:100C80005475726E204F46460063616C69622B3169
:100C90000063616C69622D3100434C4B45522D520B
:100CA00000434C4B45522D5200434C4B45522D575F
:100CB00000434C4B45522D570000000000230026F6
:100CC00000290004040404040404040202020202D1
:100CD0000203030303030301020408102040800100
:100CE0000204081020010204081020006F251124BE
:100CF0001FBECFEFD8E0DEBFCDBF23E0AEEEB1E048
:100D000001C01D92A53CB207E1F711E0A0E0B1E0FF
:100D1000E6E1F5E702C005900D92AE3EB107D9F7C6
:100D200016E0C7E7D6E004C02197FE010E947E3A94
:100D3000C637D107C9F70E94C6250C94893A0C948E
:100D400000009091A603E091A703F091A803292F3A
:100D5000209580FF14C0F894828182238283818150
:100D6000892B8183A3E2B0E01197F1F78281982B60
:100D70009283789487ED90E00197F1F70895F894C5
:100D80008281822382838181892B8183AFEFB0E0CE
:100D90001197F1F78281982B928378948FE090E0FD
:100DA000EBCF0F931F93CF93DF93082FC8E0D0E0D2
:100DB00011E081E0902F912309F480E00E94A106C8
:100DC000110F2197B1F7F894E091A703F091A803D0
:100DD00091818091A6038095892381837894DF9106
:100DE000CF911F910F9108958091A603E091A703E1
:100DF000F091A803F8942281382F30952323228381
:100E00002181282B2183A7E0B0E01197F1F7918190
:100E1000932391839281982B9283A3E2B0E0119760
:100E2000F1F790817894EFECF0E03197F1F79823A7
:100E300081E009F480E008958091490120E4829FD7
:100E4000C0011124826080937C0080917A008064CC
:100E500080937A0080917A0086FDFCCF80917800A3
:100E60009091790008959093C0038093BF03FC0193
:100E700024913196E491F22F319719F41092BD0329
:100E8000089581E08093BD0308958091A603E091C9
:100E9000A703F091A803F8942281382F30952323DB
:100EA00022832181282B21837894ABE7B7E0119727
:100EB000F1F7F8949181932391839281982B9283F7
:100EC000A3E1B1E01197F1F790817894A3E6B6E041
:100ED0001197F1F72081282319F0982381E009F078
:100EE00080E00895FF920F931F93CF93DF930091BB
:100EF000B303002399F01092B1031092B303109240
:100F0000B20380E0A9EAB3E0E6E8F3E02EE833E0DC
:100F10009D9191932E173F07D9F70AC00E9445076C
:100F200081110CC01092B1031092B3031092B2035E
:100F3000DF91CF911F910F91FF90089580EF0E9454
:100F4000D106F12CD1E0C1E00E94F406182F0E94D6
:100F5000F406113089F4813071F5C13460F20093E8
:100F6000B103011103C081E08093B3038091A90311
:100F7000882309F281E0C6CFEF2DF0E0181311C0ED
:100F80008091B103C817A8F4DF01AA55BC4F13968E
:100F90008C918D2381F410E0C93010F4C093B2031A
:100FA0000C2FEA55FC4F83819D2F909589238383D5
:100FB0000AC08C13F0CFEF2DF0E0EA55FC4F83818F
:100FC0008D2B838311E0812F0E94A106CF5FDD0F5F
:100FD00011F4F394D1E087E08F1508F0B5CFBDCFC1
:100FE00091E09093620380938403109263031092C4
:100FF0008503089590910203809101032FEF3FEF45
:10100000981748F4E92FF0E0EF51FD4F208130E0D0
:101010009F5F90930203C90108959091020380910C
:1010200001032FEF3FEF981748F4E92FF0E0EF515D
:10103000FD4F208130E09F5F90930203C901089526
:101040008091010390910203891B990B089580916F
:10105000DF028F5F8093DF020895AF92BF92CF923D
:10106000DF92EF92FF920F931F93CF93DF936C0168
:101070007B018B01040F151FEB015E01AE18BF0849
:10108000C017D10759F06991D601ED91FC910190FB
:10109000F081E02DC6010995892B79F7C501DF9113
:1010A000CF911F910F91FF90EF90DF90CF90BF9065
:1010B000AF900895833081F028F4813099F0823028
:1010C000A9F008958730A9F08830C9F08430B1F4D0
:1010D000809180008F7D03C0809180008F77809306
:1010E0008000089584B58F7784BD089584B58F7D81
:1010F000FBCF8091B0008F778093B00008958091EE
:10110000B0008F7DF9CFCF93DF93282F30E0F90126
:10111000EE57F44F8491F901E952F34FD491F9015C
:10112000ED53F34FC491CC23A1F081110E945A08D2
:10113000EC2FF0E0EE0FFF1FE754F34FA591B491B1
:10114000EC91ED2381E090E009F480E0DF91CF9114
:10115000089580E090E0FACF1F93CF93DF93282F7C
:1011600030E0F901EE57F44F8491F901E952F34F61
:10117000D491F901ED53F34FC491CC23A9F0162F6C
:1011800081110E945A08EC2FF0E0EE0FFF1FE85883
:10119000F44FA591B4918FB7F894EC91111108C058
:1011A000D095DE23DC938FBFDF91CF911F910895FF
:1011B000DE2BF8CFCF93DF9390E0FC01E952F34FA1
:1011C00024918D53934FFC0184918823C9F090E0C2
:1011D000880F991FFC01EA56F44FA591B491FC01C8
:1011E000E858F44FC591D49161110DC09FB7F894A0
:1011F0008C91209582238C938881282328839FBFFC
:10120000DF91CF910895623051F49FB7F8943C91EB
:10121000822F809583238C93E8812E2BEFCF8FB77D
:10122000F894EC912E2B2C938FBFEACF3FB7F89414
:101230008091430290914402A0914502B0914602F0
:1012400026B5A89B05C02F3F19F00196A11DB11D21
:101250003FBFBA2FA92F982F8827BC01CD01620F5D
:10126000711D811D911D42E0660F771F881F991F18
:101270004A95D1F708958F929F92AF92BF92CF92E5
:10128000DF92EF92FF926B017C010E9416094B01E5
:101290005C01C114D104E104F104B9F00E94160903
:1012A000681979098A099B09683E7340810591058F
:1012B00080F321E0C21AD108E108F10888EE880E17
:1012C00083E0981EA11CB11CE4CFFF90EF90DF904B
:1012D000CF90BF90AF909F908F9008952FB7F894C4
:1012E00060913F02709140028091410290914202D0
:1012F0002FBF08950895CF93DF93EC018A8588234B
:1013000029F081508A87DF91CF9108959C818E8149
:101310009817C8F7E881F9810084F185E02D42E053
:10132000CE0109958C818F5F8C83EDCFDC0180E04D
:10133000615038F0ED91E827F0E0E859F54F8491DD
:10134000F7CF08951F93CF93DF93C1E0C093FA01C5
:10135000882399F1D091B8001091BA008091BC0017
:101360008A7B8093BC0060E082E10E94AC0860E070
:1013700083E10E94AC0810925C03C0935B0310925F
:10138000360361E082E10E94AC0861E083E10E94E3
:10139000AC088091B9008E7F8093B9008091B9002C
:1013A0008D7F8093B90088E48093B80085E48093B2
:1013B000BC001093BA00D093B800DF91CF911F9179
:1013C0000895CF92DF92EF92FF920F931F93CF93E6
:1013D000DF93D091850381E0D13208F09CC0C091A9
:1013E00084030E9416096B017C0180915C038111CA
:1013F0006CC082E080935C0381E080935B038FEF9D
:1014000080935A0310925903D0935803A4E6B3E093
:10141000E8E3F3E080E0D8138DC0109237038091A9
:101420003703CC0FC82BC09337038091360381302C
:1014300009F084C0109236030E9416096B017C01EA
:10144000809137038093BB0080915E0390915F038E
:10145000A0916003B0916103892B8A2B8B2BA1F0A3
:101460000E94160900915E0310915F0320916003B2
:10147000309161036C197D098E099F0906171707C2
:101480002807390708F442C08091BC0083FDD8CFFB
:1014900085EC8093BC000E9416096B017C01809151
:1014A0005C03823009F44CC080915A038F3F09F4E9
:1014B00069C080915A03803209F466C080915A0352
:1014C000803309F463C084E026C080915E0390916C
:1014D0005F03A0916003B0916103892B8A2B8B2B52
:1014E00009F483CF0E94160900915E0310915F03F7
:1014F00020916003309161036C197D098E099F0969
:10150000061717072807390708F06FCF80915D038A
:101510000E94A20985E01092630310928503109245
:101520006203DF91CF911F910F91FF90EF90DF90B9
:10153000CF9008959D9191938F5F6DCF85EEA9CF48
:1015400080915E0390915F03A0916003B09161036D
:10155000892B8A2B8B2B09F4A2CF0E9416090091AC
:101560005E0310915F0320916003309161036C1959
:101570007D098E099F09061717072807390708F004
:101580008ECFC4CF80E0C7CF82E0C5CF83E0C3CF8A
:1015900020911B02260F3327331F21323105ECF433
:1015A00020915C03FC0190E080E0243069F082E04F
:1015B0000895A0911B022191AC0145505E4FA40FEC
:1015C000B52FB11D2C930196861798F380911B02BD
:1015D000680F60931B0280E0089581E008950895EC
:1015E000E091020380910103E81730F4F0E0EF513D
:1015F000FD4F808190E008958FEF9FEF0895CF9287
:10160000DF92EF92FF920F931F93CF93DF937C01B2
:10161000CB018A0120916203222389F0EB016B0147
:10162000C40ED51ECC15DD0569F06991D701ED9189
:10163000FC910190F081E02DC7010995F3CF642F53
:101640000E94C80AC801DF91CF911F910F91FF90AE
:10165000EF90DF90CF900895CF93DF931F92CDB797
:10166000DEB76983209162032223F9F0209185037C
:10167000203258F021E030E0FC013383228390E0F7
:1016800080E00F90DF91CF91089580916303E82F60
:10169000F0E0EC59FC4F998190838F5F8093630356
:1016A0008093850381E090E0ECCF61E0CE0101966C
:1016B0000E94C80AF7CFCF93DF9300D000D000D0AC
:1016C0001F92CDB7DEB78091BA02882391F08FEFD9
:1016D000870F823070F085EF870F823050F05150C5
:1016E0007330E9F4511107C0693118F081E04230DC
:1016F00068F480E00BC087E090E0851B9109680FDB
:10170000792F711D81E0603271059CF327960FB629
:10171000F894DEBF0FBECDBFDF91CF9108958CEF5F
:10172000870F8630B0F07A3021F7511106C081E082
:10173000693160F3433050F3DCCF87E090E0851BE4
:101740009109680F792F711D81E060327105F4F203
:10175000D0CF81E0DBCFAF92BF92CF92DF92EF92FA
:10176000FF920F93CF93DF93CDB7DEB7A6970FB657
:10177000F894DEBF0FBECDBF298F3A8F4B8F5C8FA1
:101780006D8F7E8F8F8FA8A2B9A2CAA2DBA2ECA216
:10179000FDA20EA398E1EAE4F1E0DE0111960190CA
:1017A0000D929A95E1F7682F70E0202F30E0AB01A1
:1017B000081708F4A901EE8DE150FF0BEE0FFF1F93
:1017C00081E090E08C0F9D1FE80FF91F0190F081E0
:1017D000E02DCA018617970744F4DC01A370BB27EC
:1017E000AB2B09F431960196F5CF8D8D8E0F9F2F7F
:1017F000911D641B750BADE6B1E06A9FF0016B9F14
:10180000F00D7A9FF00D1124BF01680F791FFA01C6
:1018100090E080E0E217F30744F4DF01A370BB27F8
:10182000AB2B09F401963196F5CFEDA1E150FF0BFA
:10183000EE0FFF1FA1E0B0E0AC0FBD1FEA0FFB1FD2
:101840000190F081E02D8E0F9F1FECA1E80FF92F82
:10185000F11D241B350B4DE651E0249FC001259F4F
:10186000900D349F900D11248E0F9F1F861B970B98
:10187000A6960FB6F894DEBF0FBECDBFDF91CF9115
:101880000F91FF90EF90DF90CF90BF90AF900895B1
:101890006F927F928F929F92AF92BF92CF92DF9280
:1018A000EF92FF920F931F93CF93DF938C01722ED1
:1018B000DB01CA010996A11DB11D4397A105B10520
:1018C00020F5411551056105710501F580E3F80129
:1018D00080832223B9F0818382E090E0800F911F02
:1018E000FC011082C801DF91CF911F910F91FF90F1
:1018F000EF90DF90CF90BF90AF909F908F907F90B0
:101900006F90089581E090E0E9CF712C612C77FF12
:1019100009C070956095509541955F4F6F4F7F4F0F
:10192000662463946801F12CE12C8AE0882E912CC6
:10193000A12CB12CE7012196CB01BA01A50194019C
:101940000E94343A942F852F605DF60161936F01F8
:10195000A901692F782F411551056105710559F5C8
:10196000772031F0C00FD11F80E38883E7012296F2
:10197000662031F0F801EC0FFD1F8DE28083219687
:10198000F801EC0FFD1F10822197AF01D801CD01A6
:10199000801B910B8C179D070CF0A4CF8D91FA0141
:1019A0009291AF019D0121503109F9019083FA0113
:1019B00080832197ECCF7E01BDCF8F929F92AF9213
:1019C000BF92CF92DF92EF92FF920F931F93CF932C
:1019D000DF9300D01F92CDB7DEB76B017C01198277
:1019E0001A821B8228EE33E040E050E00E94123A57
:1019F00049015A01C701B60120E83EEE46E350E036
:101A00000E94123ABA01A90110E000E04115510507
:101A10006105710581F021E0CE0101960E94480C1C
:101A2000898180938E038A8180938F038AE38093D8
:101A3000900303E010E0C501B40120E13EE040E086
:101A400050E00E94123A2CE330E040E050E00E9467
:101A5000123A49016B017C0121E0BA01A401CE01D7
:101A600001960E94480CF801E257FC4F898180835F
:101A7000F801E157FC4F8A818083F801E057FC4F61
:101A80008AE3808321E0B701A601CE0101960E947E
:101A9000480CF801EF56FC4F89818083F801EE561F
:101AA000FC4F8A818083F801ED56FC4F10828EE84E
:101AB00093E00F900F900F90DF91CF911F910F91B6
:101AC000FF90EF90DF90CF90BF90AF909F908F905E
:101AD00008950F931F93CF93DF938C01EB0161E087
:101AE00080E00E94AC08B801110F880B990B0E948E
:101AF0003B0960E080E00E94AC08BE01DD0F880B6E
:101B0000990BDF91CF911F910F910C943B09CF93CB
:101B1000C82F8091B3029091B402009729F0C3308E
:101B200089F5E091A80208C0E091B502C13021F02A
:101B3000E091B002C230A9F7F0E0EF59FE4F2081EA
:101B400030E0A0E6BAEE0E941F372091A9022223BE
:101B5000B9F0C330A9F030E0A901445E5F4F209195
:101B6000D5023091D6024217530754F424E630E0F0
:101B700040E050E00E94123AA2E8B0E00E94143720
:101B8000CF910895E091B502C13011F0E091B0021B
:101B9000F0E0EF59FE4FA0812CE3A29FD001112469
:101BA000C13021F08091AE029091AF0220918B0262
:101BB00030918C02829FA001839F500D929F500D07
:101BC00011244C595F4F25E030E00E945B3ADA0166
:101BD0009B01AC010E94623AB8CF81E08093490139
:101BE00062E070E080E090E00E943B090E941C07E8
:101BF00062E070E080E090E00E943B090E941C07D8
:101C0000A091D102B091D2029C010E94533ADC0112
:101C1000CB012AE0B695A795979587952A95D1F798
:101C200008950E94ED0D883928E0920774F08036FF
:101C300029E092076CF088322AE0920764F084353C
:101C40009B4064F084E090E0089590E080E0089587
:101C500081E090E0089582E090E0089583E090E0D4
:101C600008958EE480937C0062E070E080E090E074
:101C70000E943B0980917A00806480937A00809171
:101C80007A0086FDFCCF80917A00806480937A0090
:101C900080917A0086FDFCCF209178003091790008
:101CA00050E040E060E070E381E190E00E94343A6F
:101CB000C9010895AF92BF92CF92DF92EF92FF9247
:101CC0000F931F93CF93DF934091D3025091D4028F
:101CD0009A0157FF04C022273327241B350B80EFBE
:101CE00090E08C01021B130B293731053CF4B9013C
:101CF000452B41F490EFE92EF12C07C0203F310530
:101D0000C9F3B8010E94FE397B01EEE5F2E04CE731
:101D100052E081E0293731050CF480E08195819310
:101D20004E175F07B1F7293731050CF48901D0E070
:101D3000C0E0D12CC12CAA24A394B12CEC2FC01646
:101D4000D106FCF4CE01B7010E94FE39892BC9F4FB
:101D50008FEFC81AD80ACE01809590958770992781
:101D6000A50101C0440F8A95EAF7E695E695E69548
:101D7000F0E0E25AFD4F8081293731058CF4842B45
:101D800080832196C03FD105C9F6DF91CF911F9185
:101D90000F91FF90EF90DF90CF90BF90AF9008959C
:101DA00040958423EDCF1F93CF93DF93EC01162F43
:101DB00061E0411101C060E088890E94AC0880E5C3
:101DC0008CBD81E08DBD60E08F850E94AC081EBD9A
:101DD00000000DB407FEFDCF8EB561E08F85DF9169
:101DE000CF911F910C94AC08DC01ED91FC91008423
:101DF000F185E02D40E00994FC0127812695269588
:101E00002695621720F46583606B0C94F40E089598
:101E10000F931F93CF93FC012681621798F4C62F6E
:101E20008C0164836085C60F6C2F6F700E94F40E66
:101E30006C2F62956F706061C801CF911F910F91F7
:101E40000C94F40ECF911F910F910895DF92EF92B1
:101E5000FF920F931F93CF93DF93EC01D62EE42EC6
:101E6000022F1A868F81869586958695281710F001
:101E70000FEF080F1E2D60E0CE01011780F00E94C9
:101E8000080F612FCE010E94FC0EF12C6D85CE0152
:101E90000E947B09F394DF14C8F71F5FECCF0E9408
:101EA000080F6E2DCE01DF91CF911F910F91FF9002
:101EB000EF90DF900C94FC0EFC012781269526956F
:101EC000269521506681615040E00C94260F2F9298
:101ED0003F924F925F926F927F928F929F92AF92BA
:101EE000BF92CF92DF92EF92FF920F931F93CF9307
:101EF000DF93CDB7DEB72C970FB6F894DEBF0FBED9
:101F0000CDBFFC01238534852115310509F458C165
:101F1000062F9C878B87F9013296749031965491E5
:101F2000C52ED12CF7E0CF0ED11C93E0D594C794E9
:101F30009A95E1F7CB82F901349644913196E49178
:101F4000641740F08E2F90E0BC01640F711D0617DE
:101F50001706ACF10D3001F560E08B859C850E9481
:101F6000080F81E090E02C960FB6F894DEBF0FBE0C
:101F7000CDBFDF91CF911F910F91FF90EF90DF9038
:101F8000CF90BF90AF909F908F907F906F905F9019
:101F90004F903F902F9008950A3009F011C160E0F2
:101FA0008B859C850E94080FEB85FC858685658165
:101FB0008C9D600D1124CF010E94FC0ED2CF7901BF
:101FC000F6E0EF0EF11C602F641BEB85FC8541856C
:101FD000F90174912F5F3F4FF9012491372F22307F
:101FE000310508F072C07C9C90017D9C300D11245D
:101FF000629FC001639F900D1124E80EF91E512CC1
:10200000EB85FC8534802580F285FC83272D30E02C
:102010003A83298388248394912C412C842F90E047
:1020200098878F838FE790E0FC01E319F109FA8725
:10203000E987FB814F1608F0BFC0612C23EA200F0F
:102040002D8331EA300F3E83EB85FC85868568164B
:1020500008F0A9C02C812287411002C0662069F0D7
:10206000EB85FC8515811F5F632DCF010E94080F52
:10207000612F8B859C850E94FC0E0B3509F048C0B2
:1020800010E0212F30E083E090E00D3531F08985BC
:102090009A850E3511F090E080E04F815885840FCD
:1020A000951F281739070CF03BC051E0651206C098
:1020B000EB85FC85858560E48F3F09F060E08B85CA
:1020C0009C850E947B091F5FDCCF577028E0522E51
:1020D000551A511101C0512CF701712C30E020E04C
:1020E000761631F05491250F311D73943196F8CF47
:1020F000F701E70DF11D7490C29EF001C39EF00D33
:10210000D29EF00D11248E0F9F1FE80EF91E78CF7E
:10211000FD81B12CA12CF23028F40B3309F03EC024
:10212000639492CFA714B0F5F501EE0DFF1D149145
:10213000552061F0C814D90449F4E12FF0E0052CD2
:1021400002C0F595E7950A94E2F71E2FEB85FC8512
:1021500086858230B1F4611012951F70E12FF0E096
:10216000E859F44F1491F1E06F1206C0EB85FC853D
:1021700085858F3F09F41064612F8B859C850E94B3
:102180007B09612F8B859C850E947B09FFEFAF1A2D
:10219000BF0AC8CF023209F4C3CFBFCF2E8122308D
:1021A00008F4BECF6DCF439429813A81E20EF31E2D
:1021B0003FEF831A930A3DCF622D8B859C85FCCE21
:1021C00090E080E0D0CE6DEA84EB93E00E94F40EC4
:1021D00061E070E080E090E00E943B096BE884EBF6
:1021E00093E00E94F40E61E070E080E090E00E94D5
:1021F0003B096FEA84EB93E00E94F40E1092DD023B
:102200001092DE0281E08093CE0261E070E080E017
:1022100090E00C943B09089590E080E008952F929F
:102220003F924F925F926F927F928F929F92AF9266
:10223000BF92CF92DF92EF92FF920F931F93CF93B3
:10224000DF93CDB7DEB7E2970FB6F894DEBF0FBECF
:10225000CDBF682E962E242E702E812E88E18E0101
:10226000075E1F4FF801982F11929A95E9F7DE014A
:102270001196FD0111928A95E9F7BD01AD0190E03B
:1022800080E0F901E80FF91F54900196FA0151928C
:10229000AF01552019F08931910599F750E040E0E0
:1022A000FB018191BF01882309F440C04F5F5F4F5C
:1022B00048315105A9F78AE2898F30E020E0200FEC
:1022C000311FF9011082662D84EB93E00E94080F04
:1022D000692D84EB93E00E94FC0E21942092C103AF
:1022E000F80101900020E9F73197AF01401B510B35
:1022F000B80184EB93E00E942D08E2960FB6F894A3
:10230000DEBF0FBECDBFDF91CF911F910F91FF9028
:10231000EF90DF90CF90BF90AF909F908F907F9085
:102320006F905F904F903F902F90089570E030E055
:1023300020E061E0872F90E0841795070CF0BFCF75
:102340008A0F9B1FFC0190819632E9F5872D982D0D
:10235000613059F0C701623041F0C601633029F0A5
:1023600088EE91E0643009F4C501582E392EFC0145
:10237000412C8191811112C0C801820F931F59AA6B
:102380003AAA39A835183414B8F4E9A9FAA9319051
:10239000FAABE9ABFC013192CF01F3CF439488E172
:1023A0004812E7CF2901FFEF4F1A5F0A200F311FB4
:1023B0008AE2F901808303C0420E532E511C6F5FE5
:1023C0007F5F9201B7CF2901FFEF4F1A5F0A200FFD
:1023D000311FF9019083F4CF8F929F92AF92BF92F9
:1023E000CF92DF92EF92FF920F931F93CF93DF93E1
:1023F000CDB7DEB768970FB6F894DEBF0FBECDBF7E
:102400004C018E010F5F1F4F88E1F80111928A95F0
:10241000E9F7D80190E080E0FB01E80FF91FE491B3
:102420000196ED93EE2319F089319105A9F782E821
:1024300098E00E94330781E08093BD0382E080939F
:10244000C20388EEA82E81E0B82E650175012FE742
:1024500038E040E0B40190E080E00E940F116896FF
:102460000FB6F894DEBF0FBECDBFDF91CF911F91A5
:102470000F91FF90EF90DF90CF90BF90AF909F9023
:102480008F900895CF93DF9388E60E94F00768E06D
:102490008AE993E00E942C0BC3E0D3E069918AE9BA
:1024A00093E00E942C0B83E0C232D807B9F70E9458
:1024B000E109882359F061E080E00E94AC0861EBFB
:1024C0007CE090E080E00E94EC11FFCF88E60E9463
:1024D000F00767E28AE993E00E942C0BC2E2D3E0A6
:1024E00069918AE993E00E942C0B83E0C533D807F9
:1024F000B9F762E383E093E00E949609682F8AE9C6
:1025000093E00E942C0B0E94E109882359F061E0BE
:1025100080E00E94AC0869EA7CE090E080E00E94E4
:10252000EC11FFCFDF91CF9108951F93CF93DF93ED
:1025300000D000D000D01F92CDB7DEB729833A83F8
:102540004B835C836D837E838F8388E60E94F007D4
:1025500060E08AE993E00E942C0B0E94E109882345
:1025600059F061E080E00E94AC0864E572E090E020
:1025700080E00E94EC11FFCF88E60E94F00760E047
:102580008AE993E00E942C0B60E88AE993E00E94BC
:102590002C0B8A811AE0612F0E94F2398295807F8C
:1025A000682F690F8AE993E00E942C0B8B818F734F
:1025B000612F0E94F2398295807F682F690F8AE926
:1025C00093E00E942C0B6C818AE993E00E942C0B13
:1025D0008D81612F0E94F2398295807F682F690F6B
:1025E0008AE993E00E942C0B8E81612F0E94F239C0
:1025F0008295807F682F690F8AE993E00E942C0BF7
:102600008F81612F0E94F2398295807F682F690F38
:102610008AE993E00E942C0B0E94E10988E60E945F
:10262000F00760E08AE993E00E942C0B8981612F1A
:102630000E94F2398295807F682F690F8AE993E0C2
:102640000E942C0B0E94E10965E070E080E090E0C0
:1026500027960FB6F894DEBF0FBECDBFDF91CF91A6
:102660001F910C943B09CF92DF92EF92FF920F9350
:102670001F93CF93DF93D82F0E9416096B017C0123
:1026800080915C03811165C0CD2F81E080935C0354
:1026900080935B039FEF90935A03109259039D0F11
:1026A000909358038093370380913703806D809314
:1026B000370380913603813009F07FC010923603D2
:1026C0000E9416096B017C01809137038093BB0047
:1026D00080915E0390915F03A0916003B0916103CC
:1026E000892B8A2B8B2BA1F00E94160900915E0387
:1026F00010915F0320916003309161036C197D0993
:102700008E099F09061717072807390708F442C0E2
:102710008091BC0083FDD8CF85EC8093BC000E94E3
:1027200016096B017C0180915C03813009F447C07C
:10273000809159038D1710F4C0915903A8E3B3E0B9
:10274000E1EEF2E080E08C1751F19D9191938F5F63
:10275000FACF80915E0390915F03A0916003B091E6
:102760006103892B8A2B8B2B09F48ACF0E941609CF
:1027700000915E0310915F0320916003309161032B
:102780006C197D098E099F09061717072807390755
:1027900008F076CF80915D030E94A209C0E01092FC
:1027A0000203C09301038C2FDF91CF911F910F91F2
:1027B000FF90EF90DF90CF90089585EEAECF80919F
:1027C0005E0390915F03A0916003B0916103892B38
:1027D0008A2B8B2B09F4A7CF0E94160900915E0368
:1027E00010915F0320916003309161036C197D09A2
:1027F0008E099F09061717072807390708F093CF96
:10280000C9CFCF9388E60E94F00768E08AE993E099
:102810000E942C0B0E94E109882359F061E080E0BE
:102820000E94AC0861EA7CE090E080E00E94EC113C
:10283000FFCF80E290E00E943313C0E0909101034B
:1028400080910203981749F00E940D08EC2FF0E0E8
:10285000ED5FFC4F8083CF5FF1CF88E60E94F007E9
:1028600068E28AE993E00E942C0B0E94E109882328
:1028700059F061E080E00E94AC0869E97CE090E0FA
:1028800080E00E94EC11FFCF83E190E00E943313BF
:102890009091010380910203981749F00E940D085E
:1028A000EC2FF0E0ED5FFC4F8083CF5FF1CFCF9155
:1028B00008951F93CF93DF9313E0C0E0D1E08091A0
:1028C000AB02809303038091BB02805D809304037D
:1028D0008091B802865A80930503E091B602F09188
:1028E000B7029F012C543F4FC901BE010E94FE391F
:1028F0008093060337FF02C021503F4F30930703F8
:102900008091AA0280930803109209038091BA0271
:1029100080930A038091B30280930B03E091D3026A
:10292000F091D4029F0120513F4FC901BE010E9486
:10293000FE3980930C0337FF02C021503F4F309384
:102940000D038091BE0280930E0380912401809339
:102950000F0380912301809310038091B50280932F
:1029600011038091280180931203809127018093A5
:10297000130380912601809314038091BD028093FC
:10298000150380911D018093160380911C01809393
:1029900017038091B00280931803809121018093E6
:1029A00019038091200180931A0380911F01809365
:1029B0001B038091B10280931C038091B20280932B
:1029C0001D033091920220919302832F922FBE011A
:1029D0000E94FE3980931E03832F922F97FF02C01F
:1029E00081509F4F90931F03309194022091950244
:1029F000832F922FBE010E94FE3980932003832FE4
:102A0000922F97FF02C081509F4F90932103809196
:102A10008B02809322038091A802809323038091EC
:102A2000A9028093240380913A0180932503809129
:102A30003901809326038091380180932703809188
:102A4000D70283588093280380913601809329030D
:102A50008091350180932A038091330180932B0369
:102A60008091320180932C038091310180932D035A
:102A70008091D502835880932E0380912F018093FB
:102A80002F0380912E01809330038091AC028093BC
:102A900031038091AD02809332038091AE02809326
:102AA00033030E9442120E94011462E383E093E028
:102AB0000E94960990913503891781F064E170E0D6
:102AC00080E090E00E943B09115009F0F8CE6CE4E0
:102AD00072E090E080E00E94EC11FFCFDF91CF9197
:102AE0001F9108950E94843A8F929F92AF92BF9255
:102AF000CF92DF92EF92FF926A017B012AE534ECDC
:102B000041EF54E4CB01B6010E9456369B01AC0163
:102B10006BE774E18AEF92E40E943F372BED3FE0D0
:102B200049E450E40E94563620E030E044E353E4A8
:102B30000E94CC370E94C7374B015C012FE232EA7A
:102B40004DEE5AE3C701B6010E9456369B01AC0117
:102B50006BE37AEA8AE19AE30E943F37A701960184
:102B60000E9456362FE832E44BE352E40E9440378D
:102B7000A70196010E9456369B01AC0161E875E9F8
:102B80008BEA91E40E943F3720E030E040E752E4D6
:102B90000E94CC3720E030E040ED51E40E94403705
:102BA00020E030E040E752E40E94CC3720E030E003
:102BB00048EB51E40E9440376B017C012CEA35EC74
:102BC00047E25BE3C501B4010E9456369B01AC01AC
:102BD000C701B6010E944037FF90EF90DF90CF9081
:102BE000BF90AF909F908F9008953F924F925F92C9
:102BF0006F927F928F929F92AF92BF92CF92DF920D
:102C0000EF92FF920F931F93CF93DF93CDB7DEB771
:102C1000AA970FB6F894DEBF0FBECDBF4C01362E7B
:102C2000CA01B901E9A2FAA20BA31CA3ADA2BEA2DC
:102C3000CFA2D8A624E631EA45E15AE40E943F3704
:102C400020E03DEA4EE057E40E94CC372B013C01E6
:102C5000BC01A201C4010E9474154B015C0121ED6D
:102C600036EF4EE959E3C301B2010E94563625EC16
:102C700030EA4CE057E40E944037A30192010E94E1
:102C8000563625EB3BE34CE853E40E94403769A7F6
:102C90007AA7182F092F6B01E82EF92E20E030E0DB
:102CA00044EB53E4B601C7010E94663918165CF480
:102CB00020E030E044EB53E4B601C7010E943F3707
:102CC0006B017C01EBCF20E030E0A901B601C70128
:102CD0000E94F03587FF0BC020E030E044EB53E466
:102CE000B601C7010E9440376B017C01ECCF28E0A0
:102CF0003BE048E054E3C301B2010E94563623EEA4
:102D000030E540E358E30E944037A30192010E945E
:102D100056369B01AC016CE870EE88E89CE30E949B
:102D20003F3769837A838B839C832BED3FE049E4B3
:102D300050E4C501B4010E94563620E030E044E37F
:102D400053E40E94CC37698B7A8B8B8B9C8B20E071
:102D500030E040E05FE30E9456360E94B9399B01A3
:102D6000AC010E94563669877A878B879C872BED4A
:102D70003FE049E450E4B601C7010E94563620E026
:102D800030E044E353E40E94CC376B017C01AC019A
:102D90009B010E9440374B015C010E946B39698F97
:102DA0007A8F8B8F9C8F28E83AE241E259E3C30186
:102DB000B2010E9456369B01AC016DE07FE98CE0C8
:102DC00097E40E943F37A30192010E9456362AEBF6
:102DD00033EC42EB53E40E9440372BED3FE049E4F3
:102DE00050E40E94563620E030E044E353E40E9471
:102DF000CC376D837E838F8398870E946B396D8774
:102E00007E878F87988BC501B4010E94C7374B011D
:102E10005C0120E030E040E850E4C701B6010E94C8
:102E200056360E946B396D8F7E8F8F8F98A32D81C0
:102E30003E814F815885CA01B9010E9440370E94E6
:102E40006B396D8B7E8B8F8B988F298D3A8D4B8D47
:102E50005C8D69857A858B859C850E9456366B01D1
:102E60007C0129813A814B815C81CA01B9010E94B0
:102E700040372D853E854F8558890E9456369B01E7
:102E8000AC01C701B6010E943F376B017C0120E015
:102E900030E040E850E469817A818B819C810E9416
:102EA000563629853A854B855C850E9456362D8598
:102EB0003E854F8558890E945636A50194010E948F
:102EC00056369B01AC01C701B6010E9440376B0129
:102ED0007C0120E030E040E05FE369857A858B8506
:102EE0009C850E94563629853A854B855C850E94D3
:102EF00056362D8D3E8D4F8D58A10E9456369B0122
:102F0000AC01C701B6010E943F376B017C0120E094
:102F100030E040EA5FE369817A818B819C810E9485
:102F2000563629813A814B815C810E9456362D8923
:102F30003E894F89588D0E9456369B01AC01C701CE
:102F4000B6010E943F3720E030E044E353E40E94A2
:102F500056362BED3FE049E450E40E94CC3720E0A8
:102F600030E040E850E40E94563669877A878B87C4
:102F70009C8720E030E044EB53E469A57AA5812FDB
:102F8000902F0E94663918167CF420E030E044EB64
:102F900053E469A57AA5812F902F0E943F3769A736
:102FA0007AA7182F092FE5CF20E030E0A90169A505
:102FB0007AA5812F902F0E94F03587FF0FC020E067
:102FC00030E044EB53E469A57AA5812F902F0E944D
:102FD000403769A77AA7182F092FE6CF20E030E005
:102FE00040E450E46D817E818F8198850E94563641
:102FF0000E946B3969837A838B839C832AE534EC46
:1030000041EF54E4C301B2010E9456369B01AC016A
:103010006BE774E18AEF92E40E943F372BED3FE0CB
:1030200049E450E40E94563620E030E044E353E4A3
:103030000E94CC370E946B394B015C0169897A8907
:103040008B899C890E946B396B017C012BE831EEE6
:103050004AE657E3C301B2010E9456362DEE37ED22
:103060004DE95BE30E944037A30192010E9456366E
:103070009B01AC016EEA71E185EF9FE30E943F374F
:103080002D853E854F8558890E9456366D837E83F7
:103090008F83988726EF3FEC43ED58E3C301B201DD
:1030A0000E9456369B01AC016CE578EC83EA9CE308
:1030B0000E943F372D893E894F89588D0E94563690
:1030C0009B01AC016D817E818F8198850E94403784
:1030D0002B013C012CEE34E847E959E369817A8100
:1030E0008B819C810E9456369B01AC01C301B201C9
:1030F0000E94403729A53AA5412F502F0E94403702
:103100002EE233E74AEB5BE30E943F372B013C01A1
:103110002CE831EA4CE95BE3C501B4010E94563664
:103120009B01AC01C301B2010E943F372BED3FE090
:1031300049E450E40E94563620E030E044E353E492
:103140000E94CC370E946B399B01AC01C701B601CC
:103150000E9456360E94AC376B017C012BED3FE09C
:1031600049E450E469A17AA18BA19CA10E94563642
:1031700020E030E044E353E40E94CC374B015C0193
:1031800020E030E044E353E4C701B6010E94563624
:103190002BED3FE049E450E40E94CC372BED3FE0BB
:1031A00049E450E40E94563620E030E044E353E422
:1031B0000E94CC376B017C01C501B4010E94C73766
:1031C0002B013C01C701B6010E94C73769837A838E
:1031D0008B839C83C501B4010E94B9394B015C010A
:1031E000C701B6010E94B9396B017C0129813A817E
:1031F0004B815C81C301B2010E9456369B01AC0138
:1032000069E071E38EE69CEB0E94CC372B013C0118
:10321000A7019601C501B4010E9456369B01AC017D
:10322000C301B2010E943F370E942E37311001C006
:10323000905820E030E044E353E40E9456362BEDF2
:103240003FE049E450E40E94CC372DA13EA14FA1BC
:1032500058A50E94403720E030E040E850E40E944A
:1032600056369B01AC0160E070E084E394E40E9478
:103270003F3729853A854B855C850E943F37AA9662
:103280000FB6F894DEBF0FBECDBFDF91CF911F9177
:103290000F91FF90EF90DF90CF90BF90AF909F90F5
:1032A0008F907F906F905F904F903F9008952F92F6
:1032B0003F924F925F926F927F928F929F92AF92C6
:1032C000BF92CF92DF92EF92FF920F931F93CF9313
:1032D000DF93CDB7DEB72A970FB6F894DEBF0FBEE7
:1032E000CDBF1C0169872A013901EA8623E06216F5
:1032F000710434F431E0431A51088CE0680E711CFB
:10330000B20164597D4E072E000C880B990B0E9468
:10331000F73520E030EA46EB53E40E9456360E942F
:1033200074386B017C01B3016F5F7F4F072E000C77
:10333000880B990B0E94F73521E03DEC44EF51E4F6
:103340000E9456360E9474384B015C01C20164E64B
:1033500070E00E94FE3982E090E0DC01A61BB70B12
:10336000BD01072E000C880B990B0E94F73569836D
:103370007A838B839C83C20160E971E00E94FE39ED
:10338000072E000C880B990B0E94F7359B01AC01AE
:1033900069817A818B819C810E9440370E943E38EE
:1033A000072E000C880B990B0E94F7352B013C016E
:1033B000A5019401C701B6010E9440376B017C0151
:1033C000B801110F880B990B0E94F7359B01AC01D6
:1033D000C701B6010E9440379B01AC01C301B20195
:1033E0000E94403720E030E94EEB54E40E943F3722
:1033F0006D837E838F839887F1014480558066803A
:10340000778080819181A281B38189839A83AB8304
:10341000BC83630152017C018D012D813E814F816E
:1034200058856985C1010E94F51520E030E044EB24
:1034300054E40E94CC372D813E814F8158850E94F3
:1034400040379B01AC01E980FA800B811C816985C2
:10345000C1010E94F5156B017C01AC019B010E942A
:10346000DE39811149C020E030E040E752E4F1014B
:1034700060857185828593850E945636A7019601E5
:103480000E9440376B017C0120E030E0A9010E94DE
:10349000663920E030E040E05FE387FD28C0C701E7
:1034A000B6010E9440370E943E38FA8590E080E0E5
:1034B000FF2311F08CE390E0860F971F2A960FB63A
:1034C000F894DEBF0FBECDBFDF91CF911F910F915A
:1034D000FF90EF90DF90CF90BF90AF909F908F9034
:1034E0007F906F905F904F903F902F900895C7010D
:1034F000B6010E943F37D7CF8FEF9FEFDFCF6F929C
:103500007F928F929F92AF92BF92CF92DF92EF9273
:10351000FF920F931F93CF93DF93CDB7DEB72C9716
:103520000FB6F894DEBF0FBECDBF6091BB027091A5
:10353000BC02072E000C880B990B0E94F73520E087
:1035400030E040E85EE30E9456364B015C0160913A
:10355000B6027091B702072E000C880B990B0E94DF
:10356000F7356B017C016091B8027091B902072EAA
:10357000000C880B990B0E94F73569837A838B8343
:103580009C83CD82DE82EF82F88689869A86AB861E
:10359000BC862091420130914301409144015091F9
:1035A00045016091460170914701809148010E9458
:1035B0005B0B60904601712C80904701912CA0908C
:1035C0004801B12C40E3A41A48EFB40AE82E830165
:1035D0009401A50161E0CE0101960E9457196C018A
:1035E0009401A50160E0CE0101960E9457199C014B
:1035F000E091BE02E230D8F0F0E0E958FE4F808161
:10360000A601480F511D87FD5A95CA01813A55E020
:10361000950710F090E080E06CE370E00E94FE39C6
:10362000683109F460E06093240180932301E09104
:10363000BD02E230D8F0F0E0E958FE4F8081A901E8
:10364000480F511D87FD5A95CA01813A55E09507EB
:1036500010F090E080E06CE370E00E94FE39683189
:1036600009F460E060931D0180931C014091920277
:1036700050919302D901AC19BD09A41BB50B24E6E6
:1036800030E00E945B3A2091940230919502241B15
:10369000350B032E000C440B550B0E94123A30E000
:1036A00030938C0220938B022C960FB6F894DEBFD9
:1036B0000FBECDBFDF91CF911F910F91FF90EF9083
:1036C000DF90CF90BF90AF909F908F907F906F9042
:1036D000089585ED8093BC0080915E0390915F0317
:1036E000A0916003B09161030796A11DB11D23E075
:1036F000B695A795979587952A95D1F72091BC0007
:1037000024FD03C010925C03089540915E03509124
:103710005F036091600370916103452B462B472B3B
:1037200069F30097A105B10541F025E32A95F1F76A
:1037300000000197A109B109E1CF80915D030C94CC
:10374000A2094F925F926F927F928F929F92AF9257
:10375000BF92CF92DF92EF92FF920F931F93CF937E
:10376000DF93CDB7DEB762970FB6F894DEBF0FBE1A
:10377000CDBF882E6090D9027090DA028091AB02A2
:10378000882371F029E0269DC001279D900D11240A
:1037900065E070E00E94FE393B0120E2620E711C80
:1037A0001091BF02912C112329F09090A702911043
:1037B0009090A60282E898E00E9433075524539423
:1037C0005092BD0382E08093C2038510F1C18091C5
:1037D000CF028150833008F0C9C0112309F4C0C062
:1037E00008EE11E068EEA62E61E0B62E65017501C7
:1037F0002CE738E040E070E060E090E080E00E947C
:103800000F118091CF020E94870D6F87788B898B73
:103810009A8B40908E0250908F0260909002709030
:1038200091020E946E0938EE430E33E0531E611C74
:10383000711C2F85388949895A89420E531E641E8E
:10384000751E461A570A680A790A80918A025AEE4A
:10385000E52E51E0F52E823070F4409188025091AF
:103860008902052E000C660B770B20E08CE792E0B6
:103870000E94480C7C01C301B2010E94DD0C31E8BA
:1038800043163EEE530636E36306710408F46BC03C
:1038900026E738E048EEA42E41E0B42E65018C0105
:1038A00040E066E070E090E080E00E940F1180E46C
:1038B00095E00E9433071092BD0381E08093C2031C
:1038C000992029F08091C902873009F45CC14091A8
:1038D0003B0150E070E060E021E08EEE91E00E945C
:1038E000480C6C01911053C140913C0150E070E0D4
:1038F00060E021E08CE792E00E94480C7C0191108E
:103900004FC140913D0150E070E060E021E08EE861
:1039100093E00E94480C48EEA42E41E0B42E8C01A6
:1039200029E335E040E062E070E084E090E00E944E
:103930000F1162960FB6F894DEBF0FBECDBFDF91B8
:10394000CF911F910F91FF90EF90DF90CF90BF909C
:10395000AF909F908F907F906F905F904F90089561
:1039600008EA11E03FCF2EE638E094CFE091400125
:10397000E150FF0BEE0FFF1FEA5AF74F659174916C
:10398000CE0101960E94E935E0913E01E150FF0B26
:10399000EE0FFF1FE85BF74F65917491CE010C9617
:1039A0000E94E935992029F08091C902843009F4F8
:1039B000C0C04091410150E070E060E020E08CE741
:1039C00092E00E94480C5C01CE0101966C019920A6
:1039D00009F4B4C08091C90215EEC12E11E0D12EB8
:1039E000833009F4ABC0AE014F5F5F4F6A01823094
:1039F00009F0A4C080913F018A3008F0AFC087EE83
:103A000091E0AE014F5F5F4F6A012091C90206EE5F
:103A100011E0213009F09EC020913F012A3008F0CA
:103A2000A4C020E338E07C0140E070E060E090E07A
:103A300080E00E940F11E091D002F0E0EE0FFF1F36
:103A4000E25CF74F65917491CE0101960E94E935D1
:103A500080918A02A5E04A2E512C8230F0F4C301F5
:103A600009968D36910508F083C03AE0631671041B
:103A700008F083C025E030E085E090E0820F931FDE
:103A800020918802309189022A3031050CF078C0EB
:103A900025E030E02C01420E531E27E046E06FEF98
:103AA000640D84EB93E00E94260F10918A02FAEED7
:103AB000AF2EF1E0BF2E123070F440918802509189
:103AC0008902052E000C660B770B20E08CE792E054
:103AD0000E94480C5C018091AB02E3EBCE2EE1E04A
:103AE000DE2E811104C075EBC72E71E0D72E8AEE51
:103AF00091E0123048F4A301770C660B770B20E0BD
:103B00008EE893E00E94480C2091D002211106C05B
:103B10002091BF0206EE11E0211103C08E010F5F5C
:103B20001F4F7C0126E138E040E066E070E0C20112
:103B3000BCCE06EEA02E01E0B02E4CCF40913F014E
:103B400050E070E060E020E08EE893E00E94480CD6
:103B500091105BCF8E01045F1F4F5ECF86EE91E028
:103B60009E012F5F3F4F690150CF21E238E05BCFCC
:103B700021E030E090E080E081CF25E030E0FACF36
:103B800030E020E087CF67EBC62E61E0D62E809133
:103B9000C902863009F0A8CE57EBE52E51E0F52E8C
:103BA0008091C902853009F0ACCE87EB91E0B3CEAD
:103BB00042E08412FAC038EEA32E31E0B32E650144
:103BC0007501850129E235E041E070E060E090E0B8
:103BD00080E00E940F115092C2030091BB0210912D
:103BE000BC02C80164E070E00E94FE390097A1F0B9
:103BF00097FF03C09195819591098130910509F452
:103C0000BAC02EEBC22E21E0D22E029749F0B2ECC0
:103C1000CB2EB1E0DB2E04C098EEC92E91E0D92E58
:103C2000A80117FF02C04D5F5F4F55954795559509
:103C30004795052E000C660B770B20E08EE893E08D
:103C40000E94480C17FF9CC00D5F1F4F07301105E5
:103C500008F099C00BEE11E0992009F497C020916B
:103C6000C902213009F092C02DE135E0F8EEAF2E07
:103C7000F1E0BF2E7C0140E062E070E090E080E087
:103C80000E940F11992031F08091C90208EE11E0D5
:103C9000823041F08091BA0208EC11E0811102C03B
:103CA0000BEC11E0E8EEAE2EE1E0BE2E65017501F1
:103CB00029EF34E040E063E070E090E080E00E94B3
:103CC0000F110091B8021091B902C801099677EE60
:103CD000C72E71E0D72E439720F068EEC62E61E024
:103CE000D62EA801012E000C660B770B20E08EE883
:103CF00093E00E94480C17FD4CC006EC11E099209F
:103D000009F44AC02091C902233009F045C02DEEC4
:103D100034E058EEA52E51E0B52E7C0140E064E081
:103D200070E090E080E00E940F110091B6021091C7
:103D3000B702A801012E000C660B770B20E08EE87D
:103D400093E00E94480C17FD2AC006EC11E0992070
:103D500049F12091C902243029F522ED34E048EEE2
:103D6000A42E41E0B42E65017C0140E065E070E0E6
:103D700090E080E0DCCD8AEBC82E81E0D82E50CFD9
:103D800006EC11E069CF08EE11E066CF2DE035E0DA
:103D90006DCF08EE11E0B3CF2FED34E0BACF08EECF
:103DA00011E0D5CF23EC34E0DACF8DEF880D8230EF
:103DB00008F094C153E0851244C1E091BE02F0E0E6
:103DC000EE0FFF1FEF54FB4F65917491CE010196EA
:103DD0000E94E93583E00FEC11E0881611F001ED47
:103DE00011E078EEA72E71E0B72E6501750121E98B
:103DF00034E041E070E060E090E080E00E940F116C
:103E000081E08093C203992031F08091C90208EECD
:103E100011E0813019F08E010F5F1F4F68EEA62E62
:103E200061E0B62E6501750128E834E040E062E00B
:103E300070E090E080E00E940F11992029F08091BD
:103E4000C902833009F405C193E04091230189122E
:103E500040911C0150E070E060E021E08CE792E0CE
:103E60000E94480C7C01992029F08091C90282307F
:103E700009F4F4C023E040912401821240911D0115
:103E800050E070E060E021E08EE893E00E94480C92
:103E900048EEA42E41E0B42E65018C012DE734E0FC
:103EA00040E063E070E090E080E00E940F1133E0BA
:103EB000E091B5028312E091B002E150FF0BEE0FEA
:103EC000FF1FED5AFB4F65917491CE0101960E9440
:103ED000E9358091BF02882371F08091C902843056
:103EE00051F48091A702882331F08091A60208EE58
:103EF00011E0811103C08E010F5F1F4F28EEA22E2B
:103F000021E0B22E6501750126E434E040E064E072
:103F100070E090E080E00E940F1143E08091B302D6
:103F20009091B402841621F08091AE029091AF027C
:103F300022E3289FA001299F500D1124052E000C7B
:103F4000660B770B20E08EE893E00E94480C8C0112
:103F5000992029F08091C902853009F49BC053E073
:103F600085127FC08091B3029091B402892B09F42D
:103F7000BEC321E234E098EEA92E91E0B92E65018E
:103F8000750140E065E070E090E080E00E940F1174
:103F900083E088127CC04091B20250E070E060E0A3
:103FA00020E08EE893E00E94480C8C01992029F0D3
:103FB0008091C902863009F486C093E089126DC0F1
:103FC0008091B202882309F4A2C329EE33E088EE7F
:103FD000A82E81E0B82E6501750140E066E070E032
:103FE00090E080E00E940F1123E0821269C04091AE
:103FF000B1024150550B052E000C660B770B20E0EB
:104000008EE893E00E94480C8C01992031F0809159
:10401000C90228EC33E0873051F033E09091B102CF
:1040200083129091AC02911151C02AEA33E0B8EEAC
:10403000AB2EB1E0BB2E6501750140E067E070E09A
:1040400097CEE091BD02F0E0EE0FFF1FE156FB4F6F
:10405000BBCE58EEE52E51E0F52E07CF86EE91E06F
:1040600017CF8091AE029091AF02892B09F081CFDA
:1040700028EEA22E21E0B22E650175012DE034E07C
:1040800040E065E070E090E080E00E940F11409118
:10409000AD0283CF25E334E06ECF8091AD02811174
:1040A00094CF88EEA82E81E0B82E6501750125ED2C
:1040B00033E040E066E070E090E080E00E940F11A5
:1040C0004091AC0296CF2CEF33E081CF29E933E069
:1040D000913009F4ACCF2AEB33E0A9CF45E084124C
:1040E0000EC1A8EEAA2EA1E0BA2E650175018501C8
:1040F0002BE833E041E070E060E090E080E00E9477
:104100000F115092C2032091AB026091AA022223A8
:1041100009F4D1C06550770B39E0369FC001379F55
:10412000900D112465E070E00E94FE393B0150E2E1
:10413000650E711C9110C5C003ED11E0F8EEAF2EB5
:10414000F1E0BF2E650175012AE733E040E062E04F
:1041500070E090E080E00E940F11A301072C000C9A
:10416000660B770B20E08EE893E00E94480C06EC8B
:1041700011E077FE02C008EE11E0992029F02091AD
:10418000C902223009F4A9C02091AA02222309F40D
:10419000A7C02091AB02222309F4A5C021E433E09B
:1041A000E8EEAE2EE1E0BE2E65017C0140E063E06A
:1041B00070E090E080E00E940F11992029F080913A
:1041C000C902833009F492C08091A90207EE11E080
:1041D000882341F08091AB0203EB11E0811102C012
:1041E00005EB11E0992029F08091C902833009F490
:1041F00080C04091A9028BEC91E04423E9F050E0AB
:10420000435E5F4F8091AB02882369F029E0249FD1
:10421000C001259F900D112465E070E00E94FE39D9
:10422000AB01405E5F4F052E000C660B770B20E064
:104230008EE893E00E94480C78EEA72E71E0B72E2E
:10424000650178018C012CE233E040E064E070E02D
:1042500090E080E00E940F11992029F08091C9021E
:10426000843009F449C04091D3025091D402052E04
:10427000000C660B770B20E08EE893E00E94480C60
:10428000992031F02091C90207EE11E0243051F05D
:104290002091D3023091D40206EC11E037FF02C026
:1042A00008EE11E068EEA62E61E0B62E65017C01F5
:1042B00027E133E05ACD862F8550990B3C01992098
:1042C00049F08091C90208EE11E0813009F436CF3F
:1042D000211132CF0CED11E031CF2EE633E060CF6B
:1042E00020E533E05DCF2FE533E05ACF07EE11E054
:1042F0007BCF84EE91E0A0CF85EE91E0C3CF96E036
:10430000891235C048EEA42E41E0B42E6501750136
:10431000850126E033E041E070E060E090E080E07D
:104320000E940F11E091A802E150FF0BEE0FFF1F5A
:10433000ED5AFB4F65917491CE0101960E94E935CB
:10434000992031F08091C90208EE11E0813019F016
:104350008E010F5F1F4F38EEA32E31E0B32E6501A3
:1043600075012EEF32E040E064E070E001CD27E01F
:104370008212C4C028EEA22E21E0B22E6501750182
:1043800085012EEE32E041E070E060E090E080E0F8
:104390000E940F11F090AB020091D5021091D6024D
:1043A000FF2069F029E0209FC001219F900D11247A
:1043B00065E070E00E94FE398B01005E1F4F409166
:1043C0002E0150E070E060E021E08EEE91E00E946E
:1043D000480C5C0140912F0150E070E060E021E06A
:1043E0008CE792E00E94480C6C01FF2009F47CC02D
:1043F00093EBE92E91E0F92EA801110F660B770BD4
:1044000020E08EE893E00E94480C8C0125EE32E01B
:1044100040E062E070E090E080E00E940F11809147
:10442000AB0213EBE12E11E0F12E811104C0B5EBCC
:10443000EB2EB1E0FB2EA301770C660B770B20E08F
:104440008EE893E00E94480CA8EEAA2EA1E0BA2EB6
:1044500065018C0120EE32E040E064E070E090E025
:1044600080E00E940F11F090AB020091D7021091F2
:10447000D802FF2069F029E0209FC001219F900D04
:10448000112465E070E00E94FE398B01005E1F4F31
:104490004091350150E070E060E021E08EEE91E067
:1044A0000E94480C5C014091360150E070E060E0F1
:1044B00021E08CE792E00E94480C6C01FF20C9F0DB
:1044C000F3EBEF2EF1E0FF2EA801110F660B770B37
:1044D00020E08EE893E00E94480C8C0127ED32E04A
:1044E00040E066E070E044CC85EBE82E81E0F82EF9
:1044F00083CFE5EBEE2EE1E0FE2EE6CF38E083122F
:1045000018CA5092C20378EEA72E71E0B72E65014B
:104510007501850127EC32E040E070E060E090E05A
:1045200080E00E940F1126EB32E040E061E070E095
:1045300090E080E00E940F114091260150E070E071
:1045400060E021E08EEE91E00E94480C6C01409109
:10455000270150E070E060E021E08CE792E00E94EB
:10456000480C7C014091280150E070E060E021E0BF
:104570008EE893E00E94480C8C0124EA32E040E08F
:1045800062E070E090E080E00E940F1181E00E9404
:10459000870D0E94DD0C650175018C0128E932E070
:1045A00040E063E070E090E080E00E940F114091F5
:1045B0001F0150E070E060E021E08EEE91E00E948B
:1045C000480C6C014091200150E070E060E021E077
:1045D0008CE792E00E94480C7C014091210150E060
:1045E00070E060E021E08EE893E00E94480C8C01CE
:1045F00026E832E040E064E070E090E080E00E9475
:104600000F1182E00E94870D0E94DD0C650175018B
:104610008C012AE732E040E065E070E090E080E065
:104620000E940F110E94310E8C019093D202809350
:10463000D1020E94ED0DAC01990F660B770B20E0C3
:104640008CE792E00E94480C7C01A801110F660BD8
:10465000770B20E08EE893E00E94480C8C012DE659
:1046600032E040E066E070E090E080E00E940F11F0
:104670008091AB0263EBA62E61E0B62E811104C0DF
:1046800055EBA52E51E0B52E80918A02823038F587
:10469000A301770C660B770B20E08EEE91E00E9471
:1046A000480C6C014091880250918902052E000C43
:1046B000660B770B20E08CE792E00E94480C7C01AF
:1046C00040915C0250915D0270E060E020E08EE875
:1046D00093E00E94480C8C012CE532E0AECC4AEE0F
:1046E000E42E41E0F42E670189EE91E0F4CF38EE3C
:1046F000A32E31E0B32E650175012DE034E040E0DA
:1047000065E070E090E080E00E940F1144CC98EEEC
:10471000A92E91E0B92E6501750125ED33E040E049
:1047200066E070E090E080E00E940F1160CC1F9284
:104730000F920FB60F9211242F933F938F939F9355
:10474000AF93BF9380913F0290914002A0914102AC
:10475000B091420230913E0223E0230F2D3758F5ED
:104760000196A11DB11D20933E0280933F029093BC
:104770004002A0934102B093420280914302909183
:104780004402A0914502B09146020196A11DB11DBF
:104790008093430290934402A0934502B093460253
:1047A000BF91AF919F918F913F912F910F900FBE2D
:1047B0000F901F90189526E8230F0296A11DB11D9A
:1047C000D2CF1F920F920FB60F9211242F933F93C7
:1047D0004F935F936F937F938F939F93AF93BF9309
:1047E000EF93FF93E0910201F09103010995FF918E
:1047F000EF91BF91AF919F918F917F916F915F9159
:104800004F913F912F910F900FBE0F901F901895D1
:104810001F920F920FB60F9211242F933F934F9335
:104820005F936F937F938F939F93AF93BF93EF9318
:10483000FF93E0910001F09101010995FF91EF9143
:10484000BF91AF919F918F917F916F915F914F91A8
:104850003F912F910F900FBE0F901F9018951F92B0
:104860000F920FB60F9211242F933F934F935F93A4
:104870006F937F938F939F93AF93BF93EF93FF9328
:104880008091B900887F803609F44AC0F0F58832FB
:1048900009F4A5C018F5803109F499C0B8F488234B
:1048A00009F4F5C0883009F492C0FF91EF91BF91EF
:1048B000AF919F918F917F916F915F914F913F91B8
:1048C0002F910F900FBE0F901F901895883109F40B
:1048D00086C0803251F780935A0314C0803409F4A3
:1048E0009BC040F48033B9F38833F9F680935A03C0
:1048F00085ECAEC0803509F483C0883509F494C0D6
:10490000883499F60E94691BD0CF883909F48AC08F
:1049100038F5883729F050F4883611F0803729F6B9
:1049200083E080935C0310923D0255C0883809F4FF
:1049300079C0803919F0803809F0B7CF80913D02F5
:10494000803208F06FC0E0913D0281E08E0F8093CD
:104950003D028091BB00F0E0E35EFD4F80833BC0F1
:10496000803B39F0D0F4803A09F477C0883A09F0F6
:104970009CCF84E080935C0310921C0210921B0277
:10498000F0E0E0E0099580911B0281110FC081E009
:1049900080931B021092FB0109C0803C09F4A8CF50
:1049A000883C09F4A5CF883B09F07FCFE0911C0239
:1049B00081E08E0F80931C02F0E0E550FE4F808175
:1049C0008093BB0090911C0280911B0229C08091B2
:1049D00037038093BB0085EC8093BC0066CF909139
:1049E000590380915803981758F5E091590381E0D5
:1049F0008E0F80935903F0E0E85CFC4F8081E9CF93
:104A0000E091590381E08E0F809359038091BB00A0
:104A1000F0E0E85CFC4F808390915903809158034B
:104A20009817C8F285E8D8CFE091590381E08E0F3E
:104A3000809359038091BB00F0E0E85CFC4F8083D9
:104A400080915B0381115ECF81E08093360384EA1D
:104A50008093BC0010925C0328CF85EC8093BC004F
:104A600010925C0380913D02803230F4E0913D026F
:104A7000F0E0E35EFD4F108260913D0270E08DE159
:104A800092E0F0E0E0E0099510923D020ECF109226
:104A90005A0338CF1F920F920FB60F9211240F9026
:104AA0000FBE0F901F9018951F920F920FB60F9286
:104AB00011240F900FBE0F901F9018951F920F9208
:104AC0000FB60F9211248F938091E0028F5F809335
:104AD000E0028F910F900FBE0F901F901895EAE99A
:104AE000F3E01382128288EE93E0A0E0B0E08483CA
:104AF0009583A683B7838CE891E091838083E4EB70
:104B0000F3E013821282128614861386158681E0E2
:104B100086878EE991E09183808360E081E10E9445
:104B2000DA08E8EEFCE0E491A6EAB3E0EC93E4ED09
:104B3000FCE0E491F0E0EE0FFF1FE754F34F8591A6
:104B4000949112969C938E9311971B961C921B978F
:104B50001D961C921D971C961C921C971A961C92CF
:104B60001A9719961C92199718961C9218971796CF
:104B70001C92179716961C92169715961C921597CD
:104B800014961C92149713961C920895CF93DF935A
:104B9000CDB7DEB7AF970FB6F894DEBF0FBECDBF6F
:104BA000789484B5826084BD84B5816084BD85B508
:104BB000826085BD85B5816085BD80916E00816014
:104BC00080936E00109281008091810082608093BA
:104BD00081008091810081608093810080918000BC
:104BE0008160809380008091B10084608093B100E7
:104BF0008091B00081608093B00080917A008460E1
:104C000080937A0080917A00826080937A0080910C
:104C10007A00816080937A0080917A008068809326
:104C20007A001092C100A895F89414BE809160009B
:104C300088618093600089E280936000789488E4C2
:104C40008093B8006AE070E080E090E00E943B0949
:104C500061E080E00E94DA086DE471E086E990E0AE
:104C60000E94690D61E08FE00E94DA0860E08FE049
:104C70000E94AC086AE070E080E090E00E943B098E
:104C800061E08FE00E94AC086AE070E080E090E0B4
:104C90000E943B0989E08093C3038AE08093C403A8
:104CA00061E089E00E94DA0861E08091C4030E941B
:104CB000DA081FB7F89480914702811127C0EDEC04
:104CC000FCE08491E1EEFCE09491E82FF0E0EE0F3F
:104CD000FF1FEA56F44FA591B491EC91E92321F41A
:104CE00061E08AE00E94AC0861E08AE00E94DA0894
:104CF0008CB580618CBD8CB580648CBD61E08DE02D
:104D00000E94DA0861E08BE00E94DA088091470295
:104D10008F5F809347021FBF1092B8031092B903B0
:104D2000EDE2FCE0C590D490EFE2FCE0F490E0E32B
:104D3000FCE0E491E093BA03E1E3FCE0E491E0936A
:104D4000BB03E2E3FCE0E491E093BC0310E000E08D
:104D50000F1558F4F601E00FF11F649184EB93E016
:104D60000E94F40E0F5F1F4FF3CF84EB93E00E947D
:104D70005C0F61E884EB93E00E94F40E66EE84EB36
:104D800093E00E94F40E84EB93E00E945C0F68E2D3
:104D90007CE090E080E00E94EC116DE471E080E046
:104DA00090E00E943B0962E082E00E94DA0862E043
:104DB00081E00E94DA0862E084E00E94DA0862E0A2
:104DC00083E00E94DA0861E088E00E94DA0860E08F
:104DD00088E00E94AC0860E080E10E94DA086AE0A6
:104DE00070E080E090E00E943B090E9401140FEF08
:104DF0001FEF62E383E093E00E94960990913503F0
:104E0000891709F446C00F3F100709F042C084EB30
:104E100093E00E945C0F60E27CE082E090E00E9400
:104E2000EC1169E17CE084E090E00E94EC116DE01F
:104E30007CE086E090E00E94EC1181E00E94830813
:104E40008C01019751F584EB93E00E945C0F67E0C1
:104E50007CE090E080E00E94EC1183E00E948308F7
:104E6000892B61F484EB93E00E945C0F6FEF7BE091
:104E700090E080E00E94EC1103E010E065E070E05B
:104E800080E090E00E943B09A8950F3F1007A9F22F
:104E9000B0CF0330110521F4FFCF0FEF1FEFDDCFAF
:104EA00001301105D9F442E350E06DEC7BE083E082
:104EB00093E00E94E0350E9442122091420130911D
:104EC0004301409144015091450160914601709128
:104ED0004701809148010E949512FFCFA8958091CB
:104EE00003038093AB02809104038053990B90934A
:104EF000BC028093BB02809105038A55990B909365
:104F0000B9028093B80280910703282F30E0322F36
:104F1000222780910603820F932F911D845B9109B4
:104F20009093B7028093B602809108038093AA02FF
:104F300080910A038093BA0280910B0390E09093D2
:104F4000B4028093B30280910D03282F30E0322FFA
:104F5000222780910C03820F932F911D805F91096E
:104F60009093D4028093D30280910E038093BE026B
:104F700080910F038093240180911003809323017B
:104F8000809111038093B5028091120380932801D0
:104F9000809113038093270180911403809326014D
:104FA000809115038093BD028091160380931D01AB
:104FB0008091170380931C01809118038093B002A5
:104FC000809119038093210180911A03809320011D
:104FD00080911B0380931F0180911C038093B10279
:104FE00080911D038093B20280911F0390E0982F5F
:104FF000882720911E03820F911D90939302809326
:1050000092028091210390E0982F8827209120031D
:10501000820F911D909395028093940280912203B8
:1050200090E090938C0280938B0280912303809375
:10503000A802809124038093A90280912503809384
:105040003A01809126038093390180912703809350
:105050003801809128038D57990B9093D802809343
:10506000D702809129038093360180912A0380938F
:10507000350180912B038093330180912C03809321
:10508000320180912D038093310180912E038D5741
:10509000990B9093D6028093D50280912F03809331
:1050A0002F018091300380932E01809131038093F2
:1050B000AC02809132038093AD028091330390E083
:1050C0009093AF028093AE0266EC7BE082E090E0CA
:1050D0000E94EC116DE471E080E090E00E943B09D9
:1050E0000E945A0E0E94310E9093D2028093D102F8
:1050F00088E60E94F00760E08AE993E00E942C0BAA
:105100000E94E109882359F061E080E00E94AC0828
:1051100060EA7BE090E080E00E94EC11FFCF81E04C
:1051200090E00E9433130E940D0887FF0FC088E6AD
:105130000E94F00760E08AE993E00E942C0B60E097
:105140008AE993E00E942C0B0E94E10965E070E07F
:1051500080E090E00E943B0988E60E94F00767E04B
:105160008AE993E00E942C0B60E18AE993E00E94B7
:105170002C0B0E94E109882359F061E080E00E9435
:10518000AC086EEB7BE084E090E00E94EC11FFCF76
:1051900067EB7BE084E090E00E94EC116DE471E04D
:1051A00080E090E00E943B09A8950E94110E809338
:1051B000D00288E28093A9031092AA031092AB0355
:1051C0001092AC031092AD031092AE031092AF0395
:1051D0001092B00380E48093B1031092B203109256
:1051E000B3030E947207811157C06FEA7BE086E02B
:1051F00090E00E94EC1160ED77E080E090E00E948A
:105200003B09A8956DE471E086E990E00E94690D84
:105210006DE471E086E990E00E94690D6DE471E053
:1052200086E990E00E94690D84EB93E00E945C0F98
:10523000A89587E298E09093010180930001809106
:1052400069008C7F826080936900E89ACE010A969B
:105250009FA78EA744244A94542C612C712CA895A6
:105260008090E0029090DF02882011F40C94C13508
:105270001092E00291100C94BD351092DE028091E4
:10528000DD02882311F40C94C7350E94E31081E0FD
:105290008093DC020C94C73568EA7BE086E090E0FE
:1052A0000E94EC116DE471E080E090E0A8CF809165
:1052B000DB0281110C94C7358091DE02893700F141
:1052C00081E08093DD021092DE021092DB021092E8
:1052D000C9021092C80280932C0184EB93E00E94D3
:1052E0005C0F6EEA84EB93E00E94F40E6DEA84EBAF
:1052F00093E00E94F40E6AE884EB93E00E94F40EBF
:105300008091DD028111E1C181E00E94830811E0FA
:10531000892B09F410E08091A502181751F00E9422
:105320006E096093A1027093A2028093A3029093EE
:10533000A4020E946E0920911A01C090A102D0908F
:10534000A202E090A302F090A4026C197D098E09DC
:105350009F096A3171058105910518F012131093A8
:105360001A011093A50284E00E94830811E0892BA2
:1053700009F410E08091A002181751F00E946E0904
:1053800060939C0270939D0280939E0290939F0273
:105390000E946E09C0909C02D0909D02E0909E02F7
:1053A000F0909F026C197D098E099F096A31710581
:1053B0008105910528F080911901181310931901A6
:1053C0001093A00283E00E94830811E0892B09F466
:1053D00010E080919B02181751F00E946E096093B3
:1053E0009702709398028093990290939A020E9478
:1053F0006E09C0909702D0909802E0909902F090C8
:105400009A026C197D098E099F096A31710581051F
:10541000910528F08091180118131093180110932A
:105420009B028091960290911A012091BF02222343
:1054300071F181112CC080912C01E82FF0E0E1582E
:10544000FE4F2081222319F13091C8023531F8F046
:1054500091111DC09091CF029111B6C79091DB02BE
:1054600031E093279093DB02911101C020E020935B
:10547000C902911109C09FEF980F933008F0F8C648
:105480000E947F1A0E94591481E0809396028091B5
:105490001A0190919602992331F0882321F01092FD
:1054A00096021092C8021091DB02112309F4B4C7CE
:1054B0008111B5C780912B01813021F410922B010D
:1054C0001092DE028091A702882351F08091C802D9
:1054D0008C3030F080911901811102C01092A70226
:1054E0008091A702811107C080911901882319F0CA
:1054F00081E08093A7028091A602882351F08091D9
:10550000C8028C3030F080911801811102C01092D5
:10551000A6028091A602811107C0809118018823FC
:1055200019F081E08093A6028091960281111AC041
:1055300080912A019091190191110C94AB35813021
:1055400021F410922A011092DE028091290190919B
:10555000180191110C94B435813021F41092290175
:105560001092DE020E946E09C090C402D090C50263
:10557000E090C602F090C7026C197D098E099F0960
:10558000673471058105910508F471C00E946E09A8
:105590006093C4027093C5028093C6029093C702C1
:1055A00081E00E948308892B09F042C78091C802DC
:1055B0008F5F8093C8021092DE0280912B018111CF
:1055C00025C082E080932B018091C902E0912C01DB
:1055D000813009F041C7E33009F039C79091BE022C
:1055E000923008F439C784E08093C90221E0209307
:1055F000CE023091C902F0E0E158FE4F808190E088
:1056000001963817190611F42093C90280912A01D6
:10561000882321F09091290191110EC021E020935F
:10562000CE0211113BC79091DC02992309F416C7F1
:105630001092DC021092CE0280912A0181110C940A
:10564000933582E080932A018091290181110C9485
:105650009F3582E0809329018091DB02811104C093
:105660008091CF02882319F081E08093CE020E94BE
:105670006E090091C0021091C1022091C2023091C6
:10568000C302601B710B820B930B693C7105810592
:105690009105D8F08091BF0291E089278093BF02E5
:1056A0000E946E096093C0027093C1028093C2028F
:1056B0009093C3028091DB02811104C08091CF02DC
:1056C000882319F081E08093CE028091DD02811160
:1056D0000AC08091CE02882331F080912C010E9473
:1056E000A11B1092CE028091DD02882309F445C0EF
:1056F00083B7817F846083BF83B7816083BFF89461
:10570000809164008F6E8093640085B7806685BF4A
:105710008F7D85BF78948091680084608093680055
:1057200080916D00826080936D0080916D00886033
:1057300080936D0080916D00806180936D00DA9A96
:10574000889583B78E7F83BF80916400807180933A
:1057500064008091680084708093680080916D007F
:10576000827080936D0080916D00887080936D00D1
:1057700080916D00807180936D0062E070E080E048
:1057800090E00E943B0980E090E0892B09F467CD0E
:105790000E94000064CD882009F48ECD8091CF0254
:1057A000811118C38091DD02811105C08091DE0254
:1057B0008F5F8093DE02A0903B01B0903C01C090CF
:1057C0003D01D0903E01E0903F01F09040010091FA
:1057D000410120911B0130911C0140911D0150910C
:1057E0001E0160911F01709120018091210111C360
:1057F00087E090E00E943313D09001038091020370
:10580000D81609F4BAC20E940D08982F9295977085
:10581000282F2F70A22EAAE09A9FA00C11249091FD
:105820000203D9120E940D08282F2F70982F9295ED
:105830009F70B22EBAE09B9FB00C1124909102038E
:10584000D9120E940D08982F92959370082F0F700F
:10585000EAE09E9F000D112490910203D9120E944C
:105860000D08282F2F70982F92959F70C22EFAE066
:105870009F9FC00C112490910203D9120E940D0821
:10588000282F2F70982F92959F70E22E3AE0939FC9
:10589000E00C112490910203D9120E940D08282FC8
:1058A0002F70982F92959F70F22E4AE0949FF00CE3
:1058B000112490910203D9120E940D08982F9295FD
:1058C0009F708F70182FAAE09A9F100D1124A0923C
:1058D0004201B092430100934401C0924501E0921D
:1058E0004601F0924701109348019501402F5C2D2D
:1058F000B701812F0E945B0B882309F44BC287E01C
:10590000E2E4F1E0DE01979601900D928A95E1F7CD
:105910008FE190E09A8389839E838D832EE130E02E
:1059200038872F839A8789873C872B879E878D8727
:10593000988B8F873A8B298B9C8B8B8B3E8B2D8BF7
:10594000988F8F8B812F837009F019C28DE190E0C1
:105950009C838B83073109F01BC22F2D2150330B01
:10596000F901EE0FFF1F81E090E08C0F9D1FE80F03
:10597000F91F80819181E816190609F006C29CE0A2
:10598000F91200C21F5F00E0FF24F394EE24E394B9
:1059900009A7EBA6FCA61DA787E0FE01B796DE01CE
:1059A000599601900D928A95E1F787E0FE0179966C
:1059B000DE01909601900D928A95E1F787E0FE0155
:1059C000B096ABE3B1E001900D928A95E1F7992092
:1059D00009F4E1CE70E060E081E090E00E94690DA2
:1059E0008091420180FDDEC088E28093A90310927D
:1059F000AA031092AB031092AC031092AD03109265
:105A0000AE031092AF031092B00380E48093B10311
:105A10001092B2031092B3030E947207882309F414
:105A2000BDC161E070E080E090E00E943B090E940F
:105A30004507882309F4B2C185E50E94D10606E82E
:105A400013E0D8018D918D010E94D106EEE8F3E0BC
:105A5000E017F107B1F78EEB0E94D1068E010F5FC0
:105A60001F4F5801F12CA8E0CA2ED12CEE24E3944C
:105A70000E94F4068111FE28EE0CF1E0CF1AD10845
:105A8000B9F7D801FD928D01EEA5FFA5EA17FB0736
:105A900049F768E0C5010E949609998589137EC17E
:105AA00069817A81072E000C880B990B0E94F735CB
:105AB00020E030E040E85DE30E9456360E943E3828
:105AC0002A81E22FEC7F2B8130E050E040E0542F20
:105AD000432F322F2227FC812F0F311D411D511DD5
